{
  "contractName": "ExperienceTicketing",
  "abi": [
    {
      "inputs": [
        {
          "internalType": "string",
          "name": "name",
          "type": "string"
        },
        {
          "internalType": "string",
          "name": "symbol",
          "type": "string"
        }
      ],
      "stateMutability": "nonpayable",
      "type": "constructor"
    },
    {
      "anonymous": false,
      "inputs": [
        {
          "indexed": true,
          "internalType": "address",
          "name": "account",
          "type": "address"
        },
        {
          "indexed": true,
          "internalType": "address",
          "name": "operator",
          "type": "address"
        },
        {
          "indexed": false,
          "internalType": "bool",
          "name": "approved",
          "type": "bool"
        }
      ],
      "name": "ApprovalForAll",
      "type": "event"
    },
    {
      "anonymous": false,
      "inputs": [
        {
          "indexed": true,
          "internalType": "address",
          "name": "previousOwner",
          "type": "address"
        },
        {
          "indexed": true,
          "internalType": "address",
          "name": "newOwner",
          "type": "address"
        }
      ],
      "name": "OwnershipTransferred",
      "type": "event"
    },
    {
      "anonymous": false,
      "inputs": [
        {
          "indexed": false,
          "internalType": "uint256",
          "name": "experienceId",
          "type": "uint256"
        }
      ],
      "name": "TicketCreated",
      "type": "event"
    },
    {
      "anonymous": false,
      "inputs": [
        {
          "indexed": true,
          "internalType": "address",
          "name": "operator",
          "type": "address"
        },
        {
          "indexed": true,
          "internalType": "address",
          "name": "from",
          "type": "address"
        },
        {
          "indexed": true,
          "internalType": "address",
          "name": "to",
          "type": "address"
        },
        {
          "indexed": false,
          "internalType": "uint256[]",
          "name": "ids",
          "type": "uint256[]"
        },
        {
          "indexed": false,
          "internalType": "uint256[]",
          "name": "values",
          "type": "uint256[]"
        }
      ],
      "name": "TransferBatch",
      "type": "event"
    },
    {
      "anonymous": false,
      "inputs": [
        {
          "indexed": true,
          "internalType": "address",
          "name": "operator",
          "type": "address"
        },
        {
          "indexed": true,
          "internalType": "address",
          "name": "from",
          "type": "address"
        },
        {
          "indexed": true,
          "internalType": "address",
          "name": "to",
          "type": "address"
        },
        {
          "indexed": false,
          "internalType": "uint256",
          "name": "id",
          "type": "uint256"
        },
        {
          "indexed": false,
          "internalType": "uint256",
          "name": "value",
          "type": "uint256"
        }
      ],
      "name": "TransferSingle",
      "type": "event"
    },
    {
      "anonymous": false,
      "inputs": [
        {
          "indexed": false,
          "internalType": "string",
          "name": "value",
          "type": "string"
        },
        {
          "indexed": true,
          "internalType": "uint256",
          "name": "id",
          "type": "uint256"
        }
      ],
      "name": "URI",
      "type": "event"
    },
    {
      "inputs": [
        {
          "internalType": "address",
          "name": "account",
          "type": "address"
        },
        {
          "internalType": "uint256",
          "name": "id",
          "type": "uint256"
        }
      ],
      "name": "balanceOf",
      "outputs": [
        {
          "internalType": "uint256",
          "name": "",
          "type": "uint256"
        }
      ],
      "stateMutability": "view",
      "type": "function",
      "constant": true
    },
    {
      "inputs": [
        {
          "internalType": "address[]",
          "name": "accounts",
          "type": "address[]"
        },
        {
          "internalType": "uint256[]",
          "name": "ids",
          "type": "uint256[]"
        }
      ],
      "name": "balanceOfBatch",
      "outputs": [
        {
          "internalType": "uint256[]",
          "name": "",
          "type": "uint256[]"
        }
      ],
      "stateMutability": "view",
      "type": "function",
      "constant": true
    },
    {
      "inputs": [
        {
          "internalType": "uint256",
          "name": "id",
          "type": "uint256"
        }
      ],
      "name": "exists",
      "outputs": [
        {
          "internalType": "bool",
          "name": "",
          "type": "bool"
        }
      ],
      "stateMutability": "view",
      "type": "function",
      "constant": true
    },
    {
      "inputs": [
        {
          "internalType": "address",
          "name": "account",
          "type": "address"
        },
        {
          "internalType": "address",
          "name": "operator",
          "type": "address"
        }
      ],
      "name": "isApprovedForAll",
      "outputs": [
        {
          "internalType": "bool",
          "name": "",
          "type": "bool"
        }
      ],
      "stateMutability": "view",
      "type": "function",
      "constant": true
    },
    {
      "inputs": [],
      "name": "owner",
      "outputs": [
        {
          "internalType": "address",
          "name": "",
          "type": "address"
        }
      ],
      "stateMutability": "view",
      "type": "function",
      "constant": true
    },
    {
      "inputs": [],
      "name": "renounceOwnership",
      "outputs": [],
      "stateMutability": "nonpayable",
      "type": "function"
    },
    {
      "inputs": [
        {
          "internalType": "address",
          "name": "from",
          "type": "address"
        },
        {
          "internalType": "address",
          "name": "to",
          "type": "address"
        },
        {
          "internalType": "uint256[]",
          "name": "ids",
          "type": "uint256[]"
        },
        {
          "internalType": "uint256[]",
          "name": "amounts",
          "type": "uint256[]"
        },
        {
          "internalType": "bytes",
          "name": "data",
          "type": "bytes"
        }
      ],
      "name": "safeBatchTransferFrom",
      "outputs": [],
      "stateMutability": "nonpayable",
      "type": "function"
    },
    {
      "inputs": [
        {
          "internalType": "address",
          "name": "from",
          "type": "address"
        },
        {
          "internalType": "address",
          "name": "to",
          "type": "address"
        },
        {
          "internalType": "uint256",
          "name": "id",
          "type": "uint256"
        },
        {
          "internalType": "uint256",
          "name": "amount",
          "type": "uint256"
        },
        {
          "internalType": "bytes",
          "name": "data",
          "type": "bytes"
        }
      ],
      "name": "safeTransferFrom",
      "outputs": [],
      "stateMutability": "nonpayable",
      "type": "function"
    },
    {
      "inputs": [
        {
          "internalType": "address",
          "name": "operator",
          "type": "address"
        },
        {
          "internalType": "bool",
          "name": "approved",
          "type": "bool"
        }
      ],
      "name": "setApprovalForAll",
      "outputs": [],
      "stateMutability": "nonpayable",
      "type": "function"
    },
    {
      "inputs": [
        {
          "internalType": "bytes4",
          "name": "interfaceId",
          "type": "bytes4"
        }
      ],
      "name": "supportsInterface",
      "outputs": [
        {
          "internalType": "bool",
          "name": "",
          "type": "bool"
        }
      ],
      "stateMutability": "view",
      "type": "function",
      "constant": true
    },
    {
      "inputs": [
        {
          "internalType": "uint256",
          "name": "",
          "type": "uint256"
        }
      ],
      "name": "tickets",
      "outputs": [
        {
          "internalType": "uint32",
          "name": "nbTickets",
          "type": "uint32"
        },
        {
          "internalType": "uint256",
          "name": "date",
          "type": "uint256"
        },
        {
          "internalType": "string",
          "name": "name",
          "type": "string"
        }
      ],
      "stateMutability": "view",
      "type": "function",
      "constant": true
    },
    {
      "inputs": [
        {
          "internalType": "uint256",
          "name": "",
          "type": "uint256"
        }
      ],
      "name": "ticketsSold",
      "outputs": [
        {
          "internalType": "uint256",
          "name": "",
          "type": "uint256"
        }
      ],
      "stateMutability": "view",
      "type": "function",
      "constant": true
    },
    {
      "inputs": [
        {
          "internalType": "uint256",
          "name": "id",
          "type": "uint256"
        }
      ],
      "name": "totalSupply",
      "outputs": [
        {
          "internalType": "uint256",
          "name": "",
          "type": "uint256"
        }
      ],
      "stateMutability": "view",
      "type": "function",
      "constant": true
    },
    {
      "inputs": [
        {
          "internalType": "address",
          "name": "newOwner",
          "type": "address"
        }
      ],
      "name": "transferOwnership",
      "outputs": [],
      "stateMutability": "nonpayable",
      "type": "function"
    },
    {
      "inputs": [
        {
          "internalType": "uint256",
          "name": "tokenId",
          "type": "uint256"
        }
      ],
      "name": "uri",
      "outputs": [
        {
          "internalType": "string",
          "name": "",
          "type": "string"
        }
      ],
      "stateMutability": "view",
      "type": "function",
      "constant": true
    },
    {
      "inputs": [
        {
          "internalType": "string",
          "name": "newuri",
          "type": "string"
        }
      ],
      "name": "setURI",
      "outputs": [],
      "stateMutability": "nonpayable",
      "type": "function"
    },
    {
      "inputs": [
        {
          "internalType": "uint256",
          "name": "_experienceId",
          "type": "uint256"
        },
        {
          "internalType": "uint32",
          "name": "_nbTickets",
          "type": "uint32"
        },
        {
          "internalType": "uint256",
          "name": "_date",
          "type": "uint256"
        },
        {
          "internalType": "string",
          "name": "_name",
          "type": "string"
        }
      ],
      "name": "createTicket",
      "outputs": [],
      "stateMutability": "nonpayable",
      "type": "function"
    },
    {
      "inputs": [
        {
          "internalType": "address",
          "name": "_to",
          "type": "address"
        },
        {
          "internalType": "uint256",
          "name": "_experienceId",
          "type": "uint256"
        },
        {
          "internalType": "string",
          "name": "_tokenURI",
          "type": "string"
        },
        {
          "internalType": "uint256",
          "name": "_amount",
          "type": "uint256"
        },
        {
          "internalType": "bytes",
          "name": "_data",
          "type": "bytes"
        }
      ],
      "name": "mint",
      "outputs": [],
      "stateMutability": "nonpayable",
      "type": "function"
    }
  ],
  "bytecode": "0x60806040526040518060200160405280600081525060039081620000249190620003ff565b503480156200003257600080fd5b50604051620041c0380380620041c083398181016040528101906200005891906200064a565b604051806020016040528060008152506200007981620000a260201b60201c565b506200009a6200008e620000b760201b60201c565b620000bf60201b60201c565b5050620006cf565b8060029081620000b39190620003ff565b5050565b600033905090565b6000600660009054906101000a900473ffffffffffffffffffffffffffffffffffffffff16905081600660006101000a81548173ffffffffffffffffffffffffffffffffffffffff021916908373ffffffffffffffffffffffffffffffffffffffff1602179055508173ffffffffffffffffffffffffffffffffffffffff168173ffffffffffffffffffffffffffffffffffffffff167f8be0079c531659141344cd1fd0a4f28419497f9722a3daafe3b4186f6b6457e060405160405180910390a35050565b600081519050919050565b7f4e487b7100000000000000000000000000000000000000000000000000000000600052604160045260246000fd5b7f4e487b7100000000000000000000000000000000000000000000000000000000600052602260045260246000fd5b600060028204905060018216806200020757607f821691505b6020821081036200021d576200021c620001bf565b5b50919050565b60008190508160005260206000209050919050565b60006020601f8301049050919050565b600082821b905092915050565b600060088302620002877fffffffffffffffffffffffffffffffffffffffffffffffffffffffffffffffff8262000248565b62000293868362000248565b95508019841693508086168417925050509392505050565b6000819050919050565b6000819050919050565b6000620002e0620002da620002d484620002ab565b620002b5565b620002ab565b9050919050565b6000819050919050565b620002fc83620002bf565b620003146200030b82620002e7565b84845462000255565b825550505050565b600090565b6200032b6200031c565b62000338818484620002f1565b505050565b5b8181101562000360576200035460008262000321565b6001810190506200033e565b5050565b601f821115620003af57620003798162000223565b620003848462000238565b8101602085101562000394578190505b620003ac620003a38562000238565b8301826200033d565b50505b505050565b600082821c905092915050565b6000620003d460001984600802620003b4565b1980831691505092915050565b6000620003ef8383620003c1565b9150826002028217905092915050565b6200040a8262000185565b67ffffffffffffffff81111562000426576200042562000190565b5b620004328254620001ee565b6200043f82828562000364565b600060209050601f83116001811462000477576000841562000462578287015190505b6200046e8582620003e1565b865550620004de565b601f198416620004878662000223565b60005b82811015620004b1578489015182556001820191506020850194506020810190506200048a565b86831015620004d15784890151620004cd601f891682620003c1565b8355505b6001600288020188555050505b505050505050565b6000604051905090565b600080fd5b600080fd5b600080fd5b600080fd5b6000601f19601f8301169050919050565b620005208262000504565b810181811067ffffffffffffffff8211171562000542576200054162000190565b5b80604052505050565b600062000557620004e6565b905062000565828262000515565b919050565b600067ffffffffffffffff82111562000588576200058762000190565b5b620005938262000504565b9050602081019050919050565b60005b83811015620005c0578082015181840152602081019050620005a3565b60008484015250505050565b6000620005e3620005dd846200056a565b6200054b565b905082815260208101848484011115620006025762000601620004ff565b5b6200060f848285620005a0565b509392505050565b600082601f8301126200062f576200062e620004fa565b5b815162000641848260208601620005cc565b91505092915050565b60008060408385031215620006645762000663620004f0565b5b600083015167ffffffffffffffff811115620006855762000684620004f5565b5b620006938582860162000617565b925050602083015167ffffffffffffffff811115620006b757620006b6620004f5565b5b620006c58582860162000617565b9150509250929050565b613ae180620006df6000396000f3fe608060405234801561001057600080fd5b50600436106101155760003560e01c8063715018a6116100a2578063cf237fc011610071578063cf237fc014610304578063df3864d514610320578063e985e9c514610350578063f242432a14610380578063f2fde38b1461039c57610115565b8063715018a6146102905780638da5cb5b1461029a578063a22cb465146102b8578063bd85b039146102d457610115565b80630e89341c116100e95780630e89341c146101b25780632eb2c2d6146101e25780634e1273f4146101fe5780634f558e791461022e57806350b447121461025e57610115565b8062fdd58e1461011a57806301ffc9a71461014a578063021953481461017a57806302fe530514610196575b600080fd5b610134600480360381019061012f9190611fe2565b6103b8565b6040516101419190612031565b60405180910390f35b610164600480360381019061015f91906120a4565b610480565b60405161017191906120ec565b60405180910390f35b610194600480360381019061018f9190612289565b610562565b005b6101b060048036038101906101ab919061230c565b61061d565b005b6101cc60048036038101906101c79190612355565b610631565b6040516101d99190612401565b60405180910390f35b6101fc60048036038101906101f7919061258c565b610643565b005b6102186004803603810190610213919061271e565b6106e4565b6040516102259190612854565b60405180910390f35b61024860048036038101906102439190612355565b6107fd565b60405161025591906120ec565b60405180910390f35b61027860048036038101906102739190612355565b610811565b60405161028793929190612885565b60405180910390f35b6102986108d3565b005b6102a26108e7565b6040516102af91906128d2565b60405180910390f35b6102d260048036038101906102cd9190612919565b610911565b005b6102ee60048036038101906102e99190612355565b610927565b6040516102fb9190612031565b60405180910390f35b61031e60048036038101906103199190612959565b610944565b005b61033a60048036038101906103359190612355565b610aaa565b6040516103479190612031565b60405180910390f35b61036a60048036038101906103659190612a0c565b610ac2565b60405161037791906120ec565b60405180910390f35b61039a60048036038101906103959190612a4c565b610b56565b005b6103b660048036038101906103b19190612ae3565b610bf7565b005b60008073ffffffffffffffffffffffffffffffffffffffff168373ffffffffffffffffffffffffffffffffffffffff1603610428576040517f08c379a000000000000000000000000000000000000000000000000000000000815260040161041f90612b82565b60405180910390fd5b60008083815260200190815260200160002060008473ffffffffffffffffffffffffffffffffffffffff1673ffffffffffffffffffffffffffffffffffffffff16815260200190815260200160002054905092915050565b60007fd9b67a26000000000000000000000000000000000000000000000000000000007bffffffffffffffffffffffffffffffffffffffffffffffffffffffff1916827bffffffffffffffffffffffffffffffffffffffffffffffffffffffff1916148061054b57507f0e89341c000000000000000000000000000000000000000000000000000000007bffffffffffffffffffffffffffffffffffffffffffffffffffffffff1916827bffffffffffffffffffffffffffffffffffffffffffffffffffffffff1916145b8061055b575061055a82610c7a565b5b9050919050565b60405180606001604052808463ffffffff168152602001838152602001828152506007600086815260200190815260200160002060008201518160000160006101000a81548163ffffffff021916908363ffffffff1602179055506020820151816001015560408201518160020190816105dc9190612dae565b509050507f017816d6671654d29260799b31a628be724d7e4fa8e22da3fae8ab443ec0a3c38460405161060f9190612031565b60405180910390a150505050565b610625610ce4565b61062e81610d62565b50565b606061063c82610d75565b9050919050565b61064b610e5a565b73ffffffffffffffffffffffffffffffffffffffff168573ffffffffffffffffffffffffffffffffffffffff16148061069157506106908561068b610e5a565b610ac2565b5b6106d0576040517f08c379a00000000000000000000000000000000000000000000000000000000081526004016106c790612ef2565b60405180910390fd5b6106dd8585858585610e62565b5050505050565b6060815183511461072a576040517f08c379a000000000000000000000000000000000000000000000000000000000815260040161072190612f84565b60405180910390fd5b6000835167ffffffffffffffff8111156107475761074661215e565b5b6040519080825280602002602001820160405280156107755781602001602082028036833780820191505090505b50905060005b84518110156107f2576107c285828151811061079a57610799612fa4565b5b60200260200101518583815181106107b5576107b4612fa4565b5b60200260200101516103b8565b8282815181106107d5576107d4612fa4565b5b602002602001018181525050806107eb90613002565b905061077b565b508091505092915050565b60008061080983610927565b119050919050565b60076020528060005260406000206000915090508060000160009054906101000a900463ffffffff169080600101549080600201805461085090612bd1565b80601f016020809104026020016040519081016040528092919081815260200182805461087c90612bd1565b80156108c95780601f1061089e576101008083540402835291602001916108c9565b820191906000526020600020905b8154815290600101906020018083116108ac57829003601f168201915b5050505050905083565b6108db610ce4565b6108e56000611183565b565b6000600660009054906101000a900473ffffffffffffffffffffffffffffffffffffffff16905090565b61092361091c610e5a565b8383611249565b5050565b600060056000838152602001908152602001600020549050919050565b60006007600086815260200190815260200160002060000160009054906101000a900463ffffffff1663ffffffff16116109b3576040517f08c379a00000000000000000000000000000000000000000000000000000000081526004016109aa90613096565b60405180910390fd5b42600760008681526020019081526020016000206001015411610a0b576040517f08c379a0000000000000000000000000000000000000000000000000000000008152600401610a0290613102565b60405180910390fd5b6007600085815260200190815260200160002060000160009054906101000a900463ffffffff1663ffffffff1682610a4286610927565b610a4c9190613122565b1115610a8d576040517f08c379a0000000000000000000000000000000000000000000000000000000008152600401610a84906131a2565b60405180910390fd5b610a99858584846113b5565b610aa38484611565565b5050505050565b60086020528060005260406000206000915090505481565b6000600160008473ffffffffffffffffffffffffffffffffffffffff1673ffffffffffffffffffffffffffffffffffffffff16815260200190815260200160002060008373ffffffffffffffffffffffffffffffffffffffff1673ffffffffffffffffffffffffffffffffffffffff16815260200190815260200160002060009054906101000a900460ff16905092915050565b610b5e610e5a565b73ffffffffffffffffffffffffffffffffffffffff168573ffffffffffffffffffffffffffffffffffffffff161480610ba45750610ba385610b9e610e5a565b610ac2565b5b610be3576040517f08c379a0000000000000000000000000000000000000000000000000000000008152600401610bda90612ef2565b60405180910390fd5b610bf085858585856115ca565b5050505050565b610bff610ce4565b600073ffffffffffffffffffffffffffffffffffffffff168173ffffffffffffffffffffffffffffffffffffffff1603610c6e576040517f08c379a0000000000000000000000000000000000000000000000000000000008152600401610c6590613234565b60405180910390fd5b610c7781611183565b50565b60007f01ffc9a7000000000000000000000000000000000000000000000000000000007bffffffffffffffffffffffffffffffffffffffffffffffffffffffff1916827bffffffffffffffffffffffffffffffffffffffffffffffffffffffff1916149050919050565b610cec610e5a565b73ffffffffffffffffffffffffffffffffffffffff16610d0a6108e7565b73ffffffffffffffffffffffffffffffffffffffff1614610d60576040517f08c379a0000000000000000000000000000000000000000000000000000000008152600401610d57906132a0565b60405180910390fd5b565b8060029081610d719190612dae565b5050565b60606000600460008481526020019081526020016000208054610d9790612bd1565b80601f0160208091040260200160405190810160405280929190818152602001828054610dc390612bd1565b8015610e105780601f10610de557610100808354040283529160200191610e10565b820191906000526020600020905b815481529060010190602001808311610df357829003601f168201915b505050505090506000815111610e2e57610e2983611865565b610e52565b600381604051602001610e4292919061337f565b6040516020818303038152906040525b915050919050565b600033905090565b8151835114610ea6576040517f08c379a0000000000000000000000000000000000000000000000000000000008152600401610e9d90613415565b60405180910390fd5b600073ffffffffffffffffffffffffffffffffffffffff168473ffffffffffffffffffffffffffffffffffffffff1603610f15576040517f08c379a0000000000000000000000000000000000000000000000000000000008152600401610f0c906134a7565b60405180910390fd5b6000610f1f610e5a565b9050610f2f8187878787876118f9565b60005b84518110156110e0576000858281518110610f5057610f4f612fa4565b5b602002602001015190506000858381518110610f6f57610f6e612fa4565b5b60200260200101519050600080600084815260200190815260200160002060008b73ffffffffffffffffffffffffffffffffffffffff1673ffffffffffffffffffffffffffffffffffffffff16815260200190815260200160002054905081811015611010576040517f08c379a000000000000000000000000000000000000000000000000000000000815260040161100790613539565b60405180910390fd5b81810360008085815260200190815260200160002060008c73ffffffffffffffffffffffffffffffffffffffff1673ffffffffffffffffffffffffffffffffffffffff168152602001908152602001600020819055508160008085815260200190815260200160002060008b73ffffffffffffffffffffffffffffffffffffffff1673ffffffffffffffffffffffffffffffffffffffff16815260200190815260200160002060008282546110c59190613122565b92505081905550505050806110d990613002565b9050610f32565b508473ffffffffffffffffffffffffffffffffffffffff168673ffffffffffffffffffffffffffffffffffffffff168273ffffffffffffffffffffffffffffffffffffffff167f4a39dc06d4c0dbc64b70af90fd698a233a518aa5d07e595d983b8c0526c8f7fb8787604051611157929190613559565b60405180910390a461116d81878787878761190f565b61117b818787878787611917565b505050505050565b6000600660009054906101000a900473ffffffffffffffffffffffffffffffffffffffff16905081600660006101000a81548173ffffffffffffffffffffffffffffffffffffffff021916908373ffffffffffffffffffffffffffffffffffffffff1602179055508173ffffffffffffffffffffffffffffffffffffffff168173ffffffffffffffffffffffffffffffffffffffff167f8be0079c531659141344cd1fd0a4f28419497f9722a3daafe3b4186f6b6457e060405160405180910390a35050565b8173ffffffffffffffffffffffffffffffffffffffff168373ffffffffffffffffffffffffffffffffffffffff16036112b7576040517f08c379a00000000000000000000000000000000000000000000000000000000081526004016112ae90613602565b60405180910390fd5b80600160008573ffffffffffffffffffffffffffffffffffffffff1673ffffffffffffffffffffffffffffffffffffffff16815260200190815260200160002060008473ffffffffffffffffffffffffffffffffffffffff1673ffffffffffffffffffffffffffffffffffffffff16815260200190815260200160002060006101000a81548160ff0219169083151502179055508173ffffffffffffffffffffffffffffffffffffffff168373ffffffffffffffffffffffffffffffffffffffff167f17307eab39ab6107e8899845ad3d59bd9653f200f220920489ca2b5937696c31836040516113a891906120ec565b60405180910390a3505050565b600073ffffffffffffffffffffffffffffffffffffffff168473ffffffffffffffffffffffffffffffffffffffff1603611424576040517f08c379a000000000000000000000000000000000000000000000000000000000815260040161141b90613694565b60405180910390fd5b600061142e610e5a565b9050600061143b85611aee565b9050600061144885611aee565b9050611459836000898585896118f9565b8460008088815260200190815260200160002060008973ffffffffffffffffffffffffffffffffffffffff1673ffffffffffffffffffffffffffffffffffffffff16815260200190815260200160002060008282546114b89190613122565b925050819055508673ffffffffffffffffffffffffffffffffffffffff16600073ffffffffffffffffffffffffffffffffffffffff168473ffffffffffffffffffffffffffffffffffffffff167fc3d58168c5ae7397731d063d5bbf3d657854427343f4c083240f7aacaa2d0f6289896040516115369291906136b4565b60405180910390a461154d8360008985858961190f565b61155c83600089898989611b68565b50505050505050565b806004600084815260200190815260200160002090816115859190612dae565b50817f6bb7ff708619ba0610cba295a58592e0451dee2622938c8755667688daf3529b6115b184610631565b6040516115be9190612401565b60405180910390a25050565b600073ffffffffffffffffffffffffffffffffffffffff168473ffffffffffffffffffffffffffffffffffffffff1603611639576040517f08c379a0000000000000000000000000000000000000000000000000000000008152600401611630906134a7565b60405180910390fd5b6000611643610e5a565b9050600061165085611aee565b9050600061165d85611aee565b905061166d8389898585896118f9565b600080600088815260200190815260200160002060008a73ffffffffffffffffffffffffffffffffffffffff1673ffffffffffffffffffffffffffffffffffffffff16815260200190815260200160002054905085811015611704576040517f08c379a00000000000000000000000000000000000000000000000000000000081526004016116fb90613539565b60405180910390fd5b85810360008089815260200190815260200160002060008b73ffffffffffffffffffffffffffffffffffffffff1673ffffffffffffffffffffffffffffffffffffffff168152602001908152602001600020819055508560008089815260200190815260200160002060008a73ffffffffffffffffffffffffffffffffffffffff1673ffffffffffffffffffffffffffffffffffffffff16815260200190815260200160002060008282546117b99190613122565b925050819055508773ffffffffffffffffffffffffffffffffffffffff168973ffffffffffffffffffffffffffffffffffffffff168573ffffffffffffffffffffffffffffffffffffffff167fc3d58168c5ae7397731d063d5bbf3d657854427343f4c083240f7aacaa2d0f628a8a6040516118369291906136b4565b60405180910390a461184c848a8a86868a61190f565b61185a848a8a8a8a8a611b68565b505050505050505050565b60606002805461187490612bd1565b80601f01602080910402602001604051908101604052809291908181526020018280546118a090612bd1565b80156118ed5780601f106118c2576101008083540402835291602001916118ed565b820191906000526020600020905b8154815290600101906020018083116118d057829003601f168201915b50505050509050919050565b611907868686868686611d3f565b505050505050565b505050505050565b6119368473ffffffffffffffffffffffffffffffffffffffff16611f0f565b15611ae6578373ffffffffffffffffffffffffffffffffffffffff1663bc197c8187878686866040518663ffffffff1660e01b815260040161197c959493929190613732565b6020604051808303816000875af19250505080156119b857506040513d601f19601f820116820180604052508101906119b591906137af565b60015b611a5d576119c46137e9565b806308c379a003611a2057506119d861380b565b806119e35750611a22565b806040517f08c379a0000000000000000000000000000000000000000000000000000000008152600401611a179190612401565b60405180910390fd5b505b6040517f08c379a0000000000000000000000000000000000000000000000000000000008152600401611a549061390d565b60405180910390fd5b63bc197c8160e01b7bffffffffffffffffffffffffffffffffffffffffffffffffffffffff1916817bffffffffffffffffffffffffffffffffffffffffffffffffffffffff191614611ae4576040517f08c379a0000000000000000000000000000000000000000000000000000000008152600401611adb9061399f565b60405180910390fd5b505b505050505050565b60606000600167ffffffffffffffff811115611b0d57611b0c61215e565b5b604051908082528060200260200182016040528015611b3b5781602001602082028036833780820191505090505b5090508281600081518110611b5357611b52612fa4565b5b60200260200101818152505080915050919050565b611b878473ffffffffffffffffffffffffffffffffffffffff16611f0f565b15611d37578373ffffffffffffffffffffffffffffffffffffffff1663f23a6e6187878686866040518663ffffffff1660e01b8152600401611bcd9594939291906139bf565b6020604051808303816000875af1925050508015611c0957506040513d601f19601f82011682018060405250810190611c0691906137af565b60015b611cae57611c156137e9565b806308c379a003611c715750611c2961380b565b80611c345750611c73565b806040517f08c379a0000000000000000000000000000000000000000000000000000000008152600401611c689190612401565b60405180910390fd5b505b6040517f08c379a0000000000000000000000000000000000000000000000000000000008152600401611ca59061390d565b60405180910390fd5b63f23a6e6160e01b7bffffffffffffffffffffffffffffffffffffffffffffffffffffffff1916817bffffffffffffffffffffffffffffffffffffffffffffffffffffffff191614611d35576040517f08c379a0000000000000000000000000000000000000000000000000000000008152600401611d2c9061399f565b60405180910390fd5b505b505050505050565b611d4d868686868686611f32565b600073ffffffffffffffffffffffffffffffffffffffff168573ffffffffffffffffffffffffffffffffffffffff1603611dfe5760005b8351811015611dfc57828181518110611da057611d9f612fa4565b5b602002602001015160056000868481518110611dbf57611dbe612fa4565b5b602002602001015181526020019081526020016000206000828254611de49190613122565b9250508190555080611df590613002565b9050611d84565b505b600073ffffffffffffffffffffffffffffffffffffffff168473ffffffffffffffffffffffffffffffffffffffff1603611f075760005b8351811015611f05576000848281518110611e5357611e52612fa4565b5b602002602001015190506000848381518110611e7257611e71612fa4565b5b6020026020010151905060006005600084815260200190815260200160002054905081811015611ed7576040517f08c379a0000000000000000000000000000000000000000000000000000000008152600401611ece90613a8b565b60405180910390fd5b818103600560008581526020019081526020016000208190555050505080611efe90613002565b9050611e35565b505b505050505050565b6000808273ffffffffffffffffffffffffffffffffffffffff163b119050919050565b505050505050565b6000604051905090565b600080fd5b600080fd5b600073ffffffffffffffffffffffffffffffffffffffff82169050919050565b6000611f7982611f4e565b9050919050565b611f8981611f6e565b8114611f9457600080fd5b50565b600081359050611fa681611f80565b92915050565b6000819050919050565b611fbf81611fac565b8114611fca57600080fd5b50565b600081359050611fdc81611fb6565b92915050565b60008060408385031215611ff957611ff8611f44565b5b600061200785828601611f97565b925050602061201885828601611fcd565b9150509250929050565b61202b81611fac565b82525050565b60006020820190506120466000830184612022565b92915050565b60007fffffffff0000000000000000000000000000000000000000000000000000000082169050919050565b6120818161204c565b811461208c57600080fd5b50565b60008135905061209e81612078565b92915050565b6000602082840312156120ba576120b9611f44565b5b60006120c88482850161208f565b91505092915050565b60008115159050919050565b6120e6816120d1565b82525050565b600060208201905061210160008301846120dd565b92915050565b600063ffffffff82169050919050565b61212081612107565b811461212b57600080fd5b50565b60008135905061213d81612117565b92915050565b600080fd5b600080fd5b6000601f19601f8301169050919050565b7f4e487b7100000000000000000000000000000000000000000000000000000000600052604160045260246000fd5b6121968261214d565b810181811067ffffffffffffffff821117156121b5576121b461215e565b5b80604052505050565b60006121c8611f3a565b90506121d4828261218d565b919050565b600067ffffffffffffffff8211156121f4576121f361215e565b5b6121fd8261214d565b9050602081019050919050565b82818337600083830152505050565b600061222c612227846121d9565b6121be565b90508281526020810184848401111561224857612247612148565b5b61225384828561220a565b509392505050565b600082601f8301126122705761226f612143565b5b8135612280848260208601612219565b91505092915050565b600080600080608085870312156122a3576122a2611f44565b5b60006122b187828801611fcd565b94505060206122c28782880161212e565b93505060406122d387828801611fcd565b925050606085013567ffffffffffffffff8111156122f4576122f3611f49565b5b6123008782880161225b565b91505092959194509250565b60006020828403121561232257612321611f44565b5b600082013567ffffffffffffffff8111156123405761233f611f49565b5b61234c8482850161225b565b91505092915050565b60006020828403121561236b5761236a611f44565b5b600061237984828501611fcd565b91505092915050565b600081519050919050565b600082825260208201905092915050565b60005b838110156123bc5780820151818401526020810190506123a1565b60008484015250505050565b60006123d382612382565b6123dd818561238d565b93506123ed81856020860161239e565b6123f68161214d565b840191505092915050565b6000602082019050818103600083015261241b81846123c8565b905092915050565b600067ffffffffffffffff82111561243e5761243d61215e565b5b602082029050602081019050919050565b600080fd5b600061246761246284612423565b6121be565b9050808382526020820190506020840283018581111561248a5761248961244f565b5b835b818110156124b3578061249f8882611fcd565b84526020840193505060208101905061248c565b5050509392505050565b600082601f8301126124d2576124d1612143565b5b81356124e2848260208601612454565b91505092915050565b600067ffffffffffffffff8211156125065761250561215e565b5b61250f8261214d565b9050602081019050919050565b600061252f61252a846124eb565b6121be565b90508281526020810184848401111561254b5761254a612148565b5b61255684828561220a565b509392505050565b600082601f83011261257357612572612143565b5b813561258384826020860161251c565b91505092915050565b600080600080600060a086880312156125a8576125a7611f44565b5b60006125b688828901611f97565b95505060206125c788828901611f97565b945050604086013567ffffffffffffffff8111156125e8576125e7611f49565b5b6125f4888289016124bd565b935050606086013567ffffffffffffffff81111561261557612614611f49565b5b612621888289016124bd565b925050608086013567ffffffffffffffff81111561264257612641611f49565b5b61264e8882890161255e565b9150509295509295909350565b600067ffffffffffffffff8211156126765761267561215e565b5b602082029050602081019050919050565b600061269a6126958461265b565b6121be565b905080838252602082019050602084028301858111156126bd576126bc61244f565b5b835b818110156126e657806126d28882611f97565b8452602084019350506020810190506126bf565b5050509392505050565b600082601f83011261270557612704612143565b5b8135612715848260208601612687565b91505092915050565b6000806040838503121561273557612734611f44565b5b600083013567ffffffffffffffff81111561275357612752611f49565b5b61275f858286016126f0565b925050602083013567ffffffffffffffff8111156127805761277f611f49565b5b61278c858286016124bd565b9150509250929050565b600081519050919050565b600082825260208201905092915050565b6000819050602082019050919050565b6127cb81611fac565b82525050565b60006127dd83836127c2565b60208301905092915050565b6000602082019050919050565b600061280182612796565b61280b81856127a1565b9350612816836127b2565b8060005b8381101561284757815161282e88826127d1565b9750612839836127e9565b92505060018101905061281a565b5085935050505092915050565b6000602082019050818103600083015261286e81846127f6565b905092915050565b61287f81612107565b82525050565b600060608201905061289a6000830186612876565b6128a76020830185612022565b81810360408301526128b981846123c8565b9050949350505050565b6128cc81611f6e565b82525050565b60006020820190506128e760008301846128c3565b92915050565b6128f6816120d1565b811461290157600080fd5b50565b600081359050612913816128ed565b92915050565b600080604083850312156129305761292f611f44565b5b600061293e85828601611f97565b925050602061294f85828601612904565b9150509250929050565b600080600080600060a0868803121561297557612974611f44565b5b600061298388828901611f97565b955050602061299488828901611fcd565b945050604086013567ffffffffffffffff8111156129b5576129b4611f49565b5b6129c18882890161225b565b93505060606129d288828901611fcd565b925050608086013567ffffffffffffffff8111156129f3576129f2611f49565b5b6129ff8882890161255e565b9150509295509295909350565b60008060408385031215612a2357612a22611f44565b5b6000612a3185828601611f97565b9250506020612a4285828601611f97565b9150509250929050565b600080600080600060a08688031215612a6857612a67611f44565b5b6000612a7688828901611f97565b9550506020612a8788828901611f97565b9450506040612a9888828901611fcd565b9350506060612aa988828901611fcd565b925050608086013567ffffffffffffffff811115612aca57612ac9611f49565b5b612ad68882890161255e565b9150509295509295909350565b600060208284031215612af957612af8611f44565b5b6000612b0784828501611f97565b91505092915050565b7f455243313135353a2061646472657373207a65726f206973206e6f742061207660008201527f616c6964206f776e657200000000000000000000000000000000000000000000602082015250565b6000612b6c602a8361238d565b9150612b7782612b10565b604082019050919050565b60006020820190508181036000830152612b9b81612b5f565b9050919050565b7f4e487b7100000000000000000000000000000000000000000000000000000000600052602260045260246000fd5b60006002820490506001821680612be957607f821691505b602082108103612bfc57612bfb612ba2565b5b50919050565b60008190508160005260206000209050919050565b60006020601f8301049050919050565b600082821b905092915050565b600060088302612c647fffffffffffffffffffffffffffffffffffffffffffffffffffffffffffffffff82612c27565b612c6e8683612c27565b95508019841693508086168417925050509392505050565b6000819050919050565b6000612cab612ca6612ca184611fac565b612c86565b611fac565b9050919050565b6000819050919050565b612cc583612c90565b612cd9612cd182612cb2565b848454612c34565b825550505050565b600090565b612cee612ce1565b612cf9818484612cbc565b505050565b5b81811015612d1d57612d12600082612ce6565b600181019050612cff565b5050565b601f821115612d6257612d3381612c02565b612d3c84612c17565b81016020851015612d4b578190505b612d5f612d5785612c17565b830182612cfe565b50505b505050565b600082821c905092915050565b6000612d8560001984600802612d67565b1980831691505092915050565b6000612d9e8383612d74565b9150826002028217905092915050565b612db782612382565b67ffffffffffffffff811115612dd057612dcf61215e565b5b612dda8254612bd1565b612de5828285612d21565b600060209050601f831160018114612e185760008415612e06578287015190505b612e108582612d92565b865550612e78565b601f198416612e2686612c02565b60005b82811015612e4e57848901518255600182019150602085019450602081019050612e29565b86831015612e6b5784890151612e67601f891682612d74565b8355505b6001600288020188555050505b505050505050565b7f455243313135353a2063616c6c6572206973206e6f7420746f6b656e206f776e60008201527f6572206f7220617070726f766564000000000000000000000000000000000000602082015250565b6000612edc602e8361238d565b9150612ee782612e80565b604082019050919050565b60006020820190508181036000830152612f0b81612ecf565b9050919050565b7f455243313135353a206163636f756e747320616e6420696473206c656e67746860008201527f206d69736d617463680000000000000000000000000000000000000000000000602082015250565b6000612f6e60298361238d565b9150612f7982612f12565b604082019050919050565b60006020820190508181036000830152612f9d81612f61565b9050919050565b7f4e487b7100000000000000000000000000000000000000000000000000000000600052603260045260246000fd5b7f4e487b7100000000000000000000000000000000000000000000000000000000600052601160045260246000fd5b600061300d82611fac565b91507fffffffffffffffffffffffffffffffffffffffffffffffffffffffffffffffff820361303f5761303e612fd3565b5b600182019050919050565b7f54686973207469636b6574206e6f742065786973747300000000000000000000600082015250565b600061308060168361238d565b915061308b8261304a565b602082019050919050565b600060208201905081810360008301526130af81613073565b9050919050565b7f4576656e74206973206f75746461746564000000000000000000000000000000600082015250565b60006130ec60118361238d565b91506130f7826130b6565b602082019050919050565b6000602082019050818103600083015261311b816130df565b9050919050565b600061312d82611fac565b915061313883611fac565b92508282019050808211156131505761314f612fd3565b5b92915050565b7f4e6f7420656e6f756768207469636b65747320666f722073616c650000000000600082015250565b600061318c601b8361238d565b915061319782613156565b602082019050919050565b600060208201905081810360008301526131bb8161317f565b9050919050565b7f4f776e61626c653a206e6577206f776e657220697320746865207a65726f206160008201527f6464726573730000000000000000000000000000000000000000000000000000602082015250565b600061321e60268361238d565b9150613229826131c2565b604082019050919050565b6000602082019050818103600083015261324d81613211565b9050919050565b7f4f776e61626c653a2063616c6c6572206973206e6f7420746865206f776e6572600082015250565b600061328a60208361238d565b915061329582613254565b602082019050919050565b600060208201905081810360008301526132b98161327d565b9050919050565b600081905092915050565b600081546132d881612bd1565b6132e281866132c0565b945060018216600081146132fd576001811461331257613345565b60ff1983168652811515820286019350613345565b61331b85612c02565b60005b8381101561333d5781548189015260018201915060208101905061331e565b838801955050505b50505092915050565b600061335982612382565b61336381856132c0565b935061337381856020860161239e565b80840191505092915050565b600061338b82856132cb565b9150613397828461334e565b91508190509392505050565b7f455243313135353a2069647320616e6420616d6f756e7473206c656e6774682060008201527f6d69736d61746368000000000000000000000000000000000000000000000000602082015250565b60006133ff60288361238d565b915061340a826133a3565b604082019050919050565b6000602082019050818103600083015261342e816133f2565b9050919050565b7f455243313135353a207472616e7366657220746f20746865207a65726f20616460008201527f6472657373000000000000000000000000000000000000000000000000000000602082015250565b600061349160258361238d565b915061349c82613435565b604082019050919050565b600060208201905081810360008301526134c081613484565b9050919050565b7f455243313135353a20696e73756666696369656e742062616c616e636520666f60008201527f72207472616e7366657200000000000000000000000000000000000000000000602082015250565b6000613523602a8361238d565b915061352e826134c7565b604082019050919050565b6000602082019050818103600083015261355281613516565b9050919050565b6000604082019050818103600083015261357381856127f6565b9050818103602083015261358781846127f6565b90509392505050565b7f455243313135353a2073657474696e6720617070726f76616c2073746174757360008201527f20666f722073656c660000000000000000000000000000000000000000000000602082015250565b60006135ec60298361238d565b91506135f782613590565b604082019050919050565b6000602082019050818103600083015261361b816135df565b9050919050565b7f455243313135353a206d696e7420746f20746865207a65726f2061646472657360008201527f7300000000000000000000000000000000000000000000000000000000000000602082015250565b600061367e60218361238d565b915061368982613622565b604082019050919050565b600060208201905081810360008301526136ad81613671565b9050919050565b60006040820190506136c96000830185612022565b6136d66020830184612022565b9392505050565b600081519050919050565b600082825260208201905092915050565b6000613704826136dd565b61370e81856136e8565b935061371e81856020860161239e565b6137278161214d565b840191505092915050565b600060a08201905061374760008301886128c3565b61375460208301876128c3565b818103604083015261376681866127f6565b9050818103606083015261377a81856127f6565b9050818103608083015261378e81846136f9565b90509695505050505050565b6000815190506137a981612078565b92915050565b6000602082840312156137c5576137c4611f44565b5b60006137d38482850161379a565b91505092915050565b60008160e01c9050919050565b600060033d11156138085760046000803e6138056000516137dc565b90505b90565b600060443d106138985761381d611f3a565b60043d036004823e80513d602482011167ffffffffffffffff82111715613845575050613898565b808201805167ffffffffffffffff8111156138635750505050613898565b80602083010160043d038501811115613880575050505050613898565b61388f8260200185018661218d565b82955050505050505b90565b7f455243313135353a207472616e7366657220746f206e6f6e2d4552433131353560008201527f526563656976657220696d706c656d656e746572000000000000000000000000602082015250565b60006138f760348361238d565b91506139028261389b565b604082019050919050565b60006020820190508181036000830152613926816138ea565b9050919050565b7f455243313135353a204552433131353552656365697665722072656a6563746560008201527f6420746f6b656e73000000000000000000000000000000000000000000000000602082015250565b600061398960288361238d565b91506139948261392d565b604082019050919050565b600060208201905081810360008301526139b88161397c565b9050919050565b600060a0820190506139d460008301886128c3565b6139e160208301876128c3565b6139ee6040830186612022565b6139fb6060830185612022565b8181036080830152613a0d81846136f9565b90509695505050505050565b7f455243313135353a206275726e20616d6f756e74206578636565647320746f7460008201527f616c537570706c79000000000000000000000000000000000000000000000000602082015250565b6000613a7560288361238d565b9150613a8082613a19565b604082019050919050565b60006020820190508181036000830152613aa481613a68565b905091905056fea26469706673582212204b14d2d8a7de752af8d67e12ca5f603b01db123320a2ff712b2433714080664e64736f6c63430008110033",
  "immutableReferences": {},
  "source": "// SPDX-License-Identifier: UNLICENSED\npragma solidity 0.8.17;\n\nimport \"@openzeppelin/contracts/token/ERC721/ERC721.sol\";\nimport \"@openzeppelin/contracts/access/Ownable.sol\";\nimport \"@openzeppelin/contracts/token/ERC1155/extensions/ERC1155URIStorage.sol\";\nimport \"@openzeppelin/contracts/token/ERC1155/extensions/ERC1155Supply.sol\";\nimport \"@openzeppelin/contracts/utils/Counters.sol\";\n\n/// @custom:security-contact security@fillgood.fr\ncontract ExperienceTicketing is ERC1155URIStorage, ERC1155Supply, Ownable {\n    struct Ticket {\n        uint32 nbTickets;\n        uint256 date;\n        string name;\n    }\n    mapping(uint256 => Ticket) public tickets;\n    mapping(uint256 => uint256) public ticketsSold;\n\n    event TicketCreated(uint256 experienceId);\n\n    constructor(string memory name, string memory symbol) ERC1155(\"\") {}\n\n    /**\n     * @notice Get uri prevent conflicts\n     * @return string uri\n     */\n    function uri(\n        uint256 tokenId\n    ) public view override(ERC1155, ERC1155URIStorage) returns (string memory) {\n        return ERC1155URIStorage.uri(tokenId);\n    }\n\n    /**\n     * @dev See {_setURI}.\n     */\n    function setURI(string memory newuri) public onlyOwner {\n        _setURI(newuri);\n    }\n\n    /**\n     * @notice Add a new ticket for an experience to the list\n     */\n    function createTicket(\n        uint256 _experienceId,\n        uint32 _nbTickets,\n        uint256 _date,\n        string memory _name\n    ) external {\n        tickets[_experienceId] = Ticket(_nbTickets, _date, _name);\n\n        emit TicketCreated(_experienceId);\n    }\n\n    /**\n     * @dev Creates `amount` tokens of token type `id`, and assigns them to `to`.\n     * @dev See {_mint}.\n     *\n     * Requirements:\n     *\n     * - `date` cannot be the outdatted.\n     * - `_experienceId`  must exists in list\n     * - `_amount` must be less than of the number of remaining tickets\n     */\n    function mint(\n        address _to,\n        uint256 _experienceId,\n        string memory _tokenURI,\n        uint256 _amount,\n        bytes memory _data\n    ) external {\n        require(tickets[_experienceId].nbTickets > 0, \"This ticket not exists\");\n        require(\n            tickets[_experienceId].date > block.timestamp,\n            \"Event is outdated\"\n        );\n        require(\n            totalSupply(_experienceId) + _amount <=\n                tickets[_experienceId].nbTickets,\n            \"Not enough tickets for sale\"\n        );\n        _mint(_to, _experienceId, _amount, _data);\n        _setURI(_experienceId, _tokenURI);\n    }\n\n    /**\n     * @notice _beforeTokenTransfer prevent conflicts\n     * @dev See {_beforeTokenTransfer}.\n     */\n    function _beforeTokenTransfer(\n        address operator,\n        address from,\n        address to,\n        uint256[] memory ids,\n        uint256[] memory amounts,\n        bytes memory data\n    ) internal override(ERC1155, ERC1155Supply) {\n        ERC1155Supply._beforeTokenTransfer(\n            operator,\n            from,\n            to,\n            ids,\n            amounts,\n            data\n        );\n    }\n}\n",
  "sourcePath": "C:\\Users\\ramad\\Documents\\Developpeur-Ethereum-Template\\8. NFT\\truffle\\contracts\\experienceTicketing.sol",
  "compiler": {
    "name": "solc",
    "version": "0.8.17+commit.8df45f5f.Emscripten.clang"
  },
  "schemaVersion": "3.4.11",
  "updatedAt": "2022-12-12T03:02:34.354Z",
  "networkType": "ethereum",
  "devdoc": {
    "custom:security-contact": "security@fillgood.fr",
    "kind": "dev",
    "methods": {
      "balanceOf(address,uint256)": {
        "details": "See {IERC1155-balanceOf}. Requirements: - `account` cannot be the zero address."
      },
      "balanceOfBatch(address[],uint256[])": {
        "details": "See {IERC1155-balanceOfBatch}. Requirements: - `accounts` and `ids` must have the same length."
      },
      "exists(uint256)": {
        "details": "Indicates whether any token exist with a given id, or not."
      },
      "isApprovedForAll(address,address)": {
        "details": "See {IERC1155-isApprovedForAll}."
      },
      "mint(address,uint256,string,uint256,bytes)": {
        "details": "Creates `amount` tokens of token type `id`, and assigns them to `to`.See {_mint}. Requirements: - `date` cannot be the outdatted. - `_experienceId`  must exists in list - `_amount` must be less than of the number of remaining tickets"
      },
      "owner()": {
        "details": "Returns the address of the current owner."
      },
      "renounceOwnership()": {
        "details": "Leaves the contract without owner. It will not be possible to call `onlyOwner` functions anymore. Can only be called by the current owner. NOTE: Renouncing ownership will leave the contract without an owner, thereby removing any functionality that is only available to the owner."
      },
      "safeBatchTransferFrom(address,address,uint256[],uint256[],bytes)": {
        "details": "See {IERC1155-safeBatchTransferFrom}."
      },
      "safeTransferFrom(address,address,uint256,uint256,bytes)": {
        "details": "See {IERC1155-safeTransferFrom}."
      },
      "setApprovalForAll(address,bool)": {
        "details": "See {IERC1155-setApprovalForAll}."
      },
      "setURI(string)": {
        "details": "See {_setURI}."
      },
      "supportsInterface(bytes4)": {
        "details": "See {IERC165-supportsInterface}."
      },
      "totalSupply(uint256)": {
        "details": "Total amount of tokens in with a given id."
      },
      "transferOwnership(address)": {
        "details": "Transfers ownership of the contract to a new account (`newOwner`). Can only be called by the current owner."
      },
      "uri(uint256)": {
        "returns": {
          "_0": "string uri"
        }
      }
    },
    "version": 1
  },
  "userdoc": {
    "kind": "user",
    "methods": {
      "createTicket(uint256,uint32,uint256,string)": {
        "notice": "Add a new ticket for an experience to the list"
      },
      "uri(uint256)": {
        "notice": "Get uri prevent conflicts"
      }
    },
    "version": 1
  }
}