{
  "contractName": "Fillgood",
  "abi": [
    {
      "inputs": [
        {
          "internalType": "address",
          "name": "_figoaddress",
          "type": "address"
        },
        {
          "internalType": "address",
          "name": "_ticketAddress",
          "type": "address"
        }
      ],
      "stateMutability": "nonpayable",
      "type": "constructor"
    },
    {
      "anonymous": false,
      "inputs": [
        {
          "indexed": false,
          "internalType": "address",
          "name": "partnerAddress",
          "type": "address"
        },
        {
          "indexed": false,
          "internalType": "string",
          "name": "experienceName",
          "type": "string"
        }
      ],
      "name": "ExperienceAdded",
      "type": "event"
    },
    {
      "anonymous": false,
      "inputs": [
        {
          "indexed": true,
          "internalType": "address",
          "name": "previousOwner",
          "type": "address"
        },
        {
          "indexed": true,
          "internalType": "address",
          "name": "newOwner",
          "type": "address"
        }
      ],
      "name": "OwnershipTransferred",
      "type": "event"
    },
    {
      "anonymous": false,
      "inputs": [
        {
          "indexed": false,
          "internalType": "address",
          "name": "participantAddress",
          "type": "address"
        },
        {
          "indexed": false,
          "internalType": "string",
          "name": "experienceName",
          "type": "string"
        }
      ],
      "name": "ParticipantRegistered",
      "type": "event"
    },
    {
      "anonymous": false,
      "inputs": [
        {
          "indexed": false,
          "internalType": "address",
          "name": "partnerAddress",
          "type": "address"
        },
        {
          "indexed": false,
          "internalType": "string",
          "name": "offerName",
          "type": "string"
        }
      ],
      "name": "offerSold",
      "type": "event"
    },
    {
      "inputs": [],
      "name": "experienceIds",
      "outputs": [
        {
          "internalType": "uint256",
          "name": "_value",
          "type": "uint256"
        }
      ],
      "stateMutability": "view",
      "type": "function",
      "constant": true
    },
    {
      "inputs": [],
      "name": "experienceTicketing",
      "outputs": [
        {
          "internalType": "contract ERC1155TICKET",
          "name": "",
          "type": "address"
        }
      ],
      "stateMutability": "view",
      "type": "function",
      "constant": true
    },
    {
      "inputs": [
        {
          "internalType": "uint256",
          "name": "",
          "type": "uint256"
        }
      ],
      "name": "experiences",
      "outputs": [
        {
          "internalType": "uint256",
          "name": "experienceId",
          "type": "uint256"
        },
        {
          "internalType": "uint256",
          "name": "partnerId",
          "type": "uint256"
        },
        {
          "internalType": "uint32",
          "name": "nbTickets",
          "type": "uint32"
        },
        {
          "internalType": "uint32",
          "name": "nbTicketsSold",
          "type": "uint32"
        },
        {
          "internalType": "uint256",
          "name": "price",
          "type": "uint256"
        },
        {
          "internalType": "uint256",
          "name": "reward",
          "type": "uint256"
        },
        {
          "internalType": "uint256",
          "name": "date",
          "type": "uint256"
        },
        {
          "internalType": "string",
          "name": "name",
          "type": "string"
        },
        {
          "internalType": "string",
          "name": "experienceType",
          "type": "string"
        },
        {
          "internalType": "string",
          "name": "meetingPlace",
          "type": "string"
        }
      ],
      "stateMutability": "view",
      "type": "function",
      "constant": true
    },
    {
      "inputs": [],
      "name": "figo",
      "outputs": [
        {
          "internalType": "contract IERC20FIGO",
          "name": "",
          "type": "address"
        }
      ],
      "stateMutability": "view",
      "type": "function",
      "constant": true
    },
    {
      "inputs": [],
      "name": "owner",
      "outputs": [
        {
          "internalType": "address",
          "name": "",
          "type": "address"
        }
      ],
      "stateMutability": "view",
      "type": "function",
      "constant": true
    },
    {
      "inputs": [
        {
          "internalType": "uint256",
          "name": "",
          "type": "uint256"
        }
      ],
      "name": "packs",
      "outputs": [
        {
          "internalType": "uint32",
          "name": "nbMaxExperiences",
          "type": "uint32"
        },
        {
          "internalType": "string",
          "name": "name",
          "type": "string"
        },
        {
          "internalType": "uint256",
          "name": "price",
          "type": "uint256"
        },
        {
          "internalType": "uint256",
          "name": "fees",
          "type": "uint256"
        }
      ],
      "stateMutability": "view",
      "type": "function",
      "constant": true
    },
    {
      "inputs": [],
      "name": "participantsIds",
      "outputs": [
        {
          "internalType": "uint256",
          "name": "_value",
          "type": "uint256"
        }
      ],
      "stateMutability": "view",
      "type": "function",
      "constant": true
    },
    {
      "inputs": [],
      "name": "partnerIds",
      "outputs": [
        {
          "internalType": "uint256",
          "name": "_value",
          "type": "uint256"
        }
      ],
      "stateMutability": "view",
      "type": "function",
      "constant": true
    },
    {
      "inputs": [],
      "name": "renounceOwnership",
      "outputs": [],
      "stateMutability": "nonpayable",
      "type": "function"
    },
    {
      "inputs": [
        {
          "internalType": "address",
          "name": "newOwner",
          "type": "address"
        }
      ],
      "name": "transferOwnership",
      "outputs": [],
      "stateMutability": "nonpayable",
      "type": "function"
    },
    {
      "inputs": [],
      "name": "getSelfAsPartner",
      "outputs": [
        {
          "components": [
            {
              "internalType": "bool",
              "name": "isRegister",
              "type": "bool"
            },
            {
              "internalType": "uint256",
              "name": "partnerId",
              "type": "uint256"
            },
            {
              "internalType": "string",
              "name": "name",
              "type": "string"
            },
            {
              "internalType": "enum Fillgood.OfferType",
              "name": "offer",
              "type": "uint8"
            },
            {
              "internalType": "uint256[]",
              "name": "experiencesIds",
              "type": "uint256[]"
            }
          ],
          "internalType": "struct Fillgood.Partner",
          "name": "",
          "type": "tuple"
        }
      ],
      "stateMutability": "view",
      "type": "function",
      "constant": true
    },
    {
      "inputs": [
        {
          "internalType": "uint256",
          "name": "_id",
          "type": "uint256"
        }
      ],
      "name": "getPartnerAddressById",
      "outputs": [
        {
          "internalType": "address",
          "name": "",
          "type": "address"
        }
      ],
      "stateMutability": "view",
      "type": "function",
      "constant": true
    },
    {
      "inputs": [
        {
          "internalType": "uint256",
          "name": "idExperience",
          "type": "uint256"
        }
      ],
      "name": "getExperience",
      "outputs": [
        {
          "components": [
            {
              "internalType": "uint256",
              "name": "experienceId",
              "type": "uint256"
            },
            {
              "internalType": "uint256",
              "name": "partnerId",
              "type": "uint256"
            },
            {
              "internalType": "uint32",
              "name": "nbTickets",
              "type": "uint32"
            },
            {
              "internalType": "uint32",
              "name": "nbTicketsSold",
              "type": "uint32"
            },
            {
              "internalType": "uint256",
              "name": "price",
              "type": "uint256"
            },
            {
              "internalType": "uint256",
              "name": "reward",
              "type": "uint256"
            },
            {
              "internalType": "uint256",
              "name": "date",
              "type": "uint256"
            },
            {
              "internalType": "string",
              "name": "name",
              "type": "string"
            },
            {
              "internalType": "string",
              "name": "experienceType",
              "type": "string"
            },
            {
              "internalType": "string",
              "name": "meetingPlace",
              "type": "string"
            }
          ],
          "internalType": "struct Fillgood.Experience",
          "name": "",
          "type": "tuple"
        }
      ],
      "stateMutability": "view",
      "type": "function",
      "constant": true
    },
    {
      "inputs": [],
      "name": "getParticipationsIds",
      "outputs": [
        {
          "internalType": "uint256[]",
          "name": "",
          "type": "uint256[]"
        }
      ],
      "stateMutability": "view",
      "type": "function",
      "constant": true
    },
    {
      "inputs": [
        {
          "internalType": "uint256",
          "name": "experienceId",
          "type": "uint256"
        }
      ],
      "name": "getParticipation",
      "outputs": [
        {
          "components": [
            {
              "internalType": "bool",
              "name": "isRegistered",
              "type": "bool"
            },
            {
              "internalType": "bool",
              "name": "proofScanned",
              "type": "bool"
            }
          ],
          "internalType": "struct Fillgood.Ticket",
          "name": "",
          "type": "tuple"
        }
      ],
      "stateMutability": "view",
      "type": "function",
      "constant": true
    },
    {
      "inputs": [
        {
          "internalType": "uint8",
          "name": "_offerType",
          "type": "uint8"
        }
      ],
      "name": "buyPack",
      "outputs": [],
      "stateMutability": "nonpayable",
      "type": "function"
    },
    {
      "inputs": [
        {
          "internalType": "uint8",
          "name": "_nbTickets",
          "type": "uint8"
        },
        {
          "internalType": "uint256",
          "name": "_price",
          "type": "uint256"
        },
        {
          "internalType": "uint256",
          "name": "_reward",
          "type": "uint256"
        },
        {
          "internalType": "uint256",
          "name": "_date",
          "type": "uint256"
        },
        {
          "internalType": "string",
          "name": "_name",
          "type": "string"
        },
        {
          "internalType": "string",
          "name": "_experienceType",
          "type": "string"
        },
        {
          "internalType": "string",
          "name": "_meetingPlace",
          "type": "string"
        }
      ],
      "name": "addExperience",
      "outputs": [
        {
          "internalType": "bool",
          "name": "",
          "type": "bool"
        }
      ],
      "stateMutability": "nonpayable",
      "type": "function"
    },
    {
      "inputs": [
        {
          "internalType": "uint256",
          "name": "_experienceId",
          "type": "uint256"
        }
      ],
      "name": "registerParticipant",
      "outputs": [],
      "stateMutability": "nonpayable",
      "type": "function"
    }
  ],
  "bytecode": "0x60806040523480156200001157600080fd5b5060405162003b0f38038062003b0f8339818101604052810190620000379190620005ad565b620000576200004b6200047760201b60201c565b6200047f60201b60201c565b81600160006101000a81548173ffffffffffffffffffffffffffffffffffffffff021916908373ffffffffffffffffffffffffffffffffffffffff16021790555080600260006101000a81548173ffffffffffffffffffffffffffffffffffffffff021916908373ffffffffffffffffffffffffffffffffffffffff16021790555060036040518060800160405280600063ffffffff1681526020016040518060400160405280600481526020017f4e6f6e65000000000000000000000000000000000000000000000000000000008152508152602001600081526020016101f4815250908060018154018082558091505060019003906000526020600020906004020160009091909190915060008201518160000160006101000a81548163ffffffff021916908363ffffffff1602179055506020820151816001019081620001a291906200086e565b506040820151816002015560608201518160030155505060036040518060800160405280600063ffffffff1681526020016040518060400160405280600481526020017f476f6c6400000000000000000000000000000000000000000000000000000000815250815260200168878678326eac90000081526020016000815250908060018154018082558091505060019003906000526020600020906004020160009091909190915060008201518160000160006101000a81548163ffffffff021916908363ffffffff16021790555060208201518160010190816200028991906200086e565b506040820151816002015560608201518160030155505060036040518060800160405280600563ffffffff1681526020016040518060400160405280600681526020017f53696c76657200000000000000000000000000000000000000000000000000008152508152602001685150ae84a8cdf0000081526020016064815250908060018154018082558091505060019003906000526020600020906004020160009091909190915060008201518160000160006101000a81548163ffffffff021916908363ffffffff16021790555060208201518160010190816200037091906200086e565b506040820151816002015560608201518160030155505060036040518060800160405280600263ffffffff1681526020016040518060400160405280600681526020017f42726f6e7a6500000000000000000000000000000000000000000000000000008152508152602001681b1ae4d6e2ef500000815260200161012c815250908060018154018082558091505060019003906000526020600020906004020160009091909190915060008201518160000160006101000a81548163ffffffff021916908363ffffffff16021790555060208201518160010190816200045891906200086e565b5060408201518160020155606082015181600301555050505062000955565b600033905090565b60008060009054906101000a900473ffffffffffffffffffffffffffffffffffffffff169050816000806101000a81548173ffffffffffffffffffffffffffffffffffffffff021916908373ffffffffffffffffffffffffffffffffffffffff1602179055508173ffffffffffffffffffffffffffffffffffffffff168173ffffffffffffffffffffffffffffffffffffffff167f8be0079c531659141344cd1fd0a4f28419497f9722a3daafe3b4186f6b6457e060405160405180910390a35050565b600080fd5b600073ffffffffffffffffffffffffffffffffffffffff82169050919050565b6000620005758262000548565b9050919050565b620005878162000568565b81146200059357600080fd5b50565b600081519050620005a7816200057c565b92915050565b60008060408385031215620005c757620005c662000543565b5b6000620005d78582860162000596565b9250506020620005ea8582860162000596565b9150509250929050565b600081519050919050565b7f4e487b7100000000000000000000000000000000000000000000000000000000600052604160045260246000fd5b7f4e487b7100000000000000000000000000000000000000000000000000000000600052602260045260246000fd5b600060028204905060018216806200067657607f821691505b6020821081036200068c576200068b6200062e565b5b50919050565b60008190508160005260206000209050919050565b60006020601f8301049050919050565b600082821b905092915050565b600060088302620006f67fffffffffffffffffffffffffffffffffffffffffffffffffffffffffffffffff82620006b7565b620007028683620006b7565b95508019841693508086168417925050509392505050565b6000819050919050565b6000819050919050565b60006200074f6200074962000743846200071a565b62000724565b6200071a565b9050919050565b6000819050919050565b6200076b836200072e565b620007836200077a8262000756565b848454620006c4565b825550505050565b600090565b6200079a6200078b565b620007a781848462000760565b505050565b5b81811015620007cf57620007c360008262000790565b600181019050620007ad565b5050565b601f8211156200081e57620007e88162000692565b620007f384620006a7565b8101602085101562000803578190505b6200081b6200081285620006a7565b830182620007ac565b50505b505050565b600082821c905092915050565b6000620008436000198460080262000823565b1980831691505092915050565b60006200085e838362000830565b9150826002028217905092915050565b6200087982620005f4565b67ffffffffffffffff811115620008955762000894620005ff565b5b620008a182546200065d565b620008ae828285620007d3565b600060209050601f831160018114620008e65760008415620008d1578287015190505b620008dd858262000850565b8655506200094d565b601f198416620008f68662000692565b60005b828110156200092057848901518255600182019150602085019450602081019050620008f9565b868310156200094057848901516200093c601f89168262000830565b8355505b6001600288020188555050505b505050505050565b6131aa80620009656000396000f3fe608060405234801561001057600080fd5b50600436106101165760003560e01c80638da5cb5b116100a2578063b84c139211610071578063b84c1392146102d1578063cf3e7c7c14610304578063e7dc45221461033d578063ed5933171461035b578063f2fde38b1461037957610116565b80638da5cb5b14610249578063940d72ec14610267578063a2ec54aa14610283578063b1ca2106146102a157610116565b806353703f5c116100e957806353703f5c146101c9578063715018a6146101e55780637451a2c4146101ef57806379d67e091461020d5780638b756a501461022b57610116565b806316a2bb9f1461011b57806319f704a7146101395780631d6d227114610169578063499006c714610199575b600080fd5b610123610395565b6040516101309190611e15565b60405180910390f35b610153600480360381019061014e9190611e7a565b6103bb565b6040516101609190611ec8565b60405180910390f35b610183600480360381019061017e9190612062565b6103f8565b6040516101909190612173565b60405180910390f35b6101b360048036038101906101ae9190611e7a565b6106e7565b6040516101c091906121cc565b60405180910390f35b6101e360048036038101906101de9190611e7a565b61078a565b005b6101ed610ea7565b005b6101f7610ebb565b60405161020491906121f6565b60405180910390f35b610215610ec7565b6040516102229190612232565b60405180910390f35b610233610eed565b60405161024091906121f6565b60405180910390f35b610251610ef9565b60405161025e9190611ec8565b60405180910390f35b610281600480360381019061027c919061224d565b610f22565b005b61028b6111ec565b60405161029891906124ab565b60405180910390f35b6102bb60048036038101906102b69190611e7a565b61138d565b6040516102c891906125d4565b60405180910390f35b6102eb60048036038101906102e69190611e7a565b6115ef565b6040516102fb949392919061264f565b60405180910390f35b61031e60048036038101906103199190611e7a565b6116c7565b6040516103349a9998979695949392919061269b565b60405180910390f35b6103456118d3565b60405161035291906127bb565b60405180910390f35b610363611971565b60405161037091906121f6565b60405180910390f35b610393600480360381019061038e9190612809565b61197d565b005b600260009054906101000a900473ffffffffffffffffffffffffffffffffffffffff1681565b60006007600083815260200190815260200160002060009054906101000a900473ffffffffffffffffffffffffffffffffffffffff169050919050565b600061040333611a00565b61040d6009611b68565b6040518061014001604052806104236009611b7e565b8152602001600560003373ffffffffffffffffffffffffffffffffffffffff1673ffffffffffffffffffffffffffffffffffffffff1681526020019081526020016000206001015481526020018960ff1663ffffffff168152602001600063ffffffff16815260200188815260200187815260200186815260200185815260200184815260200183815250600460006104bc6009611b7e565b8152602001908152602001600020600082015181600001556020820151816001015560408201518160020160006101000a81548163ffffffff021916908363ffffffff16021790555060608201518160020160046101000a81548163ffffffff021916908363ffffffff1602179055506080820151816003015560a0820151816004015560c0820151816005015560e082015181600601908161055f9190612a38565b506101008201518160070190816105769190612a38565b5061012082015181600801908161058d9190612a38565b50905050600260009054906101000a900473ffffffffffffffffffffffffffffffffffffffff1673ffffffffffffffffffffffffffffffffffffffff1663021953486105d96009611b7e565b8a88886040518563ffffffff1660e01b81526004016105fb9493929190612b3b565b600060405180830381600087803b15801561061557600080fd5b505af1158015610629573d6000803e3d6000fd5b50505050600560003373ffffffffffffffffffffffffffffffffffffffff1673ffffffffffffffffffffffffffffffffffffffff1681526020019081526020016000206004016106796009611b7e565b90806001815401808255809150506001900390600052602060002001600090919091909150557fc87f66d37be8b79aa8f2ef529b8c2b0213f139c03825321be4477d4f026ada9b33856040516106d0929190612b87565b60405180910390a160019050979650505050505050565b6106ef611cd6565b600660003373ffffffffffffffffffffffffffffffffffffffff1673ffffffffffffffffffffffffffffffffffffffff16815260200190815260200160002060010160008381526020019081526020016000206040518060400160405290816000820160009054906101000a900460ff161515151581526020016000820160019054906101000a900460ff1615151515815250509050919050565b6000600460008381526020019081526020016000206040518061014001604052908160008201548152602001600182015481526020016002820160009054906101000a900463ffffffff1663ffffffff1663ffffffff1681526020016002820160049054906101000a900463ffffffff1663ffffffff1663ffffffff16815260200160038201548152602001600482015481526020016005820154815260200160068201805461083990612865565b80601f016020809104026020016040519081016040528092919081815260200182805461086590612865565b80156108b25780601f10610887576101008083540402835291602001916108b2565b820191906000526020600020905b81548152906001019060200180831161089557829003601f168201915b505050505081526020016007820180546108cb90612865565b80601f01602080910402602001604051908101604052809291908181526020018280546108f790612865565b80156109445780601f1061091957610100808354040283529160200191610944565b820191906000526020600020905b81548152906001019060200180831161092757829003601f168201915b5050505050815260200160088201805461095d90612865565b80601f016020809104026020016040519081016040528092919081815260200182805461098990612865565b80156109d65780601f106109ab576101008083540402835291602001916109d6565b820191906000526020600020905b8154815290600101906020018083116109b957829003601f168201915b5050505050815250509050806040015163ffffffff16816060015163ffffffff1610610a37576040517f08c379a0000000000000000000000000000000000000000000000000000000008152600401610a2e90612c03565b60405180910390fd5b600660003373ffffffffffffffffffffffffffffffffffffffff1673ffffffffffffffffffffffffffffffffffffffff168152602001908152602001600020600101600083815260200190815260200160002060000160009054906101000a900460ff1615610adb576040517f08c379a0000000000000000000000000000000000000000000000000000000008152600401610ad290612c6f565b60405180910390fd5b6000600160009054906101000a900473ffffffffffffffffffffffffffffffffffffffff1673ffffffffffffffffffffffffffffffffffffffff166323b872dd33600760008660200151815260200190815260200160002060009054906101000a900473ffffffffffffffffffffffffffffffffffffffff1685608001516040518463ffffffff1660e01b8152600401610b7793929190612c8f565b6020604051808303816000875af1158015610b96573d6000803e3d6000fd5b505050506040513d601f19601f82011682018060405250810190610bba9190612cf2565b905080610bfc576040517f08c379a0000000000000000000000000000000000000000000000000000000008152600401610bf390612d6b565b60405180910390fd5b6000600660003373ffffffffffffffffffffffffffffffffffffffff1673ffffffffffffffffffffffffffffffffffffffff1681526020019081526020016000206000015403610c9757610c50600a611b7e565b600660003373ffffffffffffffffffffffffffffffffffffffff1673ffffffffffffffffffffffffffffffffffffffff168152602001908152602001600020600001819055505b604051806040016040528060011515815260200160001515815250600660003373ffffffffffffffffffffffffffffffffffffffff1673ffffffffffffffffffffffffffffffffffffffff168152602001908152602001600020600101600085815260200190815260200160002060008201518160000160006101000a81548160ff02191690831515021790555060208201518160000160016101000a81548160ff021916908315150217905550905050600660003373ffffffffffffffffffffffffffffffffffffffff1673ffffffffffffffffffffffffffffffffffffffff168152602001908152602001600020600201839080600181540180825580915050600190039060005260206000200160009091909190915055600260009054906101000a900473ffffffffffffffffffffffffffffffffffffffff1673ffffffffffffffffffffffffffffffffffffffff1663cf237fc0338560016040518463ffffffff1660e01b8152600401610e1193929190612e6f565b600060405180830381600087803b158015610e2b57600080fd5b505af1158015610e3f573d6000803e3d6000fd5b50505050816060018051809190610e5590612efb565b63ffffffff1663ffffffff16815250507fbdb8c03a851fc898fb30c8b14ee28c26374ac77692867f54fbf009402f516e61338360e00151604051610e9a929190612b87565b60405180910390a1505050565b610eaf611b8c565b610eb96000611c0a565b565b60098060000154905081565b600160009054906101000a900473ffffffffffffffffffffffffffffffffffffffff1681565b60088060000154905081565b60008060009054906101000a900473ffffffffffffffffffffffffffffffffffffffff16905090565b8060ff166003811115610f3857610f37612308565b5b6003811115610f4a57610f49612308565b5b600560003373ffffffffffffffffffffffffffffffffffffffff1673ffffffffffffffffffffffffffffffffffffffff16815260200190815260200160002060030160009054906101000a900460ff166003811115610fac57610fab612308565b5b03610fec576040517f08c379a0000000000000000000000000000000000000000000000000000000008152600401610fe390612f73565b60405180910390fd5b600060038260ff168154811061100557611004612f93565b5b90600052602060002090600402016002015490506000600160009054906101000a900473ffffffffffffffffffffffffffffffffffffffff1673ffffffffffffffffffffffffffffffffffffffff166323b872dd3330856040518463ffffffff1660e01b815260040161107a93929190612c8f565b6020604051808303816000875af1158015611099573d6000803e3d6000fd5b505050506040513d601f19601f820116820180604052508101906110bd9190612cf2565b9050806110ff576040517f08c379a00000000000000000000000000000000000000000000000000000000081526004016110f690612d6b565b60405180910390fd5b61110833611a00565b8260ff16600381111561111e5761111d612308565b5b600560003373ffffffffffffffffffffffffffffffffffffffff1673ffffffffffffffffffffffffffffffffffffffff16815260200190815260200160002060030160006101000a81548160ff0219169083600381111561118257611181612308565b5b02179055507fcf1cf8ca9965b9f8a5f47c5d495a9cfd2a36a85012cdbd9007903bb93b872d993360038560ff16815481106111c0576111bf612f93565b5b90600052602060002090600402016001016040516111df929190613046565b60405180910390a1505050565b6111f4611cf4565b600560003373ffffffffffffffffffffffffffffffffffffffff1673ffffffffffffffffffffffffffffffffffffffff1681526020019081526020016000206040518060a00160405290816000820160009054906101000a900460ff161515151581526020016001820154815260200160028201805461127390612865565b80601f016020809104026020016040519081016040528092919081815260200182805461129f90612865565b80156112ec5780601f106112c1576101008083540402835291602001916112ec565b820191906000526020600020905b8154815290600101906020018083116112cf57829003601f168201915b505050505081526020016003820160009054906101000a900460ff16600381111561131a57611319612308565b5b600381111561132c5761132b612308565b5b81526020016004820180548060200260200160405190810160405280929190818152602001828054801561137f57602002820191906000526020600020905b81548152602001906001019080831161136b575b505050505081525050905090565b611395611d37565b600460008381526020019081526020016000206040518061014001604052908160008201548152602001600182015481526020016002820160009054906101000a900463ffffffff1663ffffffff1663ffffffff1681526020016002820160049054906101000a900463ffffffff1663ffffffff1663ffffffff16815260200160038201548152602001600482015481526020016005820154815260200160068201805461144290612865565b80601f016020809104026020016040519081016040528092919081815260200182805461146e90612865565b80156114bb5780601f10611490576101008083540402835291602001916114bb565b820191906000526020600020905b81548152906001019060200180831161149e57829003601f168201915b505050505081526020016007820180546114d490612865565b80601f016020809104026020016040519081016040528092919081815260200182805461150090612865565b801561154d5780601f106115225761010080835404028352916020019161154d565b820191906000526020600020905b81548152906001019060200180831161153057829003601f168201915b5050505050815260200160088201805461156690612865565b80601f016020809104026020016040519081016040528092919081815260200182805461159290612865565b80156115df5780601f106115b4576101008083540402835291602001916115df565b820191906000526020600020905b8154815290600101906020018083116115c257829003601f168201915b5050505050815250509050919050565b600381815481106115ff57600080fd5b90600052602060002090600402016000915090508060000160009054906101000a900463ffffffff169080600101805461163890612865565b80601f016020809104026020016040519081016040528092919081815260200182805461166490612865565b80156116b15780601f10611686576101008083540402835291602001916116b1565b820191906000526020600020905b81548152906001019060200180831161169457829003601f168201915b5050505050908060020154908060030154905084565b60046020528060005260406000206000915090508060000154908060010154908060020160009054906101000a900463ffffffff16908060020160049054906101000a900463ffffffff169080600301549080600401549080600501549080600601805461173490612865565b80601f016020809104026020016040519081016040528092919081815260200182805461176090612865565b80156117ad5780601f10611782576101008083540402835291602001916117ad565b820191906000526020600020905b81548152906001019060200180831161179057829003601f168201915b5050505050908060070180546117c290612865565b80601f01602080910402602001604051908101604052809291908181526020018280546117ee90612865565b801561183b5780601f106118105761010080835404028352916020019161183b565b820191906000526020600020905b81548152906001019060200180831161181e57829003601f168201915b50505050509080600801805461185090612865565b80601f016020809104026020016040519081016040528092919081815260200182805461187c90612865565b80156118c95780601f1061189e576101008083540402835291602001916118c9565b820191906000526020600020905b8154815290600101906020018083116118ac57829003601f168201915b505050505090508a565b60606000600660003373ffffffffffffffffffffffffffffffffffffffff1673ffffffffffffffffffffffffffffffffffffffff16815260200190815260200160002060020180548060200260200160405190810160405280929190818152602001828054801561196357602002820191906000526020600020905b81548152602001906001019080831161194f575b505050505090508091505090565b600a8060000154905081565b611985611b8c565b600073ffffffffffffffffffffffffffffffffffffffff168173ffffffffffffffffffffffffffffffffffffffff16036119f4576040517f08c379a00000000000000000000000000000000000000000000000000000000081526004016119eb906130e8565b60405180910390fd5b6119fd81611c0a565b50565b600560008273ffffffffffffffffffffffffffffffffffffffff1673ffffffffffffffffffffffffffffffffffffffff16815260200190815260200160002060000160009054906101000a900460ff16611b6557611a5e6008611b68565b611a686008611b7e565b600560008373ffffffffffffffffffffffffffffffffffffffff1673ffffffffffffffffffffffffffffffffffffffff168152602001908152602001600020600101819055506001600560008373ffffffffffffffffffffffffffffffffffffffff1673ffffffffffffffffffffffffffffffffffffffff16815260200190815260200160002060000160006101000a81548160ff0219169083151502179055508060076000611b186008611b7e565b815260200190815260200160002060006101000a81548173ffffffffffffffffffffffffffffffffffffffff021916908373ffffffffffffffffffffffffffffffffffffffff1602179055505b50565b6001816000016000828254019250508190555050565b600081600001549050919050565b611b94611cce565b73ffffffffffffffffffffffffffffffffffffffff16611bb2610ef9565b73ffffffffffffffffffffffffffffffffffffffff1614611c08576040517f08c379a0000000000000000000000000000000000000000000000000000000008152600401611bff90613154565b60405180910390fd5b565b60008060009054906101000a900473ffffffffffffffffffffffffffffffffffffffff169050816000806101000a81548173ffffffffffffffffffffffffffffffffffffffff021916908373ffffffffffffffffffffffffffffffffffffffff1602179055508173ffffffffffffffffffffffffffffffffffffffff168173ffffffffffffffffffffffffffffffffffffffff167f8be0079c531659141344cd1fd0a4f28419497f9722a3daafe3b4186f6b6457e060405160405180910390a35050565b600033905090565b60405180604001604052806000151581526020016000151581525090565b6040518060a00160405280600015158152602001600081526020016060815260200160006003811115611d2a57611d29612308565b5b8152602001606081525090565b6040518061014001604052806000815260200160008152602001600063ffffffff168152602001600063ffffffff1681526020016000815260200160008152602001600081526020016060815260200160608152602001606081525090565b600073ffffffffffffffffffffffffffffffffffffffff82169050919050565b6000819050919050565b6000611ddb611dd6611dd184611d96565b611db6565b611d96565b9050919050565b6000611ded82611dc0565b9050919050565b6000611dff82611de2565b9050919050565b611e0f81611df4565b82525050565b6000602082019050611e2a6000830184611e06565b92915050565b6000604051905090565b600080fd5b600080fd5b6000819050919050565b611e5781611e44565b8114611e6257600080fd5b50565b600081359050611e7481611e4e565b92915050565b600060208284031215611e9057611e8f611e3a565b5b6000611e9e84828501611e65565b91505092915050565b6000611eb282611d96565b9050919050565b611ec281611ea7565b82525050565b6000602082019050611edd6000830184611eb9565b92915050565b600060ff82169050919050565b611ef981611ee3565b8114611f0457600080fd5b50565b600081359050611f1681611ef0565b92915050565b600080fd5b600080fd5b6000601f19601f8301169050919050565b7f4e487b7100000000000000000000000000000000000000000000000000000000600052604160045260246000fd5b611f6f82611f26565b810181811067ffffffffffffffff82111715611f8e57611f8d611f37565b5b80604052505050565b6000611fa1611e30565b9050611fad8282611f66565b919050565b600067ffffffffffffffff821115611fcd57611fcc611f37565b5b611fd682611f26565b9050602081019050919050565b82818337600083830152505050565b600061200561200084611fb2565b611f97565b90508281526020810184848401111561202157612020611f21565b5b61202c848285611fe3565b509392505050565b600082601f83011261204957612048611f1c565b5b8135612059848260208601611ff2565b91505092915050565b600080600080600080600060e0888a03121561208157612080611e3a565b5b600061208f8a828b01611f07565b97505060206120a08a828b01611e65565b96505060406120b18a828b01611e65565b95505060606120c28a828b01611e65565b945050608088013567ffffffffffffffff8111156120e3576120e2611e3f565b5b6120ef8a828b01612034565b93505060a088013567ffffffffffffffff8111156121105761210f611e3f565b5b61211c8a828b01612034565b92505060c088013567ffffffffffffffff81111561213d5761213c611e3f565b5b6121498a828b01612034565b91505092959891949750929550565b60008115159050919050565b61216d81612158565b82525050565b60006020820190506121886000830184612164565b92915050565b61219781612158565b82525050565b6040820160008201516121b3600085018261218e565b5060208201516121c6602085018261218e565b50505050565b60006040820190506121e1600083018461219d565b92915050565b6121f081611e44565b82525050565b600060208201905061220b60008301846121e7565b92915050565b600061221c82611de2565b9050919050565b61222c81612211565b82525050565b60006020820190506122476000830184612223565b92915050565b60006020828403121561226357612262611e3a565b5b600061227184828501611f07565b91505092915050565b61228381611e44565b82525050565b600081519050919050565b600082825260208201905092915050565b60005b838110156122c35780820151818401526020810190506122a8565b60008484015250505050565b60006122da82612289565b6122e48185612294565b93506122f48185602086016122a5565b6122fd81611f26565b840191505092915050565b7f4e487b7100000000000000000000000000000000000000000000000000000000600052602160045260246000fd5b6004811061234857612347612308565b5b50565b600081905061235982612337565b919050565b60006123698261234b565b9050919050565b6123798161235e565b82525050565b600081519050919050565b600082825260208201905092915050565b6000819050602082019050919050565b60006123b7838361227a565b60208301905092915050565b6000602082019050919050565b60006123db8261237f565b6123e5818561238a565b93506123f08361239b565b8060005b8381101561242157815161240888826123ab565b9750612413836123c3565b9250506001810190506123f4565b5085935050505092915050565b600060a083016000830151612446600086018261218e565b506020830151612459602086018261227a565b506040830151848203604086015261247182826122cf565b91505060608301516124866060860182612370565b506080830151848203608086015261249e82826123d0565b9150508091505092915050565b600060208201905081810360008301526124c5818461242e565b905092915050565b600063ffffffff82169050919050565b6124e6816124cd565b82525050565b600061014083016000830151612505600086018261227a565b506020830151612518602086018261227a565b50604083015161252b60408601826124dd565b50606083015161253e60608601826124dd565b506080830151612551608086018261227a565b5060a083015161256460a086018261227a565b5060c083015161257760c086018261227a565b5060e083015184820360e086015261258f82826122cf565b9150506101008301518482036101008601526125ab82826122cf565b9150506101208301518482036101208601526125c782826122cf565b9150508091505092915050565b600060208201905081810360008301526125ee81846124ec565b905092915050565b6125ff816124cd565b82525050565b600082825260208201905092915050565b600061262182612289565b61262b8185612605565b935061263b8185602086016122a5565b61264481611f26565b840191505092915050565b600060808201905061266460008301876125f6565b81810360208301526126768186612616565b905061268560408301856121e7565b61269260608301846121e7565b95945050505050565b6000610140820190506126b1600083018d6121e7565b6126be602083018c6121e7565b6126cb604083018b6125f6565b6126d8606083018a6125f6565b6126e560808301896121e7565b6126f260a08301886121e7565b6126ff60c08301876121e7565b81810360e08301526127118186612616565b90508181036101008301526127268185612616565b905081810361012083015261273b8184612616565b90509b9a5050505050505050505050565b600082825260208201905092915050565b60006127688261237f565b612772818561274c565b935061277d8361239b565b8060005b838110156127ae57815161279588826123ab565b97506127a0836123c3565b925050600181019050612781565b5085935050505092915050565b600060208201905081810360008301526127d5818461275d565b905092915050565b6127e681611ea7565b81146127f157600080fd5b50565b600081359050612803816127dd565b92915050565b60006020828403121561281f5761281e611e3a565b5b600061282d848285016127f4565b91505092915050565b7f4e487b7100000000000000000000000000000000000000000000000000000000600052602260045260246000fd5b6000600282049050600182168061287d57607f821691505b6020821081036128905761288f612836565b5b50919050565b60008190508160005260206000209050919050565b60006020601f8301049050919050565b600082821b905092915050565b6000600883026128f87fffffffffffffffffffffffffffffffffffffffffffffffffffffffffffffffff826128bb565b61290286836128bb565b95508019841693508086168417925050509392505050565b600061293561293061292b84611e44565b611db6565b611e44565b9050919050565b6000819050919050565b61294f8361291a565b61296361295b8261293c565b8484546128c8565b825550505050565b600090565b61297861296b565b612983818484612946565b505050565b5b818110156129a75761299c600082612970565b600181019050612989565b5050565b601f8211156129ec576129bd81612896565b6129c6846128ab565b810160208510156129d5578190505b6129e96129e1856128ab565b830182612988565b50505b505050565b600082821c905092915050565b6000612a0f600019846008026129f1565b1980831691505092915050565b6000612a2883836129fe565b9150826002028217905092915050565b612a4182612289565b67ffffffffffffffff811115612a5a57612a59611f37565b5b612a648254612865565b612a6f8282856129ab565b600060209050601f831160018114612aa25760008415612a90578287015190505b612a9a8582612a1c565b865550612b02565b601f198416612ab086612896565b60005b82811015612ad857848901518255600182019150602085019450602081019050612ab3565b86831015612af55784890151612af1601f8916826129fe565b8355505b6001600288020188555050505b505050505050565b6000612b25612b20612b1b84611ee3565b611db6565b6124cd565b9050919050565b612b3581612b0a565b82525050565b6000608082019050612b5060008301876121e7565b612b5d6020830186612b2c565b612b6a60408301856121e7565b8181036060830152612b7c8184612616565b905095945050505050565b6000604082019050612b9c6000830185611eb9565b8181036020830152612bae8184612616565b90509392505050565b7f6e6f7420656e6f75677468207469636b65747300000000000000000000000000600082015250565b6000612bed601383612605565b9150612bf882612bb7565b602082019050919050565b60006020820190508181036000830152612c1c81612be0565b9050919050565b7f596f752061726520616c72656164792072656769737465726564000000000000600082015250565b6000612c59601a83612605565b9150612c6482612c23565b602082019050919050565b60006020820190508181036000830152612c8881612c4c565b9050919050565b6000606082019050612ca46000830186611eb9565b612cb16020830185611eb9565b612cbe60408301846121e7565b949350505050565b612ccf81612158565b8114612cda57600080fd5b50565b600081519050612cec81612cc6565b92915050565b600060208284031215612d0857612d07611e3a565b5b6000612d1684828501612cdd565b91505092915050565b7f7472616e736665727446726f6d206661696c6564000000000000000000000000600082015250565b6000612d55601483612605565b9150612d6082612d1f565b602082019050919050565b60006020820190508181036000830152612d8481612d48565b9050919050565b7f6a736f6e5f757269000000000000000000000000000000000000000000000000600082015250565b6000612dc1600883612605565b9150612dcc82612d8b565b602082019050919050565b6000819050919050565b6000612dfc612df7612df284612dd7565b611db6565b611e44565b9050919050565b612e0c81612de1565b82525050565b600082825260208201905092915050565b7f3078000000000000000000000000000000000000000000000000000000000000600082015250565b6000612e59600283612e12565b9150612e6482612e23565b602082019050919050565b600060a082019050612e846000830186611eb9565b612e9160208301856121e7565b8181036040830152612ea281612db4565b9050612eb16060830184612e03565b8181036080830152612ec281612e4c565b9050949350505050565b7f4e487b7100000000000000000000000000000000000000000000000000000000600052601160045260246000fd5b6000612f06826124cd565b915063ffffffff8203612f1c57612f1b612ecc565b5b600182019050919050565b7f796f7520616c726561647920686176652074686973206f666665720000000000600082015250565b6000612f5d601b83612605565b9150612f6882612f27565b602082019050919050565b60006020820190508181036000830152612f8c81612f50565b9050919050565b7f4e487b7100000000000000000000000000000000000000000000000000000000600052603260045260246000fd5b60008154612fcf81612865565b612fd98186612605565b94506001821660008114612ff4576001811461300a5761303d565b60ff19831686528115156020028601935061303d565b61301385612896565b60005b8381101561303557815481890152600182019150602081019050613016565b808801955050505b50505092915050565b600060408201905061305b6000830185611eb9565b818103602083015261306d8184612fc2565b90509392505050565b7f4f776e61626c653a206e6577206f776e657220697320746865207a65726f206160008201527f6464726573730000000000000000000000000000000000000000000000000000602082015250565b60006130d2602683612605565b91506130dd82613076565b604082019050919050565b60006020820190508181036000830152613101816130c5565b9050919050565b7f4f776e61626c653a2063616c6c6572206973206e6f7420746865206f776e6572600082015250565b600061313e602083612605565b915061314982613108565b602082019050919050565b6000602082019050818103600083015261316d81613131565b905091905056fea2646970667358221220dfac2caf5f73a01386ee1ae9ccba86ffc838fe5420fe7fa2367dde7272832de364736f6c63430008110033",
  "immutableReferences": {},
  "source": "// SPDX-License-Identifier: UNLICENSED\npragma solidity 0.8.17;\nimport \"@openzeppelin/contracts/access/Ownable.sol\";\nimport \"@openzeppelin/contracts/utils/Counters.sol\";\nimport \"./figo.sol\";\nimport \"./IERC20FIGO.sol\";\nimport \"./ERC1155TICKET.sol\";\n\ncontract Fillgood is Ownable {\n    using Counters for Counters.Counter;\n    enum OfferType {\n        none,\n        gold,\n        silver,\n        bronze\n    }\n    struct Pack {\n        uint32 nbMaxExperiences;\n        string name;\n        uint256 price;\n        uint256 fees;\n    }\n    struct Partner {\n        bool isRegister;\n        uint256 partnerId;\n        string name;\n        OfferType offer;\n        uint256[] experiencesIds;\n    }\n    struct Experience {\n        uint256 experienceId;\n        uint256 partnerId;\n        uint32 nbTickets;\n        uint32 nbTicketsSold;\n        uint256 price;\n        uint256 reward;\n        uint256 date;\n        string name;\n        string experienceType;\n        string meetingPlace;\n    }\n    struct Ticket {\n        bool isRegistered;\n        bool proofScanned;\n    }\n    struct Participant {\n        uint256 participantId;\n        // experience id to registration ticket\n        mapping(uint256 => Ticket) tickets;\n        uint256[] ticketsIds;\n    }\n\n    event offerSold(address partnerAddress, string offerName);\n    event ExperienceAdded(address partnerAddress, string experienceName);\n    event ParticipantRegistered(\n        address participantAddress,\n        string experienceName\n    );\n\n    IERC20FIGO public figo;\n    ERC1155TICKET public experienceTicketing;\n    Pack[] public packs;\n\n    mapping(uint256 => Experience) public experiences;\n    mapping(address => Partner) partners;\n    mapping(address => Participant) private participants;\n    mapping(uint256 => address) private partnersAddresses;\n\n    Counters.Counter public partnerIds;\n    Counters.Counter public experienceIds;\n    Counters.Counter public participantsIds;\n\n    constructor(address _figoaddress, address _ticketAddress) {\n        figo = IERC20FIGO(_figoaddress);\n        experienceTicketing = ERC1155TICKET(_ticketAddress);\n\n        packs.push(Pack(0, \"None\", 0, 500));\n        packs.push(Pack(0, \"Gold\", 2500 ether, 0));\n        packs.push(Pack(5, \"Silver\", 1500 ether, 100));\n        packs.push(Pack(2, \"Bronze\", 500 ether, 300));\n    }\n\n    /**\n     * @notice Get self as partner\n     * @dev Getter on partners mapping\n     * @return Partner object\n     */\n    function getSelfAsPartner() external view returns (Partner memory) {\n        return partners[msg.sender];\n    }\n\n    /**\n     * @notice Get partner by id\n     * use to get a partner detail in experience\n     * @dev Getter on partnersAddress mapping\n     * @return address address\n     */\n    function getPartnerAddressById(uint256 _id)\n        external\n        view\n        returns (address)\n    {\n        return partnersAddresses[_id];\n    }\n\n    /**\n     * @notice Get an Experience by id\n     * @dev Getter on experiences mapping\n     * @return Experience object\n     */\n    function getExperience(uint256 idExperience)\n        external\n        view\n        returns (Experience memory)\n    {\n        return experiences[idExperience];\n    }\n\n    /**\n     * @notice Get experience id list registered by participant\n     * @dev Getter on experiences mapping\n     * @return uint256[] ids\n     */\n    function getParticipationsIds() external view returns (uint256[] memory) {\n        uint256[] memory ticketsIds = participants[msg.sender].ticketsIds;\n\n        return ticketsIds;\n    }\n\n    /**\n     * @notice Get ticket of participant for an experience id\n     * @dev Getter on Participants => Ticket mapping\n     * @return Ticket object\n     */\n    function getParticipation(uint256 experienceId)\n        external\n        view\n        returns (Ticket memory)\n    {\n        return participants[msg.sender].tickets[experienceId];\n    }\n\n    /**\n     * @notice Partner buy FillGood Offer\n     * @notice Figo Token need allowance to tranfert partners funds\n     * emit offerSold\n     * @dev OfferType is an enum betwee 0 and 3\n     */\n    function buyPack(uint8 _offerType) external {\n        require(\n            partners[msg.sender].offer != OfferType(_offerType),\n            \"you already have this offer\"\n        );\n\n        uint256 amount = packs[_offerType].price;\n        bool success = figo.transferFrom(msg.sender, address(this), amount);\n        require(success, \"transfertFrom failed\");\n\n        _registerPartner(msg.sender);\n\n        partners[msg.sender].offer = OfferType(_offerType);\n        emit offerSold(msg.sender, packs[_offerType].name);\n    }\n\n    /**\n     * @notice Register a partner in partner lists\n     * add entry partnerId to address\n     */\n    function _registerPartner(address _sender) internal {\n        if (!partners[_sender].isRegister) {\n            partnerIds.increment();\n            partners[_sender].partnerId = partnerIds.current();\n            partners[_sender].isRegister = true;\n            partnersAddresses[partnerIds.current()] = _sender;\n        }\n    }\n\n    /**\n     * @notice Partner add an experience\n     * @notice experienceTicketing Token will be added\n     * emit ExperienceAdded\n     */\n    function addExperience(\n        uint8 _nbTickets,\n        uint256 _price,\n        uint256 _reward,\n        uint256 _date,\n        string memory _name,\n        string memory _experienceType,\n        string memory _meetingPlace\n    ) external returns (bool) {\n        _registerPartner(msg.sender);\n        experienceIds.increment();\n\n        experiences[experienceIds.current()] = Experience(\n            experienceIds.current(),\n            partners[msg.sender].partnerId,\n            _nbTickets,\n            0,\n            _price,\n            _reward,\n            _date,\n            _name,\n            _experienceType,\n            _meetingPlace\n        );\n        experienceTicketing.createTicket(\n            experienceIds.current(),\n            _nbTickets,\n            _date,\n            _name\n        );\n        partners[msg.sender].experiencesIds.push(experienceIds.current());\n        emit ExperienceAdded(msg.sender, _name);\n        return true;\n    }\n\n    /**\n     * @notice Participants registering to an experience\n     * @notice experienceTicketing Token will be minted for an experience\n     * @notice Figo Token need allowance to tranfert participants funds\n     * emit ParticipantRegistered\n     * Requirements:\n     *\n     * - before minting verify tickets are available\n     * - `_experienceId`  must no exists in participant list\n     */\n    function registerParticipant(uint256 _experienceId) external {\n        Experience memory experience = experiences[_experienceId];\n        require(\n            experience.nbTicketsSold < experience.nbTickets,\n            \"not enougth tickets\"\n        );\n\n        require(\n            !participants[msg.sender].tickets[_experienceId].isRegistered,\n            \"You are already registered\"\n        );\n\n        // pay for registering an experience\n        bool success = figo.transferFrom(\n            msg.sender,\n            partnersAddresses[experience.partnerId],\n            experience.price\n        );\n        require(success, \"transfertFrom failed\");\n\n        // if partcipant has no account\n        if (participants[msg.sender].participantId == 0) {\n            participants[msg.sender].participantId = participantsIds.current();\n        }\n\n        participants[msg.sender].tickets[_experienceId] = Ticket(true, false);\n        participants[msg.sender].ticketsIds.push(_experienceId);\n\n        // mint ticket\n        experienceTicketing.mint(\n            msg.sender, //    address _athlete,\n            _experienceId, //  uint256 _experienceId,\n            \"json_uri\", // string memory _tokenURI\n            1, // _quantity\n            \"0x\" // _data\n        );\n        experience.nbTicketsSold++;\n        emit ParticipantRegistered(msg.sender, experience.name);\n    }\n\n    /**\n     * QRCODe returns an experience ID\n     * mssgsender has scan qrcorde proof of participate\n     */\n    // function getReward(uint8 experienceId) external {\n    //     Registration storage registering = participants[msg.sender].experiences[\n    //         experienceId\n    //     ];\n    //     require(\n    //         !registering.isRegistered && !registering.hasAlreadyScan,\n    //         \"You're not allowed to valid this proof of participate\"\n    //     );\n    //     // get approval to make this transfert before\n    //     Experience storage experience = experiences[experienceId];\n    //     figo.transfertFrom(experience.partner, msg.sender, experience.reward);\n    // }\n}\n",
  "sourcePath": "C:\\Users\\ramad\\Documents\\Developpeur-Ethereum-Template\\8. NFT\\truffle\\contracts\\fillgood.sol",
  "compiler": {
    "name": "solc",
    "version": "0.8.17+commit.8df45f5f.Emscripten.clang"
  },
  "schemaVersion": "3.4.11",
  "updatedAt": "2022-12-15T11:37:48.820Z",
  "networkType": "ethereum",
  "devdoc": {
    "kind": "dev",
    "methods": {
      "buyPack(uint8)": {
        "details": "OfferType is an enum betwee 0 and 3"
      },
      "getExperience(uint256)": {
        "details": "Getter on experiences mapping",
        "returns": {
          "_0": "Experience object"
        }
      },
      "getParticipation(uint256)": {
        "details": "Getter on Participants => Ticket mapping",
        "returns": {
          "_0": "Ticket object"
        }
      },
      "getParticipationsIds()": {
        "details": "Getter on experiences mapping",
        "returns": {
          "_0": "uint256[] ids"
        }
      },
      "getPartnerAddressById(uint256)": {
        "details": "Getter on partnersAddress mapping",
        "returns": {
          "_0": "address address"
        }
      },
      "getSelfAsPartner()": {
        "details": "Getter on partners mapping",
        "returns": {
          "_0": "Partner object"
        }
      },
      "owner()": {
        "details": "Returns the address of the current owner."
      },
      "renounceOwnership()": {
        "details": "Leaves the contract without owner. It will not be possible to call `onlyOwner` functions anymore. Can only be called by the current owner. NOTE: Renouncing ownership will leave the contract without an owner, thereby removing any functionality that is only available to the owner."
      },
      "transferOwnership(address)": {
        "details": "Transfers ownership of the contract to a new account (`newOwner`). Can only be called by the current owner."
      }
    },
    "version": 1
  },
  "userdoc": {
    "kind": "user",
    "methods": {
      "addExperience(uint8,uint256,uint256,uint256,string,string,string)": {
        "notice": "Partner add an experienceexperienceTicketing Token will be added emit ExperienceAdded"
      },
      "buyPack(uint8)": {
        "notice": "Partner buy FillGood OfferFigo Token need allowance to tranfert partners funds emit offerSold"
      },
      "getExperience(uint256)": {
        "notice": "Get an Experience by id"
      },
      "getParticipation(uint256)": {
        "notice": "Get ticket of participant for an experience id"
      },
      "getParticipationsIds()": {
        "notice": "Get experience id list registered by participant"
      },
      "getPartnerAddressById(uint256)": {
        "notice": "Get partner by id use to get a partner detail in experience"
      },
      "getSelfAsPartner()": {
        "notice": "Get self as partner"
      },
      "registerParticipant(uint256)": {
        "notice": "Participants registering to an experienceexperienceTicketing Token will be minted for an experienceFigo Token need allowance to tranfert participants funds emit ParticipantRegistered Requirements: - before minting verify tickets are available - `_experienceId`  must no exists in participant list"
      }
    },
    "version": 1
  }
}