{
  "contractName": "Fillgood",
  "abi": [
    {
      "inputs": [
        {
          "internalType": "address",
          "name": "_figoaddress",
          "type": "address"
        },
        {
          "internalType": "address",
          "name": "_ticketAddress",
          "type": "address"
        }
      ],
      "stateMutability": "nonpayable",
      "type": "constructor"
    },
    {
      "anonymous": false,
      "inputs": [
        {
          "indexed": false,
          "internalType": "address",
          "name": "partnerAddress",
          "type": "address"
        },
        {
          "indexed": false,
          "internalType": "string",
          "name": "experienceName",
          "type": "string"
        }
      ],
      "name": "ExperienceAdded",
      "type": "event"
    },
    {
      "anonymous": false,
      "inputs": [
        {
          "indexed": true,
          "internalType": "address",
          "name": "previousOwner",
          "type": "address"
        },
        {
          "indexed": true,
          "internalType": "address",
          "name": "newOwner",
          "type": "address"
        }
      ],
      "name": "OwnershipTransferred",
      "type": "event"
    },
    {
      "anonymous": false,
      "inputs": [
        {
          "indexed": false,
          "internalType": "address",
          "name": "participantAddress",
          "type": "address"
        },
        {
          "indexed": false,
          "internalType": "string",
          "name": "experienceName",
          "type": "string"
        }
      ],
      "name": "ParticipantRegistered",
      "type": "event"
    },
    {
      "anonymous": false,
      "inputs": [
        {
          "indexed": false,
          "internalType": "address",
          "name": "partnerAddress",
          "type": "address"
        },
        {
          "indexed": false,
          "internalType": "string",
          "name": "offerName",
          "type": "string"
        }
      ],
      "name": "offerSold",
      "type": "event"
    },
    {
      "inputs": [],
      "name": "experienceIds",
      "outputs": [
        {
          "internalType": "uint256",
          "name": "_value",
          "type": "uint256"
        }
      ],
      "stateMutability": "view",
      "type": "function",
      "constant": true
    },
    {
      "inputs": [],
      "name": "experienceTicketing",
      "outputs": [
        {
          "internalType": "contract ERC1155TICKET",
          "name": "",
          "type": "address"
        }
      ],
      "stateMutability": "view",
      "type": "function",
      "constant": true
    },
    {
      "inputs": [
        {
          "internalType": "uint256",
          "name": "",
          "type": "uint256"
        }
      ],
      "name": "experiences",
      "outputs": [
        {
          "internalType": "uint256",
          "name": "experienceId",
          "type": "uint256"
        },
        {
          "internalType": "uint256",
          "name": "partnerId",
          "type": "uint256"
        },
        {
          "internalType": "uint32",
          "name": "nbTickets",
          "type": "uint32"
        },
        {
          "internalType": "uint32",
          "name": "nbTicketsSold",
          "type": "uint32"
        },
        {
          "internalType": "uint256",
          "name": "price",
          "type": "uint256"
        },
        {
          "internalType": "uint256",
          "name": "reward",
          "type": "uint256"
        },
        {
          "internalType": "uint256",
          "name": "date",
          "type": "uint256"
        },
        {
          "internalType": "string",
          "name": "name",
          "type": "string"
        },
        {
          "internalType": "string",
          "name": "experienceType",
          "type": "string"
        },
        {
          "internalType": "string",
          "name": "meetingPlace",
          "type": "string"
        }
      ],
      "stateMutability": "view",
      "type": "function",
      "constant": true
    },
    {
      "inputs": [],
      "name": "figo",
      "outputs": [
        {
          "internalType": "contract IERC20FIGO",
          "name": "",
          "type": "address"
        }
      ],
      "stateMutability": "view",
      "type": "function",
      "constant": true
    },
    {
      "inputs": [],
      "name": "owner",
      "outputs": [
        {
          "internalType": "address",
          "name": "",
          "type": "address"
        }
      ],
      "stateMutability": "view",
      "type": "function",
      "constant": true
    },
    {
      "inputs": [
        {
          "internalType": "uint256",
          "name": "",
          "type": "uint256"
        }
      ],
      "name": "packs",
      "outputs": [
        {
          "internalType": "uint32",
          "name": "nbMaxExperiences",
          "type": "uint32"
        },
        {
          "internalType": "string",
          "name": "name",
          "type": "string"
        },
        {
          "internalType": "uint256",
          "name": "price",
          "type": "uint256"
        },
        {
          "internalType": "uint256",
          "name": "fees",
          "type": "uint256"
        }
      ],
      "stateMutability": "view",
      "type": "function",
      "constant": true
    },
    {
      "inputs": [],
      "name": "participantsIds",
      "outputs": [
        {
          "internalType": "uint256",
          "name": "_value",
          "type": "uint256"
        }
      ],
      "stateMutability": "view",
      "type": "function",
      "constant": true
    },
    {
      "inputs": [],
      "name": "partnerIds",
      "outputs": [
        {
          "internalType": "uint256",
          "name": "_value",
          "type": "uint256"
        }
      ],
      "stateMutability": "view",
      "type": "function",
      "constant": true
    },
    {
      "inputs": [],
      "name": "renounceOwnership",
      "outputs": [],
      "stateMutability": "nonpayable",
      "type": "function"
    },
    {
      "inputs": [
        {
          "internalType": "address",
          "name": "newOwner",
          "type": "address"
        }
      ],
      "name": "transferOwnership",
      "outputs": [],
      "stateMutability": "nonpayable",
      "type": "function"
    },
    {
      "inputs": [
        {
          "internalType": "address",
          "name": "_address",
          "type": "address"
        }
      ],
      "name": "getPartnerByAddress",
      "outputs": [
        {
          "components": [
            {
              "internalType": "uint256",
              "name": "partnerId",
              "type": "uint256"
            },
            {
              "internalType": "string",
              "name": "name",
              "type": "string"
            },
            {
              "internalType": "uint256[]",
              "name": "experiencesIds",
              "type": "uint256[]"
            },
            {
              "internalType": "bool",
              "name": "isRegister",
              "type": "bool"
            },
            {
              "internalType": "enum Fillgood.OfferType",
              "name": "offer",
              "type": "uint8"
            }
          ],
          "internalType": "struct Fillgood.Partner",
          "name": "",
          "type": "tuple"
        }
      ],
      "stateMutability": "view",
      "type": "function",
      "constant": true
    },
    {
      "inputs": [
        {
          "internalType": "uint256",
          "name": "_id",
          "type": "uint256"
        }
      ],
      "name": "getPartnerAddressById",
      "outputs": [
        {
          "internalType": "address",
          "name": "",
          "type": "address"
        }
      ],
      "stateMutability": "view",
      "type": "function",
      "constant": true
    },
    {
      "inputs": [
        {
          "internalType": "uint8",
          "name": "_offerType",
          "type": "uint8"
        }
      ],
      "name": "buyPack",
      "outputs": [],
      "stateMutability": "nonpayable",
      "type": "function"
    },
    {
      "inputs": [
        {
          "internalType": "uint8",
          "name": "_nbTickets",
          "type": "uint8"
        },
        {
          "internalType": "uint256",
          "name": "_price",
          "type": "uint256"
        },
        {
          "internalType": "uint256",
          "name": "_reward",
          "type": "uint256"
        },
        {
          "internalType": "uint256",
          "name": "_date",
          "type": "uint256"
        },
        {
          "internalType": "string",
          "name": "_name",
          "type": "string"
        },
        {
          "internalType": "string",
          "name": "_experienceType",
          "type": "string"
        },
        {
          "internalType": "string",
          "name": "_meetingPlace",
          "type": "string"
        }
      ],
      "name": "addExperience",
      "outputs": [
        {
          "internalType": "bool",
          "name": "",
          "type": "bool"
        }
      ],
      "stateMutability": "nonpayable",
      "type": "function"
    },
    {
      "inputs": [
        {
          "internalType": "uint256",
          "name": "_experienceId",
          "type": "uint256"
        }
      ],
      "name": "registerParticipant",
      "outputs": [],
      "stateMutability": "nonpayable",
      "type": "function"
    }
  ],
  "bytecode": "0x60806040523480156200001157600080fd5b5060405162003365380380620033658339818101604052810190620000379190620005ad565b620000576200004b6200047760201b60201c565b6200047f60201b60201c565b81600160006101000a81548173ffffffffffffffffffffffffffffffffffffffff021916908373ffffffffffffffffffffffffffffffffffffffff16021790555080600260006101000a81548173ffffffffffffffffffffffffffffffffffffffff021916908373ffffffffffffffffffffffffffffffffffffffff16021790555060036040518060800160405280600063ffffffff1681526020016040518060400160405280600481526020017f4e6f6e65000000000000000000000000000000000000000000000000000000008152508152602001600081526020016101f4815250908060018154018082558091505060019003906000526020600020906004020160009091909190915060008201518160000160006101000a81548163ffffffff021916908363ffffffff1602179055506020820151816001019081620001a291906200086e565b506040820151816002015560608201518160030155505060036040518060800160405280600063ffffffff1681526020016040518060400160405280600481526020017f476f6c6400000000000000000000000000000000000000000000000000000000815250815260200168878678326eac90000081526020016000815250908060018154018082558091505060019003906000526020600020906004020160009091909190915060008201518160000160006101000a81548163ffffffff021916908363ffffffff16021790555060208201518160010190816200028991906200086e565b506040820151816002015560608201518160030155505060036040518060800160405280600563ffffffff1681526020016040518060400160405280600681526020017f53696c76657200000000000000000000000000000000000000000000000000008152508152602001685150ae84a8cdf0000081526020016064815250908060018154018082558091505060019003906000526020600020906004020160009091909190915060008201518160000160006101000a81548163ffffffff021916908363ffffffff16021790555060208201518160010190816200037091906200086e565b506040820151816002015560608201518160030155505060036040518060800160405280600263ffffffff1681526020016040518060400160405280600681526020017f42726f6e7a6500000000000000000000000000000000000000000000000000008152508152602001681b1ae4d6e2ef500000815260200161012c815250908060018154018082558091505060019003906000526020600020906004020160009091909190915060008201518160000160006101000a81548163ffffffff021916908363ffffffff16021790555060208201518160010190816200045891906200086e565b5060408201518160020155606082015181600301555050505062000955565b600033905090565b60008060009054906101000a900473ffffffffffffffffffffffffffffffffffffffff169050816000806101000a81548173ffffffffffffffffffffffffffffffffffffffff021916908373ffffffffffffffffffffffffffffffffffffffff1602179055508173ffffffffffffffffffffffffffffffffffffffff168173ffffffffffffffffffffffffffffffffffffffff167f8be0079c531659141344cd1fd0a4f28419497f9722a3daafe3b4186f6b6457e060405160405180910390a35050565b600080fd5b600073ffffffffffffffffffffffffffffffffffffffff82169050919050565b6000620005758262000548565b9050919050565b620005878162000568565b81146200059357600080fd5b50565b600081519050620005a7816200057c565b92915050565b60008060408385031215620005c757620005c662000543565b5b6000620005d78582860162000596565b9250506020620005ea8582860162000596565b9150509250929050565b600081519050919050565b7f4e487b7100000000000000000000000000000000000000000000000000000000600052604160045260246000fd5b7f4e487b7100000000000000000000000000000000000000000000000000000000600052602260045260246000fd5b600060028204905060018216806200067657607f821691505b6020821081036200068c576200068b6200062e565b5b50919050565b60008190508160005260206000209050919050565b60006020601f8301049050919050565b600082821b905092915050565b600060088302620006f67fffffffffffffffffffffffffffffffffffffffffffffffffffffffffffffffff82620006b7565b620007028683620006b7565b95508019841693508086168417925050509392505050565b6000819050919050565b6000819050919050565b60006200074f6200074962000743846200071a565b62000724565b6200071a565b9050919050565b6000819050919050565b6200076b836200072e565b620007836200077a8262000756565b848454620006c4565b825550505050565b600090565b6200079a6200078b565b620007a781848462000760565b505050565b5b81811015620007cf57620007c360008262000790565b600181019050620007ad565b5050565b601f8211156200081e57620007e88162000692565b620007f384620006a7565b8101602085101562000803578190505b6200081b6200081285620006a7565b830182620007ac565b50505b505050565b600082821c905092915050565b6000620008436000198460080262000823565b1980831691505092915050565b60006200085e838362000830565b9150826002028217905092915050565b6200087982620005f4565b67ffffffffffffffff811115620008955762000894620005ff565b5b620008a182546200065d565b620008ae828285620007d3565b600060209050601f831160018114620008e65760008415620008d1578287015190505b620008dd858262000850565b8655506200094d565b601f198416620008f68662000692565b60005b828110156200092057848901518255600182019150602085019450602081019050620008f9565b868310156200094057848901516200093c601f89168262000830565b8355505b6001600288020188555050505b505050505050565b612a0080620009656000396000f3fe608060405234801561001057600080fd5b50600436106100f55760003560e01c806379d67e0911610097578063b84c139211610066578063b84c139214610262578063cf3e7c7c14610295578063ed593317146102ce578063f2fde38b146102ec576100f5565b806379d67e09146101ec5780638b756a501461020a5780638da5cb5b14610228578063940d72ec14610246576100f5565b806353703f5c116100d357806353703f5c146101785780636451690614610194578063715018a6146101c45780637451a2c4146101ce576100f5565b806316a2bb9f146100fa57806319f704a7146101185780631d6d227114610148575b600080fd5b610102610308565b60405161010f919061185f565b60405180910390f35b610132600480360381019061012d91906118c4565b61032e565b60405161013f9190611912565b60405180910390f35b610162600480360381019061015d9190611aac565b61036b565b60405161016f9190611bbd565b60405180910390f35b610192600480360381019061018d91906118c4565b6105ab565b005b6101ae60048036038101906101a99190611c04565b610c70565b6040516101bb9190611e71565b60405180910390f35b6101cc610e1b565b005b6101d6610e2f565b6040516101e39190611ea2565b60405180910390f35b6101f4610e3b565b6040516102019190611ede565b60405180910390f35b610212610e61565b60405161021f9190611ea2565b60405180910390f35b610230610e6d565b60405161023d9190611912565b60405180910390f35b610260600480360381019061025b9190611ef9565b610e96565b005b61027c600480360381019061027791906118c4565b6112bc565b60405161028c9493929190611f8f565b60405180910390f35b6102af60048036038101906102aa91906118c4565b611394565b6040516102c59a99989796959493929190611fdb565b60405180910390f35b6102d66115a0565b6040516102e39190611ea2565b60405180910390f35b61030660048036038101906103019190611c04565b6115ac565b005b600260009054906101000a900473ffffffffffffffffffffffffffffffffffffffff1681565b60006007600083815260200190815260200160002060009054906101000a900473ffffffffffffffffffffffffffffffffffffffff169050919050565b6000610377600a61162f565b600060046000610387600a611645565b815260200190815260200160002090506103a1600a611645565b8160000181905550600560003373ffffffffffffffffffffffffffffffffffffffff1673ffffffffffffffffffffffffffffffffffffffff1681526020019081526020016000206000015481600101819055508860ff168160020160006101000a81548163ffffffff021916908363ffffffff16021790555087816003018190555086816004018190555085816005018190555084816006019081610446919061228e565b5083816007019081610458919061228e565b508281600801908161046a919061228e565b50336008600061047a600a611645565b815260200190815260200160002060006101000a81548173ffffffffffffffffffffffffffffffffffffffff021916908373ffffffffffffffffffffffffffffffffffffffff160217905550600260009054906101000a900473ffffffffffffffffffffffffffffffffffffffff1673ffffffffffffffffffffffffffffffffffffffff16630219534861050e600a611645565b8b89896040518563ffffffff1660e01b81526004016105309493929190612391565b600060405180830381600087803b15801561054a57600080fd5b505af115801561055e573d6000803e3d6000fd5b505050507fc87f66d37be8b79aa8f2ef529b8c2b0213f139c03825321be4477d4f026ada9b33866040516105939291906123dd565b60405180910390a16001915050979650505050505050565b6000600460008381526020019081526020016000206040518061014001604052908160008201548152602001600182015481526020016002820160009054906101000a900463ffffffff1663ffffffff1663ffffffff1681526020016002820160049054906101000a900463ffffffff1663ffffffff1663ffffffff16815260200160038201548152602001600482015481526020016005820154815260200160068201805461065a906120bb565b80601f0160208091040260200160405190810160405280929190818152602001828054610686906120bb565b80156106d35780601f106106a8576101008083540402835291602001916106d3565b820191906000526020600020905b8154815290600101906020018083116106b657829003601f168201915b505050505081526020016007820180546106ec906120bb565b80601f0160208091040260200160405190810160405280929190818152602001828054610718906120bb565b80156107655780601f1061073a57610100808354040283529160200191610765565b820191906000526020600020905b81548152906001019060200180831161074857829003601f168201915b5050505050815260200160088201805461077e906120bb565b80601f01602080910402602001604051908101604052809291908181526020018280546107aa906120bb565b80156107f75780601f106107cc576101008083540402835291602001916107f7565b820191906000526020600020905b8154815290600101906020018083116107da57829003601f168201915b5050505050815250509050806040015163ffffffff16816060015163ffffffff1610610858576040517f08c379a000000000000000000000000000000000000000000000000000000000815260040161084f90612459565b60405180910390fd5b6000600660003373ffffffffffffffffffffffffffffffffffffffff1673ffffffffffffffffffffffffffffffffffffffff168152602001908152602001600020905080600101600084815260200190815260200160002060000160009054906101000a900460ff1615610901576040517f08c379a00000000000000000000000000000000000000000000000000000000081526004016108f8906124c5565b60405180910390fd5b6000600760008460200151815260200190815260200160002060009054906101000a900473ffffffffffffffffffffffffffffffffffffffff1690506000600160009054906101000a900473ffffffffffffffffffffffffffffffffffffffff1673ffffffffffffffffffffffffffffffffffffffff166323b872dd338487608001516040518463ffffffff1660e01b81526004016109a2939291906124e5565b6020604051808303816000875af11580156109c1573d6000803e3d6000fd5b505050506040513d601f19601f820116820180604052508101906109e59190612548565b905080610a27576040517f08c379a0000000000000000000000000000000000000000000000000000000008152600401610a1e906125c1565b60405180910390fd5b600073ffffffffffffffffffffffffffffffffffffffff1660086000610a4d600b611645565b815260200190815260200160002060009054906101000a900473ffffffffffffffffffffffffffffffffffffffff1673ffffffffffffffffffffffffffffffffffffffff1603610b05573360086000610aa6600b611645565b815260200190815260200160002060006101000a81548173ffffffffffffffffffffffffffffffffffffffff021916908373ffffffffffffffffffffffffffffffffffffffff160217905550610afc600b611645565b83600001819055505b60405180604001604052806001151581526020016000151581525083600101600087815260200190815260200160002060008201518160000160006101000a81548160ff02191690831515021790555060208201518160000160016101000a81548160ff021916908315150217905550905050600260009054906101000a900473ffffffffffffffffffffffffffffffffffffffff1673ffffffffffffffffffffffffffffffffffffffff1663cf237fc0338760016040518463ffffffff1660e01b8152600401610bd8939291906126c5565b600060405180830381600087803b158015610bf257600080fd5b505af1158015610c06573d6000803e3d6000fd5b50505050836060018051809190610c1c90612751565b63ffffffff1663ffffffff16815250507fbdb8c03a851fc898fb30c8b14ee28c26374ac77692867f54fbf009402f516e61338560e00151604051610c619291906123dd565b60405180910390a15050505050565b610c7861179d565b610c80611653565b600560008373ffffffffffffffffffffffffffffffffffffffff1673ffffffffffffffffffffffffffffffffffffffff1681526020019081526020016000206040518060a001604052908160008201548152602001600182018054610ce4906120bb565b80601f0160208091040260200160405190810160405280929190818152602001828054610d10906120bb565b8015610d5d5780601f10610d3257610100808354040283529160200191610d5d565b820191906000526020600020905b815481529060010190602001808311610d4057829003601f168201915b5050505050815260200160028201805480602002602001604051908101604052809291908181526020018280548015610db557602002820191906000526020600020905b815481526020019060010190808311610da1575b505050505081526020016003820160009054906101000a900460ff161515151581526020016003820160019054906101000a900460ff166003811115610dfe57610dfd611d7d565b5b6003811115610e1057610e0f611d7d565b5b815250509050919050565b610e23611653565b610e2d60006116d1565b565b600a8060000154905081565b600160009054906101000a900473ffffffffffffffffffffffffffffffffffffffff1681565b60098060000154905081565b60008060009054906101000a900473ffffffffffffffffffffffffffffffffffffffff16905090565b8060ff166003811115610eac57610eab611d7d565b5b6003811115610ebe57610ebd611d7d565b5b600560003373ffffffffffffffffffffffffffffffffffffffff1673ffffffffffffffffffffffffffffffffffffffff16815260200190815260200160002060030160019054906101000a900460ff166003811115610f2057610f1f611d7d565b5b03610f60576040517f08c379a0000000000000000000000000000000000000000000000000000000008152600401610f57906127c9565b60405180910390fd5b600060038260ff1681548110610f7957610f786127e9565b5b90600052602060002090600402016002015490506000600160009054906101000a900473ffffffffffffffffffffffffffffffffffffffff1673ffffffffffffffffffffffffffffffffffffffff166323b872dd3330856040518463ffffffff1660e01b8152600401610fee939291906124e5565b6020604051808303816000875af115801561100d573d6000803e3d6000fd5b505050506040513d601f19601f820116820180604052508101906110319190612548565b905080611073576040517f08c379a000000000000000000000000000000000000000000000000000000000815260040161106a906125c1565b60405180910390fd5b600560003373ffffffffffffffffffffffffffffffffffffffff1673ffffffffffffffffffffffffffffffffffffffff16815260200190815260200160002060030160009054906101000a900460ff166111d8576110d1600961162f565b6110db6009611645565b600560003373ffffffffffffffffffffffffffffffffffffffff1673ffffffffffffffffffffffffffffffffffffffff168152602001908152602001600020600001819055506001600560003373ffffffffffffffffffffffffffffffffffffffff1673ffffffffffffffffffffffffffffffffffffffff16815260200190815260200160002060030160006101000a81548160ff021916908315150217905550336007600061118b6009611645565b815260200190815260200160002060006101000a81548173ffffffffffffffffffffffffffffffffffffffff021916908373ffffffffffffffffffffffffffffffffffffffff1602179055505b8260ff1660038111156111ee576111ed611d7d565b5b600560003373ffffffffffffffffffffffffffffffffffffffff1673ffffffffffffffffffffffffffffffffffffffff16815260200190815260200160002060030160016101000a81548160ff0219169083600381111561125257611251611d7d565b5b02179055507fcf1cf8ca9965b9f8a5f47c5d495a9cfd2a36a85012cdbd9007903bb93b872d993360038560ff16815481106112905761128f6127e9565b5b90600052602060002090600402016001016040516112af92919061289c565b60405180910390a1505050565b600381815481106112cc57600080fd5b90600052602060002090600402016000915090508060000160009054906101000a900463ffffffff1690806001018054611305906120bb565b80601f0160208091040260200160405190810160405280929190818152602001828054611331906120bb565b801561137e5780601f106113535761010080835404028352916020019161137e565b820191906000526020600020905b81548152906001019060200180831161136157829003601f168201915b5050505050908060020154908060030154905084565b60046020528060005260406000206000915090508060000154908060010154908060020160009054906101000a900463ffffffff16908060020160049054906101000a900463ffffffff1690806003015490806004015490806005015490806006018054611401906120bb565b80601f016020809104026020016040519081016040528092919081815260200182805461142d906120bb565b801561147a5780601f1061144f5761010080835404028352916020019161147a565b820191906000526020600020905b81548152906001019060200180831161145d57829003601f168201915b50505050509080600701805461148f906120bb565b80601f01602080910402602001604051908101604052809291908181526020018280546114bb906120bb565b80156115085780601f106114dd57610100808354040283529160200191611508565b820191906000526020600020905b8154815290600101906020018083116114eb57829003601f168201915b50505050509080600801805461151d906120bb565b80601f0160208091040260200160405190810160405280929190818152602001828054611549906120bb565b80156115965780601f1061156b57610100808354040283529160200191611596565b820191906000526020600020905b81548152906001019060200180831161157957829003601f168201915b505050505090508a565b600b8060000154905081565b6115b4611653565b600073ffffffffffffffffffffffffffffffffffffffff168173ffffffffffffffffffffffffffffffffffffffff1603611623576040517f08c379a000000000000000000000000000000000000000000000000000000000815260040161161a9061293e565b60405180910390fd5b61162c816116d1565b50565b6001816000016000828254019250508190555050565b600081600001549050919050565b61165b611795565b73ffffffffffffffffffffffffffffffffffffffff16611679610e6d565b73ffffffffffffffffffffffffffffffffffffffff16146116cf576040517f08c379a00000000000000000000000000000000000000000000000000000000081526004016116c6906129aa565b60405180910390fd5b565b60008060009054906101000a900473ffffffffffffffffffffffffffffffffffffffff169050816000806101000a81548173ffffffffffffffffffffffffffffffffffffffff021916908373ffffffffffffffffffffffffffffffffffffffff1602179055508173ffffffffffffffffffffffffffffffffffffffff168173ffffffffffffffffffffffffffffffffffffffff167f8be0079c531659141344cd1fd0a4f28419497f9722a3daafe3b4186f6b6457e060405160405180910390a35050565b600033905090565b6040518060a00160405280600081526020016060815260200160608152602001600015158152602001600060038111156117da576117d9611d7d565b5b81525090565b600073ffffffffffffffffffffffffffffffffffffffff82169050919050565b6000819050919050565b600061182561182061181b846117e0565b611800565b6117e0565b9050919050565b60006118378261180a565b9050919050565b60006118498261182c565b9050919050565b6118598161183e565b82525050565b60006020820190506118746000830184611850565b92915050565b6000604051905090565b600080fd5b600080fd5b6000819050919050565b6118a18161188e565b81146118ac57600080fd5b50565b6000813590506118be81611898565b92915050565b6000602082840312156118da576118d9611884565b5b60006118e8848285016118af565b91505092915050565b60006118fc826117e0565b9050919050565b61190c816118f1565b82525050565b60006020820190506119276000830184611903565b92915050565b600060ff82169050919050565b6119438161192d565b811461194e57600080fd5b50565b6000813590506119608161193a565b92915050565b600080fd5b600080fd5b6000601f19601f8301169050919050565b7f4e487b7100000000000000000000000000000000000000000000000000000000600052604160045260246000fd5b6119b982611970565b810181811067ffffffffffffffff821117156119d8576119d7611981565b5b80604052505050565b60006119eb61187a565b90506119f782826119b0565b919050565b600067ffffffffffffffff821115611a1757611a16611981565b5b611a2082611970565b9050602081019050919050565b82818337600083830152505050565b6000611a4f611a4a846119fc565b6119e1565b905082815260208101848484011115611a6b57611a6a61196b565b5b611a76848285611a2d565b509392505050565b600082601f830112611a9357611a92611966565b5b8135611aa3848260208601611a3c565b91505092915050565b600080600080600080600060e0888a031215611acb57611aca611884565b5b6000611ad98a828b01611951565b9750506020611aea8a828b016118af565b9650506040611afb8a828b016118af565b9550506060611b0c8a828b016118af565b945050608088013567ffffffffffffffff811115611b2d57611b2c611889565b5b611b398a828b01611a7e565b93505060a088013567ffffffffffffffff811115611b5a57611b59611889565b5b611b668a828b01611a7e565b92505060c088013567ffffffffffffffff811115611b8757611b86611889565b5b611b938a828b01611a7e565b91505092959891949750929550565b60008115159050919050565b611bb781611ba2565b82525050565b6000602082019050611bd26000830184611bae565b92915050565b611be1816118f1565b8114611bec57600080fd5b50565b600081359050611bfe81611bd8565b92915050565b600060208284031215611c1a57611c19611884565b5b6000611c2884828501611bef565b91505092915050565b611c3a8161188e565b82525050565b600081519050919050565b600082825260208201905092915050565b60005b83811015611c7a578082015181840152602081019050611c5f565b60008484015250505050565b6000611c9182611c40565b611c9b8185611c4b565b9350611cab818560208601611c5c565b611cb481611970565b840191505092915050565b600081519050919050565b600082825260208201905092915050565b6000819050602082019050919050565b6000611cf78383611c31565b60208301905092915050565b6000602082019050919050565b6000611d1b82611cbf565b611d258185611cca565b9350611d3083611cdb565b8060005b83811015611d61578151611d488882611ceb565b9750611d5383611d03565b925050600181019050611d34565b5085935050505092915050565b611d7781611ba2565b82525050565b7f4e487b7100000000000000000000000000000000000000000000000000000000600052602160045260246000fd5b60048110611dbd57611dbc611d7d565b5b50565b6000819050611dce82611dac565b919050565b6000611dde82611dc0565b9050919050565b611dee81611dd3565b82525050565b600060a083016000830151611e0c6000860182611c31565b5060208301518482036020860152611e248282611c86565b91505060408301518482036040860152611e3e8282611d10565b9150506060830151611e536060860182611d6e565b506080830151611e666080860182611de5565b508091505092915050565b60006020820190508181036000830152611e8b8184611df4565b905092915050565b611e9c8161188e565b82525050565b6000602082019050611eb76000830184611e93565b92915050565b6000611ec88261182c565b9050919050565b611ed881611ebd565b82525050565b6000602082019050611ef36000830184611ecf565b92915050565b600060208284031215611f0f57611f0e611884565b5b6000611f1d84828501611951565b91505092915050565b600063ffffffff82169050919050565b611f3f81611f26565b82525050565b600082825260208201905092915050565b6000611f6182611c40565b611f6b8185611f45565b9350611f7b818560208601611c5c565b611f8481611970565b840191505092915050565b6000608082019050611fa46000830187611f36565b8181036020830152611fb68186611f56565b9050611fc56040830185611e93565b611fd26060830184611e93565b95945050505050565b600061014082019050611ff1600083018d611e93565b611ffe602083018c611e93565b61200b604083018b611f36565b612018606083018a611f36565b6120256080830189611e93565b61203260a0830188611e93565b61203f60c0830187611e93565b81810360e08301526120518186611f56565b90508181036101008301526120668185611f56565b905081810361012083015261207b8184611f56565b90509b9a5050505050505050505050565b7f4e487b7100000000000000000000000000000000000000000000000000000000600052602260045260246000fd5b600060028204905060018216806120d357607f821691505b6020821081036120e6576120e561208c565b5b50919050565b60008190508160005260206000209050919050565b60006020601f8301049050919050565b600082821b905092915050565b60006008830261214e7fffffffffffffffffffffffffffffffffffffffffffffffffffffffffffffffff82612111565b6121588683612111565b95508019841693508086168417925050509392505050565b600061218b6121866121818461188e565b611800565b61188e565b9050919050565b6000819050919050565b6121a583612170565b6121b96121b182612192565b84845461211e565b825550505050565b600090565b6121ce6121c1565b6121d981848461219c565b505050565b5b818110156121fd576121f26000826121c6565b6001810190506121df565b5050565b601f82111561224257612213816120ec565b61221c84612101565b8101602085101561222b578190505b61223f61223785612101565b8301826121de565b50505b505050565b600082821c905092915050565b600061226560001984600802612247565b1980831691505092915050565b600061227e8383612254565b9150826002028217905092915050565b61229782611c40565b67ffffffffffffffff8111156122b0576122af611981565b5b6122ba82546120bb565b6122c5828285612201565b600060209050601f8311600181146122f857600084156122e6578287015190505b6122f08582612272565b865550612358565b601f198416612306866120ec565b60005b8281101561232e57848901518255600182019150602085019450602081019050612309565b8683101561234b5784890151612347601f891682612254565b8355505b6001600288020188555050505b505050505050565b600061237b6123766123718461192d565b611800565b611f26565b9050919050565b61238b81612360565b82525050565b60006080820190506123a66000830187611e93565b6123b36020830186612382565b6123c06040830185611e93565b81810360608301526123d28184611f56565b905095945050505050565b60006040820190506123f26000830185611903565b81810360208301526124048184611f56565b90509392505050565b7f6e6f7420656e6f75677468207469636b65747300000000000000000000000000600082015250565b6000612443601383611f45565b915061244e8261240d565b602082019050919050565b6000602082019050818103600083015261247281612436565b9050919050565b7f596f752061726520616c72656164792072656769737465726564000000000000600082015250565b60006124af601a83611f45565b91506124ba82612479565b602082019050919050565b600060208201905081810360008301526124de816124a2565b9050919050565b60006060820190506124fa6000830186611903565b6125076020830185611903565b6125146040830184611e93565b949350505050565b61252581611ba2565b811461253057600080fd5b50565b6000815190506125428161251c565b92915050565b60006020828403121561255e5761255d611884565b5b600061256c84828501612533565b91505092915050565b7f7472616e736665727446726f6d206661696c6564000000000000000000000000600082015250565b60006125ab601483611f45565b91506125b682612575565b602082019050919050565b600060208201905081810360008301526125da8161259e565b9050919050565b7f6a736f6e5f757269000000000000000000000000000000000000000000000000600082015250565b6000612617600883611f45565b9150612622826125e1565b602082019050919050565b6000819050919050565b600061265261264d6126488461262d565b611800565b61188e565b9050919050565b61266281612637565b82525050565b600082825260208201905092915050565b7f3078000000000000000000000000000000000000000000000000000000000000600082015250565b60006126af600283612668565b91506126ba82612679565b602082019050919050565b600060a0820190506126da6000830186611903565b6126e76020830185611e93565b81810360408301526126f88161260a565b90506127076060830184612659565b8181036080830152612718816126a2565b9050949350505050565b7f4e487b7100000000000000000000000000000000000000000000000000000000600052601160045260246000fd5b600061275c82611f26565b915063ffffffff820361277257612771612722565b5b600182019050919050565b7f796f7520616c726561647920686176652074686973206f666665720000000000600082015250565b60006127b3601b83611f45565b91506127be8261277d565b602082019050919050565b600060208201905081810360008301526127e2816127a6565b9050919050565b7f4e487b7100000000000000000000000000000000000000000000000000000000600052603260045260246000fd5b60008154612825816120bb565b61282f8186611f45565b9450600182166000811461284a576001811461286057612893565b60ff198316865281151560200286019350612893565b612869856120ec565b60005b8381101561288b5781548189015260018201915060208101905061286c565b808801955050505b50505092915050565b60006040820190506128b16000830185611903565b81810360208301526128c38184612818565b90509392505050565b7f4f776e61626c653a206e6577206f776e657220697320746865207a65726f206160008201527f6464726573730000000000000000000000000000000000000000000000000000602082015250565b6000612928602683611f45565b9150612933826128cc565b604082019050919050565b600060208201905081810360008301526129578161291b565b9050919050565b7f4f776e61626c653a2063616c6c6572206973206e6f7420746865206f776e6572600082015250565b6000612994602083611f45565b915061299f8261295e565b602082019050919050565b600060208201905081810360008301526129c381612987565b905091905056fea2646970667358221220d06c3121087305a1b99b14b2a90f0019364f6123ab570b3ab486f1009ada859a64736f6c63430008110033",
  "immutableReferences": {},
  "source": "// SPDX-License-Identifier: UNLICENSED\npragma solidity 0.8.17;\nimport \"@openzeppelin/contracts/access/Ownable.sol\";\nimport \"@openzeppelin/contracts/utils/Counters.sol\";\nimport \"./figo.sol\";\nimport \"./IERC20FIGO.sol\";\nimport \"./ERC1155TICKET.sol\";\n\ncontract Fillgood is Ownable {\n    using Counters for Counters.Counter;\n    enum OfferType {\n        none,\n        gold,\n        silver,\n        bronze\n    }\n    struct Pack {\n        uint32 nbMaxExperiences;\n        string name;\n        uint256 price;\n        uint256 fees;\n    }\n    struct Partner {\n        uint256 partnerId;\n        string name;\n        uint256[] experiencesIds;\n        bool isRegister;\n        OfferType offer;\n    }\n    struct Experience {\n        uint256 experienceId;\n        uint256 partnerId;\n        uint32 nbTickets;\n        uint32 nbTicketsSold;\n        uint256 price;\n        uint256 reward;\n        uint256 date;\n        string name;\n        string experienceType;\n        string meetingPlace;\n    }\n    struct Ticket {\n        bool isRegistered;\n        bool proofScanned;\n    }\n    struct Participant {\n        uint256 participantId;\n        // experience id to registration ticket\n        mapping(uint256 => Ticket) tickets;\n    }\n\n    event offerSold(address partnerAddress, string offerName);\n    event ExperienceAdded(address partnerAddress, string experienceName);\n    event ParticipantRegistered(\n        address participantAddress,\n        string experienceName\n    );\n\n    IERC20FIGO public figo;\n    ERC1155TICKET public experienceTicketing;\n    Pack[] public packs;\n\n    mapping(uint256 => Experience) public experiences;\n    mapping(address => Partner) private partners;\n    mapping(address => Participant) private participants;\n    mapping(uint256 => address) private partnersAddresses;\n    mapping(uint256 => address) private participantsAddresses;\n\n    Counters.Counter public partnerIds;\n    Counters.Counter public experienceIds;\n    Counters.Counter public participantsIds;\n\n    constructor(address _figoaddress, address _ticketAddress) {\n        figo = IERC20FIGO(_figoaddress);\n        experienceTicketing = ERC1155TICKET(_ticketAddress);\n\n        packs.push(Pack(0, \"None\", 0, 500));\n        packs.push(Pack(0, \"Gold\", 2500 ether, 0));\n        packs.push(Pack(5, \"Silver\", 1500 ether, 100));\n        packs.push(Pack(2, \"Bronze\", 500 ether, 300));\n    }\n\n    /**\n     * @notice Get partner by address\n     * @dev Getter on partners mapping\n     * @return Partner array\n     */\n    function getPartnerByAddress(\n        address _address\n    ) external view onlyOwner returns (Partner memory) {\n        return partners[_address];\n    }\n\n    /**\n     * @notice Get partner by id\n     * @dev Getter on partnersAddress mapping\n     * @return address address\n     */\n    function getPartnerAddressById(\n        uint256 _id\n    ) external view returns (address) {\n        return partnersAddresses[_id];\n    }\n\n    // function getSelfAsParticipant()\n    //     external\n    //     view\n    //     returns (Ticket[] memory, uint32)\n    // {\n    //     Ticket[] memory myTickets = participants[msg.sender].tickets;\n    //     uint32 id = participants[msg.sender].participantId;\n    //     return (myTickets, id);\n    // }\n\n    /**\n     * @notice Partner buy FillGood Offer\n     * @notice Figo Token need allowance to tranfert partners funds\n     * emit offerSold\n     * @dev OfferType is an enum betwee 0 and 3\n     */\n    function buyPack(uint8 _offerType) external {\n        require(\n            partners[msg.sender].offer != OfferType(_offerType),\n            \"you already have this offer\"\n        );\n\n        uint256 amount = packs[_offerType].price;\n        bool success = figo.transferFrom(msg.sender, address(this), amount);\n        require(success, \"transfertFrom failed\");\n\n        if (!partners[msg.sender].isRegister) {\n            partnerIds.increment();\n            partners[msg.sender].partnerId = partnerIds.current();\n            partners[msg.sender].isRegister = true;\n            partnersAddresses[partnerIds.current()] = msg.sender;\n        }\n\n        partners[msg.sender].offer = OfferType(_offerType);\n        emit offerSold(msg.sender, packs[_offerType].name);\n    }\n\n    /**\n     * @notice Partner add an experience\n     * @notice experienceTicketing Token will be added\n     * emit ExperienceAdded\n     * @return bool\n     */\n    function addExperience(\n        uint8 _nbTickets,\n        uint256 _price,\n        uint256 _reward,\n        uint256 _date,\n        string memory _name,\n        string memory _experienceType,\n        string memory _meetingPlace\n    ) external returns (bool) {\n        experienceIds.increment();\n        Experience storage e = experiences[experienceIds.current()];\n        e.experienceId = experienceIds.current();\n        e.partnerId = partners[msg.sender].partnerId;\n        e.nbTickets = _nbTickets;\n        e.price = _price;\n        e.reward = _reward;\n        e.date = _date;\n        e.name = _name;\n        e.experienceType = _experienceType;\n        e.meetingPlace = _meetingPlace;\n\n        participantsAddresses[experienceIds.current()] = msg.sender;\n\n        experienceTicketing.createTicket(\n            experienceIds.current(),\n            _nbTickets,\n            _date,\n            _name\n        );\n\n        emit ExperienceAdded(msg.sender, _name);\n\n        return true;\n    }\n\n    /**\n     * @notice Participants registering to an experience\n     * @notice experienceTicketing Token will be minted for an experience\n     * @notice Figo Token need allowance to tranfert participants funds\n     * emit ParticipantRegistered\n     * Requirements:\n     *\n     * - before minting verify tickets are available\n     * - `_experienceId`  must no exists in participant list\n     */\n    function registerParticipant(uint256 _experienceId) external {\n        Experience memory experience = experiences[_experienceId];\n        require(\n            experience.nbTicketsSold < experience.nbTickets,\n            \"not enougth tickets\"\n        );\n\n        Participant storage currentParticipant = participants[msg.sender];\n        require(\n            !currentParticipant.tickets[_experienceId].isRegistered,\n            \"You are already registered\"\n        );\n\n        // pay for registering an experience\n        address partnerAddress = partnersAddresses[experience.partnerId];\n        bool success = figo.transferFrom(\n            msg.sender,\n            partnerAddress,\n            experience.price\n        );\n        require(success, \"transfertFrom failed\");\n\n        // if partcipant has no account\n        if (participantsAddresses[participantsIds.current()] == address(0)) {\n            participantsAddresses[participantsIds.current()] = msg.sender;\n            currentParticipant.participantId = participantsIds.current();\n        }\n        currentParticipant.tickets[_experienceId] = Ticket(true, false);\n\n        // mint ticket\n        experienceTicketing.mint(\n            msg.sender, //    address _athlete,\n            _experienceId, //  uint256 _experienceId,\n            \"json_uri\", // string memory _tokenURI\n            1, // _quantity\n            \"0x\" // _data\n        );\n        experience.nbTicketsSold++;\n        emit ParticipantRegistered(msg.sender, experience.name);\n    }\n\n    /**\n     * QRCODe returns an experience ID\n     * mssgsender has scan qrcorde proof of participate\n     */\n    // function getReward(uint8 experienceId) external {\n    //     Registration storage registering = participants[msg.sender].experiences[\n    //         experienceId\n    //     ];\n    //     require(\n    //         !registering.isRegistered && !registering.hasAlreadyScan,\n    //         \"You're not allowed to valid this proof of participate\"\n    //     );\n    //     // get approval to make this transfert before\n    //     Experience storage experience = experiences[experienceId];\n    //     figo.transfertFrom(experience.partner, msg.sender, experience.reward);\n    // }\n}\n",
  "sourcePath": "C:\\Users\\ramad\\Documents\\Developpeur-Ethereum-Template\\8. NFT\\truffle\\contracts\\fillgood.sol",
  "compiler": {
    "name": "solc",
    "version": "0.8.17+commit.8df45f5f.Emscripten.clang"
  },
  "schemaVersion": "3.4.11",
  "updatedAt": "2022-12-12T03:02:34.324Z",
  "networkType": "ethereum",
  "devdoc": {
    "kind": "dev",
    "methods": {
      "addExperience(uint8,uint256,uint256,uint256,string,string,string)": {
        "returns": {
          "_0": "bool"
        }
      },
      "buyPack(uint8)": {
        "details": "OfferType is an enum betwee 0 and 3"
      },
      "getPartnerAddressById(uint256)": {
        "details": "Getter on partnersAddress mapping",
        "returns": {
          "_0": "address address"
        }
      },
      "getPartnerByAddress(address)": {
        "details": "Getter on partners mapping",
        "returns": {
          "_0": "Partner array"
        }
      },
      "owner()": {
        "details": "Returns the address of the current owner."
      },
      "renounceOwnership()": {
        "details": "Leaves the contract without owner. It will not be possible to call `onlyOwner` functions anymore. Can only be called by the current owner. NOTE: Renouncing ownership will leave the contract without an owner, thereby removing any functionality that is only available to the owner."
      },
      "transferOwnership(address)": {
        "details": "Transfers ownership of the contract to a new account (`newOwner`). Can only be called by the current owner."
      }
    },
    "version": 1
  },
  "userdoc": {
    "kind": "user",
    "methods": {
      "addExperience(uint8,uint256,uint256,uint256,string,string,string)": {
        "notice": "Partner add an experienceexperienceTicketing Token will be added emit ExperienceAdded"
      },
      "buyPack(uint8)": {
        "notice": "Partner buy FillGood OfferFigo Token need allowance to tranfert partners funds emit offerSold"
      },
      "getPartnerAddressById(uint256)": {
        "notice": "Get partner by id"
      },
      "getPartnerByAddress(address)": {
        "notice": "Get partner by address"
      },
      "registerParticipant(uint256)": {
        "notice": "Participants registering to an experienceexperienceTicketing Token will be minted for an experienceFigo Token need allowance to tranfert participants funds emit ParticipantRegistered Requirements: - before minting verify tickets are available - `_experienceId`  must no exists in participant list"
      }
    },
    "version": 1
  }
}