{
  "contractName": "Voting",
  "abi": [
    {
      "anonymous": false,
      "inputs": [
        {
          "indexed": true,
          "internalType": "address",
          "name": "previousOwner",
          "type": "address"
        },
        {
          "indexed": true,
          "internalType": "address",
          "name": "newOwner",
          "type": "address"
        }
      ],
      "name": "OwnershipTransferred",
      "type": "event"
    },
    {
      "anonymous": false,
      "inputs": [
        {
          "indexed": false,
          "internalType": "uint256",
          "name": "proposalId",
          "type": "uint256"
        }
      ],
      "name": "ProposalRegistered",
      "type": "event"
    },
    {
      "anonymous": false,
      "inputs": [
        {
          "indexed": false,
          "internalType": "address",
          "name": "voter",
          "type": "address"
        },
        {
          "indexed": false,
          "internalType": "uint256",
          "name": "proposalId",
          "type": "uint256"
        }
      ],
      "name": "Voted",
      "type": "event"
    },
    {
      "anonymous": false,
      "inputs": [
        {
          "indexed": false,
          "internalType": "address",
          "name": "voterAddress",
          "type": "address"
        }
      ],
      "name": "VoterRegistered",
      "type": "event"
    },
    {
      "anonymous": false,
      "inputs": [
        {
          "indexed": false,
          "internalType": "enum Voting.WorkflowStatus",
          "name": "previousStatus",
          "type": "uint8"
        },
        {
          "indexed": false,
          "internalType": "enum Voting.WorkflowStatus",
          "name": "newStatus",
          "type": "uint8"
        }
      ],
      "name": "WorkflowStatusChange",
      "type": "event"
    },
    {
      "inputs": [],
      "name": "owner",
      "outputs": [
        {
          "internalType": "address",
          "name": "",
          "type": "address"
        }
      ],
      "stateMutability": "view",
      "type": "function",
      "constant": true
    },
    {
      "inputs": [],
      "name": "renounceOwnership",
      "outputs": [],
      "stateMutability": "nonpayable",
      "type": "function"
    },
    {
      "inputs": [
        {
          "internalType": "address",
          "name": "newOwner",
          "type": "address"
        }
      ],
      "name": "transferOwnership",
      "outputs": [],
      "stateMutability": "nonpayable",
      "type": "function"
    },
    {
      "inputs": [],
      "name": "winningProposalID",
      "outputs": [
        {
          "internalType": "uint256",
          "name": "",
          "type": "uint256"
        }
      ],
      "stateMutability": "view",
      "type": "function",
      "constant": true
    },
    {
      "inputs": [],
      "name": "workflowStatus",
      "outputs": [
        {
          "internalType": "enum Voting.WorkflowStatus",
          "name": "",
          "type": "uint8"
        }
      ],
      "stateMutability": "view",
      "type": "function",
      "constant": true
    },
    {
      "inputs": [],
      "name": "me",
      "outputs": [
        {
          "components": [
            {
              "internalType": "bool",
              "name": "isRegistered",
              "type": "bool"
            },
            {
              "internalType": "bool",
              "name": "hasVoted",
              "type": "bool"
            },
            {
              "internalType": "uint256",
              "name": "votedProposalId",
              "type": "uint256"
            }
          ],
          "internalType": "struct Voting.Voter",
          "name": "",
          "type": "tuple"
        }
      ],
      "stateMutability": "view",
      "type": "function",
      "constant": true
    },
    {
      "inputs": [
        {
          "internalType": "address",
          "name": "_addr",
          "type": "address"
        }
      ],
      "name": "getVoter",
      "outputs": [
        {
          "components": [
            {
              "internalType": "bool",
              "name": "isRegistered",
              "type": "bool"
            },
            {
              "internalType": "bool",
              "name": "hasVoted",
              "type": "bool"
            },
            {
              "internalType": "uint256",
              "name": "votedProposalId",
              "type": "uint256"
            }
          ],
          "internalType": "struct Voting.Voter",
          "name": "",
          "type": "tuple"
        }
      ],
      "stateMutability": "view",
      "type": "function",
      "constant": true
    },
    {
      "inputs": [
        {
          "internalType": "uint256",
          "name": "_id",
          "type": "uint256"
        }
      ],
      "name": "getOneProposal",
      "outputs": [
        {
          "components": [
            {
              "internalType": "string",
              "name": "description",
              "type": "string"
            },
            {
              "internalType": "uint256",
              "name": "voteCount",
              "type": "uint256"
            }
          ],
          "internalType": "struct Voting.Proposal",
          "name": "",
          "type": "tuple"
        }
      ],
      "stateMutability": "view",
      "type": "function",
      "constant": true
    },
    {
      "inputs": [
        {
          "internalType": "address",
          "name": "_addr",
          "type": "address"
        }
      ],
      "name": "addVoter",
      "outputs": [],
      "stateMutability": "nonpayable",
      "type": "function"
    },
    {
      "inputs": [
        {
          "internalType": "string",
          "name": "_desc",
          "type": "string"
        }
      ],
      "name": "addProposal",
      "outputs": [],
      "stateMutability": "nonpayable",
      "type": "function"
    },
    {
      "inputs": [
        {
          "internalType": "uint256",
          "name": "_id",
          "type": "uint256"
        }
      ],
      "name": "setVote",
      "outputs": [],
      "stateMutability": "nonpayable",
      "type": "function"
    },
    {
      "inputs": [],
      "name": "startProposalsRegistering",
      "outputs": [],
      "stateMutability": "nonpayable",
      "type": "function"
    },
    {
      "inputs": [],
      "name": "endProposalsRegistering",
      "outputs": [],
      "stateMutability": "nonpayable",
      "type": "function"
    },
    {
      "inputs": [],
      "name": "startVotingSession",
      "outputs": [],
      "stateMutability": "nonpayable",
      "type": "function"
    },
    {
      "inputs": [],
      "name": "endVotingSession",
      "outputs": [],
      "stateMutability": "nonpayable",
      "type": "function"
    },
    {
      "inputs": [],
      "name": "tallyVotes",
      "outputs": [],
      "stateMutability": "nonpayable",
      "type": "function"
    }
  ],
  "bytecode": "0x60806040523480156200001157600080fd5b50620000446200002f6200004a640100000000026401000000009004565b62000052640100000000026401000000009004565b62000116565b600033905090565b60008060009054906101000a900473ffffffffffffffffffffffffffffffffffffffff169050816000806101000a81548173ffffffffffffffffffffffffffffffffffffffff021916908373ffffffffffffffffffffffffffffffffffffffff1602179055508173ffffffffffffffffffffffffffffffffffffffff168173ffffffffffffffffffffffffffffffffffffffff167f8be0079c531659141344cd1fd0a4f28419497f9722a3daafe3b4186f6b6457e060405160405180910390a35050565b61259380620001266000396000f3fe608060405234801561001057600080fd5b506004361061011d576000357c010000000000000000000000000000000000000000000000000000000090048063bdc01431116100b4578063d4f50f9811610083578063d4f50f9814610234578063ee74c67814610264578063f2fde38b1461026e578063f4ab9adf1461028a5761011d565b8063bdc01431146101e4578063c7038a4e14610202578063c88af42f1461020c578063cb12b48f146102165761011d565b80638da5cb5b116100f05780638da5cb5b1461016e578063a1edffa21461018c578063a2788cce146101aa578063a7bfab16146101da5761011d565b8063230796ae146101225780632fdae3c51461013e578063378a21781461015a578063715018a614610164575b600080fd5b61013c600480360381019061013791906114f1565b6102a6565b005b61015860048036038101906101539190611664565b6105a1565b005b6101626107dd565b005b61016c61094a565b005b61017661095e565b60405161018391906116ee565b60405180910390f35b610194610987565b6040516101a19190611780565b60405180910390f35b6101c460048036038101906101bf91906114f1565b61099a565b6040516101d19190611866565b60405180910390f35b6101e2610b01565b005b6101ec610be7565b6040516101f99190611897565b60405180910390f35b61020a610bed565b005b610214610d68565b005b61021e610e4d565b60405161022b919061190f565b60405180910390f35b61024e60048036038101906102499190611956565b610ee4565b60405161025b919061190f565b60405180910390f35b61026c61100c565b005b61028860048036038101906102839190611956565b6110f2565b005b6102a4600480360381019061029f9190611956565b611175565b005b600460003373ffffffffffffffffffffffffffffffffffffffff1673ffffffffffffffffffffffffffffffffffffffff16815260200190815260200160002060000160009054906101000a900460ff16610335576040517f08c379a000000000000000000000000000000000000000000000000000000000815260040161032c906119e0565b60405180910390fd5b6003600581111561034957610348611709565b5b600260009054906101000a900460ff16600581111561036b5761036a611709565b5b146103ab576040517f08c379a00000000000000000000000000000000000000000000000000000000081526004016103a290611a72565b60405180910390fd5b60011515600460003373ffffffffffffffffffffffffffffffffffffffff1673ffffffffffffffffffffffffffffffffffffffff16815260200190815260200160002060000160019054906101000a900460ff16151503610441576040517f08c379a000000000000000000000000000000000000000000000000000000000815260040161043890611ade565b60405180910390fd5b6003805490508110610488576040517f08c379a000000000000000000000000000000000000000000000000000000000815260040161047f90611b4a565b60405180910390fd5b80600460003373ffffffffffffffffffffffffffffffffffffffff1673ffffffffffffffffffffffffffffffffffffffff168152602001908152602001600020600101819055506001600460003373ffffffffffffffffffffffffffffffffffffffff1673ffffffffffffffffffffffffffffffffffffffff16815260200190815260200160002060000160016101000a81548160ff0219169083151502179055506003818154811061053e5761053d611b6a565b5b9060005260206000209060020201600101600081548092919061056090611bc8565b91905055507f4d99b957a2bc29a30ebd96a7be8e68fe50a3c701db28a91436490b7d53870ca43382604051610596929190611c10565b60405180910390a150565b600460003373ffffffffffffffffffffffffffffffffffffffff1673ffffffffffffffffffffffffffffffffffffffff16815260200190815260200160002060000160009054906101000a900460ff16610630576040517f08c379a0000000000000000000000000000000000000000000000000000000008152600401610627906119e0565b60405180910390fd5b6001600581111561064457610643611709565b5b600260009054906101000a900460ff16600581111561066657610665611709565b5b146106a6576040517f08c379a000000000000000000000000000000000000000000000000000000000815260040161069d90611c85565b60405180910390fd5b6040516020016106b590611ccb565b60405160208183030381529060405280519060200120816040516020016106dc9190611d24565b6040516020818303038152906040528051906020012003610732576040517f08c379a000000000000000000000000000000000000000000000000000000000815260040161072990611db8565b60405180910390fd5b61073a611468565b818160000181905250600381908060018154018082558091505060019003906000526020600020906002020160009091909190915060008201518160000190816107849190611fea565b506020820151816001015550507f92e393e9b54e2f801d3ea4beb0c5e71a21cc34a5d34b77d0fb8a3aa1650dc18f60016003805490506107c491906120bc565b6040516107d19190611897565b60405180910390a15050565b6107e561131e565b600460058111156107f9576107f8611709565b5b600260009054906101000a900460ff16600581111561081b5761081a611709565b5b1461085b576040517f08c379a000000000000000000000000000000000000000000000000000000000815260040161085290612162565b60405180910390fd5b600080600090505b6003805490508110156108d9576003828154811061088457610883611b6a565b5b906000526020600020906002020160010154600382815481106108aa576108a9611b6a565b5b90600052602060002090600202016001015411156108c6578091505b80806108d190611bc8565b915050610863565b50806001819055506005600260006101000a81548160ff0219169083600581111561090757610906611709565b5b02179055507f0a97a4ee45751e2abf3e4fc8946939630b11b371ea8ae39ccdc3056e98f5cc3f6004600560405161093f929190612182565b60405180910390a150565b61095261131e565b61095c600061139c565b565b60008060009054906101000a900473ffffffffffffffffffffffffffffffffffffffff16905090565b600260009054906101000a900460ff1681565b6109a2611468565b600460003373ffffffffffffffffffffffffffffffffffffffff1673ffffffffffffffffffffffffffffffffffffffff16815260200190815260200160002060000160009054906101000a900460ff16610a31576040517f08c379a0000000000000000000000000000000000000000000000000000000008152600401610a28906119e0565b60405180910390fd5b60038281548110610a4557610a44611b6a565b5b9060005260206000209060020201604051806040016040529081600082018054610a6e90611e07565b80601f0160208091040260200160405190810160405280929190818152602001828054610a9a90611e07565b8015610ae75780601f10610abc57610100808354040283529160200191610ae7565b820191906000526020600020905b815481529060010190602001808311610aca57829003601f168201915b505050505081526020016001820154815250509050919050565b610b0961131e565b60036005811115610b1d57610b1c611709565b5b600260009054906101000a900460ff166005811115610b3f57610b3e611709565b5b14610b7f576040517f08c379a0000000000000000000000000000000000000000000000000000000008152600401610b7690611a72565b60405180910390fd5b6004600260006101000a81548160ff02191690836005811115610ba557610ba4611709565b5b02179055507f0a97a4ee45751e2abf3e4fc8946939630b11b371ea8ae39ccdc3056e98f5cc3f60036004604051610bdd929190612182565b60405180910390a1565b60015481565b610bf561131e565b60006005811115610c0957610c08611709565b5b600260009054906101000a900460ff166005811115610c2b57610c2a611709565b5b14610c6b576040517f08c379a0000000000000000000000000000000000000000000000000000000008152600401610c629061221d565b60405180910390fd5b6001600260006101000a81548160ff02191690836005811115610c9157610c90611709565b5b0217905550610c9e611468565b6040518060400160405280600781526020017f47454e4553495300000000000000000000000000000000000000000000000000815250816000018190525060038190806001815401808255809150506001900390600052602060002090600202016000909190919091506000820151816000019081610d1d9190611fea565b506020820151816001015550507f0a97a4ee45751e2abf3e4fc8946939630b11b371ea8ae39ccdc3056e98f5cc3f60006001604051610d5d929190612182565b60405180910390a150565b610d7061131e565b60016005811115610d8457610d83611709565b5b600260009054906101000a900460ff166005811115610da657610da5611709565b5b14610de6576040517f08c379a0000000000000000000000000000000000000000000000000000000008152600401610ddd906122af565b60405180910390fd5b60028060006101000a81548160ff02191690836005811115610e0b57610e0a611709565b5b02179055507f0a97a4ee45751e2abf3e4fc8946939630b11b371ea8ae39ccdc3056e98f5cc3f60016002604051610e43929190612182565b60405180910390a1565b610e55611482565b600460003373ffffffffffffffffffffffffffffffffffffffff1673ffffffffffffffffffffffffffffffffffffffff1681526020019081526020016000206040518060600160405290816000820160009054906101000a900460ff161515151581526020016000820160019054906101000a900460ff16151515158152602001600182015481525050905090565b610eec611482565b600460003373ffffffffffffffffffffffffffffffffffffffff1673ffffffffffffffffffffffffffffffffffffffff16815260200190815260200160002060000160009054906101000a900460ff16610f7b576040517f08c379a0000000000000000000000000000000000000000000000000000000008152600401610f72906119e0565b60405180910390fd5b600460008373ffffffffffffffffffffffffffffffffffffffff1673ffffffffffffffffffffffffffffffffffffffff1681526020019081526020016000206040518060600160405290816000820160009054906101000a900460ff161515151581526020016000820160019054906101000a900460ff161515151581526020016001820154815250509050919050565b61101461131e565b6002600581111561102857611027611709565b5b600260009054906101000a900460ff16600581111561104a57611049611709565b5b1461108a576040517f08c379a000000000000000000000000000000000000000000000000000000000815260040161108190612341565b60405180910390fd5b6003600260006101000a81548160ff021916908360058111156110b0576110af611709565b5b02179055507f0a97a4ee45751e2abf3e4fc8946939630b11b371ea8ae39ccdc3056e98f5cc3f600260036040516110e8929190612182565b60405180910390a1565b6110fa61131e565b600073ffffffffffffffffffffffffffffffffffffffff168173ffffffffffffffffffffffffffffffffffffffff1603611169576040517f08c379a0000000000000000000000000000000000000000000000000000000008152600401611160906123d3565b60405180910390fd5b6111728161139c565b50565b61117d61131e565b6000600581111561119157611190611709565b5b600260009054906101000a900460ff1660058111156111b3576111b2611709565b5b146111f3576040517f08c379a00000000000000000000000000000000000000000000000000000000081526004016111ea90612465565b60405180910390fd5b60011515600460008373ffffffffffffffffffffffffffffffffffffffff1673ffffffffffffffffffffffffffffffffffffffff16815260200190815260200160002060000160009054906101000a900460ff16151503611289576040517f08c379a0000000000000000000000000000000000000000000000000000000008152600401611280906124d1565b60405180910390fd5b6001600460008373ffffffffffffffffffffffffffffffffffffffff1673ffffffffffffffffffffffffffffffffffffffff16815260200190815260200160002060000160006101000a81548160ff0219169083151502179055507fb6be2187d059cc2a55fe29e0e503b566e1e0f8c8780096e185429350acffd3dd8160405161131391906116ee565b60405180910390a150565b611326611460565b73ffffffffffffffffffffffffffffffffffffffff1661134461095e565b73ffffffffffffffffffffffffffffffffffffffff161461139a576040517f08c379a00000000000000000000000000000000000000000000000000000000081526004016113919061253d565b60405180910390fd5b565b60008060009054906101000a900473ffffffffffffffffffffffffffffffffffffffff169050816000806101000a81548173ffffffffffffffffffffffffffffffffffffffff021916908373ffffffffffffffffffffffffffffffffffffffff1602179055508173ffffffffffffffffffffffffffffffffffffffff168173ffffffffffffffffffffffffffffffffffffffff167f8be0079c531659141344cd1fd0a4f28419497f9722a3daafe3b4186f6b6457e060405160405180910390a35050565b600033905090565b604051806040016040528060608152602001600081525090565b6040518060600160405280600015158152602001600015158152602001600081525090565b6000604051905090565b600080fd5b600080fd5b6000819050919050565b6114ce816114bb565b81146114d957600080fd5b50565b6000813590506114eb816114c5565b92915050565b600060208284031215611507576115066114b1565b5b6000611515848285016114dc565b91505092915050565b600080fd5b600080fd5b6000601f19601f8301169050919050565b7f4e487b7100000000000000000000000000000000000000000000000000000000600052604160045260246000fd5b61157182611528565b810181811067ffffffffffffffff821117156115905761158f611539565b5b80604052505050565b60006115a36114a7565b90506115af8282611568565b919050565b600067ffffffffffffffff8211156115cf576115ce611539565b5b6115d882611528565b9050602081019050919050565b82818337600083830152505050565b6000611607611602846115b4565b611599565b90508281526020810184848401111561162357611622611523565b5b61162e8482856115e5565b509392505050565b600082601f83011261164b5761164a61151e565b5b813561165b8482602086016115f4565b91505092915050565b60006020828403121561167a576116796114b1565b5b600082013567ffffffffffffffff811115611698576116976114b6565b5b6116a484828501611636565b91505092915050565b600073ffffffffffffffffffffffffffffffffffffffff82169050919050565b60006116d8826116ad565b9050919050565b6116e8816116cd565b82525050565b600060208201905061170360008301846116df565b92915050565b7f4e487b7100000000000000000000000000000000000000000000000000000000600052602160045260246000fd5b6006811061174957611748611709565b5b50565b600081905061175a82611738565b919050565b600061176a8261174c565b9050919050565b61177a8161175f565b82525050565b60006020820190506117956000830184611771565b92915050565b600081519050919050565b600082825260208201905092915050565b60005b838110156117d55780820151818401526020810190506117ba565b60008484015250505050565b60006117ec8261179b565b6117f681856117a6565b93506118068185602086016117b7565b61180f81611528565b840191505092915050565b611823816114bb565b82525050565b6000604083016000830151848203600086015261184682826117e1565b915050602083015161185b602086018261181a565b508091505092915050565b600060208201905081810360008301526118808184611829565b905092915050565b611891816114bb565b82525050565b60006020820190506118ac6000830184611888565b92915050565b60008115159050919050565b6118c7816118b2565b82525050565b6060820160008201516118e360008501826118be565b5060208201516118f660208501826118be565b506040820151611909604085018261181a565b50505050565b600060608201905061192460008301846118cd565b92915050565b611933816116cd565b811461193e57600080fd5b50565b6000813590506119508161192a565b92915050565b60006020828403121561196c5761196b6114b1565b5b600061197a84828501611941565b91505092915050565b600082825260208201905092915050565b7f596f75277265206e6f74206120766f7465720000000000000000000000000000600082015250565b60006119ca601283611983565b91506119d582611994565b602082019050919050565b600060208201905081810360008301526119f9816119bd565b9050919050565b7f566f74696e672073657373696f6e20686176656e74207374617274656420796560008201527f7400000000000000000000000000000000000000000000000000000000000000602082015250565b6000611a5c602183611983565b9150611a6782611a00565b604082019050919050565b60006020820190508181036000830152611a8b81611a4f565b9050919050565b7f596f75206861766520616c726561647920766f74656400000000000000000000600082015250565b6000611ac8601683611983565b9150611ad382611a92565b602082019050919050565b60006020820190508181036000830152611af781611abb565b9050919050565b7f50726f706f73616c206e6f7420666f756e640000000000000000000000000000600082015250565b6000611b34601283611983565b9150611b3f82611afe565b602082019050919050565b60006020820190508181036000830152611b6381611b27565b9050919050565b7f4e487b7100000000000000000000000000000000000000000000000000000000600052603260045260246000fd5b7f4e487b7100000000000000000000000000000000000000000000000000000000600052601160045260246000fd5b6000611bd3826114bb565b91507fffffffffffffffffffffffffffffffffffffffffffffffffffffffffffffffff8203611c0557611c04611b99565b5b600182019050919050565b6000604082019050611c2560008301856116df565b611c326020830184611888565b9392505050565b7f50726f706f73616c7320617265206e6f7420616c6c6f77656420796574000000600082015250565b6000611c6f601d83611983565b9150611c7a82611c39565b602082019050919050565b60006020820190508181036000830152611c9e81611c62565b9050919050565b50565b6000611cb5600083611983565b9150611cc082611ca5565b600082019050919050565b60006020820190508181036000830152611ce481611ca8565b9050919050565b6000611cf68261179b565b611d008185611983565b9350611d108185602086016117b7565b611d1981611528565b840191505092915050565b60006020820190508181036000830152611d3e8184611ceb565b905092915050565b7f566f7573206e6520706f7576657a20706173206e65207269656e2070726f706f60008201527f7365720000000000000000000000000000000000000000000000000000000000602082015250565b6000611da2602383611983565b9150611dad82611d46565b604082019050919050565b60006020820190508181036000830152611dd181611d95565b9050919050565b7f4e487b7100000000000000000000000000000000000000000000000000000000600052602260045260246000fd5b60006002820490506001821680611e1f57607f821691505b602082108103611e3257611e31611dd8565b5b50919050565b60008190508160005260206000209050919050565b60006020601f8301049050919050565b60008160020a8302905092915050565b600060088302611e9d7fffffffffffffffffffffffffffffffffffffffffffffffffffffffffffffffff82611e5d565b611ea78683611e5d565b95508019841693508086168417925050509392505050565b6000819050919050565b6000611ee4611edf611eda846114bb565b611ebf565b6114bb565b9050919050565b6000819050919050565b611efe83611ec9565b611f12611f0a82611eeb565b848454611e6d565b825550505050565b600090565b611f27611f1a565b611f32818484611ef5565b505050565b5b81811015611f5657611f4b600082611f1f565b600181019050611f38565b5050565b601f821115611f9b57611f6c81611e38565b611f7584611e4d565b81016020851015611f84578190505b611f98611f9085611e4d565b830182611f37565b50505b505050565b60008160020a8304905092915050565b6000611fc160001984600802611fa0565b1980831691505092915050565b6000611fda8383611fb0565b9150826002028217905092915050565b611ff38261179b565b67ffffffffffffffff81111561200c5761200b611539565b5b6120168254611e07565b612021828285611f5a565b600060209050601f8311600181146120545760008415612042578287015190505b61204c8582611fce565b8655506120b4565b601f19841661206286611e38565b60005b8281101561208a57848901518255600182019150602085019450602081019050612065565b868310156120a757848901516120a3601f891682611fb0565b8355505b6001600288020188555050505b505050505050565b60006120c7826114bb565b91506120d2836114bb565b92508282039050818111156120ea576120e9611b99565b5b92915050565b7f43757272656e7420737461747573206973206e6f7420766f74696e672073657360008201527f73696f6e20656e64656400000000000000000000000000000000000000000000602082015250565b600061214c602a83611983565b9150612157826120f0565b604082019050919050565b6000602082019050818103600083015261217b8161213f565b9050919050565b60006040820190506121976000830185611771565b6121a46020830184611771565b9392505050565b7f5265676973746572696e672070726f706f73616c732063616e7420626520737460008201527f6172746564206e6f770000000000000000000000000000000000000000000000602082015250565b6000612207602983611983565b9150612212826121ab565b604082019050919050565b60006020820190508181036000830152612236816121fa565b9050919050565b7f5265676973746572696e672070726f706f73616c7320686176656e742073746160008201527f7274656420796574000000000000000000000000000000000000000000000000602082015250565b6000612299602883611983565b91506122a48261223d565b604082019050919050565b600060208201905081810360008301526122c88161228c565b9050919050565b7f5265676973746572696e672070726f706f73616c73207068617365206973206e60008201527f6f742066696e6973686564000000000000000000000000000000000000000000602082015250565b600061232b602b83611983565b9150612336826122cf565b604082019050919050565b6000602082019050818103600083015261235a8161231e565b9050919050565b7f4f776e61626c653a206e6577206f776e657220697320746865207a65726f206160008201527f6464726573730000000000000000000000000000000000000000000000000000602082015250565b60006123bd602683611983565b91506123c882612361565b604082019050919050565b600060208201905081810360008301526123ec816123b0565b9050919050565b7f566f7465727320726567697374726174696f6e206973206e6f74206f70656e2060008201527f7965740000000000000000000000000000000000000000000000000000000000602082015250565b600061244f602383611983565b915061245a826123f3565b604082019050919050565b6000602082019050818103600083015261247e81612442565b9050919050565b7f416c726561647920726567697374657265640000000000000000000000000000600082015250565b60006124bb601283611983565b91506124c682612485565b602082019050919050565b600060208201905081810360008301526124ea816124ae565b9050919050565b7f4f776e61626c653a2063616c6c6572206973206e6f7420746865206f776e6572600082015250565b6000612527602083611983565b9150612532826124f1565b602082019050919050565b600060208201905081810360008301526125568161251a565b905091905056fea26469706673582212200230f1b40978158e58f4b04654546ae0275fddef61808929e4c696a38cc0139264736f6c63430008110033",
  "immutableReferences": {},
  "source": "// SPDX-License-Identifier: MIT\n\npragma solidity 0.8.17;\nimport \"@openzeppelin/contracts/access/Ownable.sol\";\n\n/**\n * @title A linear voting system\n * @author @lecascyril\n * @notice the owner facilitates the voting sessions. voters make proposals and vote for their favorite.\n * @dev One contract action is possible per voting session.\n */\ncontract Voting is Ownable {\n    uint256 public winningProposalID;\n\n    struct Voter {\n        bool isRegistered;\n        bool hasVoted;\n        uint256 votedProposalId;\n    }\n\n    struct Proposal {\n        string description;\n        uint256 voteCount;\n    }\n\n    enum WorkflowStatus {\n        RegisteringVoters,\n        ProposalsRegistrationStarted,\n        ProposalsRegistrationEnded,\n        VotingSessionStarted,\n        VotingSessionEnded,\n        VotesTallied\n    }\n\n    WorkflowStatus public workflowStatus;\n    Proposal[] proposalsArray;\n    mapping(address => Voter) voters;\n\n    event VoterRegistered(address voterAddress);\n    event WorkflowStatusChange(\n        WorkflowStatus previousStatus,\n        WorkflowStatus newStatus\n    );\n    event ProposalRegistered(uint256 proposalId);\n    event Voted(address voter, uint256 proposalId);\n\n    /** */\n    modifier onlyVoters() {\n        require(voters[msg.sender].isRegistered, \"You're not a voter\");\n        _;\n    }\n\n    // ::::::::::::: GETTERS ::::::::::::: //\n    /**\n     * @notice Get self as voter\n     * @dev Getter on voters mapping\n     * @return Voter object\n     */\n    function me() external view returns (Voter memory) {\n        return voters[msg.sender];\n    }\n\n    /**\n     * @notice Get one Voter\n     * @dev Getter on voters mapping\n     * @param _addr The address of registered voter\n     * @return Voter object\n     */\n    function getVoter(address _addr)\n        external\n        view\n        onlyVoters\n        returns (Voter memory)\n    {\n        return voters[_addr];\n    }\n\n    /**\n     * @notice Get one proposal\n     * @dev Explicit getter on voters array\n     * @param _id The id of proposal\n     * @return Proposal object\n     */\n    function getOneProposal(uint256 _id)\n        external\n        view\n        onlyVoters\n        returns (Proposal memory)\n    {\n        return proposalsArray[_id];\n    }\n\n    // ::::::::::::: REGISTRATION ::::::::::::: //\n\n    /**\n     * @notice Owner Add a voter at RegisteringVoters session\n     * @dev add a voter with his address and give him the right to vote\n     * @param _addr The address of voter\n     */\n    function addVoter(address _addr) external onlyOwner {\n        require(\n            workflowStatus == WorkflowStatus.RegisteringVoters,\n            \"Voters registration is not open yet\"\n        );\n        require(voters[_addr].isRegistered != true, \"Already registered\");\n\n        voters[_addr].isRegistered = true;\n        emit VoterRegistered(_addr);\n    }\n\n    // ::::::::::::: PROPOSAL ::::::::::::: //\n\n    /**\n     * @notice Voters Add a proposal at ProposalsRegistrationStarted session\n     * @param _desc The proposal description of registered voter\n     */\n    function addProposal(string memory _desc) external onlyVoters {\n        require(\n            workflowStatus == WorkflowStatus.ProposalsRegistrationStarted,\n            \"Proposals are not allowed yet\"\n        );\n        require(\n            keccak256(abi.encode(_desc)) != keccak256(abi.encode(\"\")),\n            \"Vous ne pouvez pas ne rien proposer\"\n        );\n\n        Proposal memory proposal;\n        proposal.description = _desc;\n        proposalsArray.push(proposal);\n        emit ProposalRegistered(proposalsArray.length - 1);\n    }\n\n    // ::::::::::::: VOTE ::::::::::::: //\n\n    /**\n     * @notice Voters vote once for a a proposal at VotingSessionStarted session\n     * @dev Register the proposal id in voter object\n     * @param _id The id of proposal\n     */\n    function setVote(uint256 _id) external onlyVoters {\n        require(\n            workflowStatus == WorkflowStatus.VotingSessionStarted,\n            \"Voting session havent started yet\"\n        );\n        require(voters[msg.sender].hasVoted != true, \"You have already voted\");\n        require(_id < proposalsArray.length, \"Proposal not found\");\n\n        voters[msg.sender].votedProposalId = _id;\n        voters[msg.sender].hasVoted = true;\n        proposalsArray[_id].voteCount++;\n\n        emit Voted(msg.sender, _id);\n    }\n\n    // ::::::::::::: STATE ::::::::::::: //\n\n    /**\n     * @notice Owner set session to ProposalsRegistrationStarted after Registering\n     * @dev A proposal GENESIS created to skip side effect with all not participating voters\n     */\n    function startProposalsRegistering() external onlyOwner {\n        require(\n            workflowStatus == WorkflowStatus.RegisteringVoters,\n            \"Registering proposals cant be started now\"\n        );\n        workflowStatus = WorkflowStatus.ProposalsRegistrationStarted;\n\n        Proposal memory proposal;\n        proposal.description = \"GENESIS\";\n        proposalsArray.push(proposal);\n\n        emit WorkflowStatusChange(\n            WorkflowStatus.RegisteringVoters,\n            WorkflowStatus.ProposalsRegistrationStarted\n        );\n    }\n\n    /**\n     * @notice Owner set session to ProposalsRegistrationEnded after ProposalsRegistrationStarted\n     */\n    function endProposalsRegistering() external onlyOwner {\n        require(\n            workflowStatus == WorkflowStatus.ProposalsRegistrationStarted,\n            \"Registering proposals havent started yet\"\n        );\n        workflowStatus = WorkflowStatus.ProposalsRegistrationEnded;\n        emit WorkflowStatusChange(\n            WorkflowStatus.ProposalsRegistrationStarted,\n            WorkflowStatus.ProposalsRegistrationEnded\n        );\n    }\n\n    /**\n     * @notice Owner set session to VotingSessionStarted after ProposalsRegistrationEnded\n     */\n    function startVotingSession() external onlyOwner {\n        require(\n            workflowStatus == WorkflowStatus.ProposalsRegistrationEnded,\n            \"Registering proposals phase is not finished\"\n        );\n        workflowStatus = WorkflowStatus.VotingSessionStarted;\n        emit WorkflowStatusChange(\n            WorkflowStatus.ProposalsRegistrationEnded,\n            WorkflowStatus.VotingSessionStarted\n        );\n    }\n\n    /**\n     * @notice Owner set session to VotingSessionEnded after VotingSessionStarted\n     */\n    function endVotingSession() external onlyOwner {\n        require(\n            workflowStatus == WorkflowStatus.VotingSessionStarted,\n            \"Voting session havent started yet\"\n        );\n        workflowStatus = WorkflowStatus.VotingSessionEnded;\n        emit WorkflowStatusChange(\n            WorkflowStatus.VotingSessionStarted,\n            WorkflowStatus.VotingSessionEnded\n        );\n    }\n\n    /**\n     * @notice Owner calculate winner after VotingSessionEnded\n     * @dev the highest number of votes for a proposal wins\n     */\n    function tallyVotes() external onlyOwner {\n        require(\n            workflowStatus == WorkflowStatus.VotingSessionEnded,\n            \"Current status is not voting session ended\"\n        );\n        uint256 _winningProposalId;\n        for (uint256 p = 0; p < proposalsArray.length; p++) {\n            if (\n                proposalsArray[p].voteCount >\n                proposalsArray[_winningProposalId].voteCount\n            ) {\n                _winningProposalId = p;\n            }\n        }\n        winningProposalID = _winningProposalId;\n\n        workflowStatus = WorkflowStatus.VotesTallied;\n        emit WorkflowStatusChange(\n            WorkflowStatus.VotingSessionEnded,\n            WorkflowStatus.VotesTallied\n        );\n    }\n}\n",
  "sourcePath": "C:\\Users\\ramad\\Documents\\Developpeur-Ethereum-Template\\6. Dapp\\truffle\\contracts\\voting.sol",
  "compiler": {
    "name": "solc",
    "version": "0.8.17+commit.8df45f5f.Emscripten.clang"
  },
  "schemaVersion": "3.4.10",
  "updatedAt": "2022-11-16T08:39:46.643Z",
  "networkType": "ethereum",
  "devdoc": {
    "author": "@lecascyril",
    "details": "One contract action is possible per voting session.",
    "kind": "dev",
    "methods": {
      "addProposal(string)": {
        "params": {
          "_desc": "The proposal description of registered voter"
        }
      },
      "addVoter(address)": {
        "details": "add a voter with his address and give him the right to vote",
        "params": {
          "_addr": "The address of voter"
        }
      },
      "getOneProposal(uint256)": {
        "details": "Explicit getter on voters array",
        "params": {
          "_id": "The id of proposal"
        },
        "returns": {
          "_0": "Proposal object"
        }
      },
      "getVoter(address)": {
        "details": "Getter on voters mapping",
        "params": {
          "_addr": "The address of registered voter"
        },
        "returns": {
          "_0": "Voter object"
        }
      },
      "me()": {
        "details": "Getter on voters mapping",
        "returns": {
          "_0": "Voter object"
        }
      },
      "owner()": {
        "details": "Returns the address of the current owner."
      },
      "renounceOwnership()": {
        "details": "Leaves the contract without owner. It will not be possible to call `onlyOwner` functions anymore. Can only be called by the current owner. NOTE: Renouncing ownership will leave the contract without an owner, thereby removing any functionality that is only available to the owner."
      },
      "setVote(uint256)": {
        "details": "Register the proposal id in voter object",
        "params": {
          "_id": "The id of proposal"
        }
      },
      "startProposalsRegistering()": {
        "details": "A proposal GENESIS created to skip side effect with all not participating voters"
      },
      "tallyVotes()": {
        "details": "the highest number of votes for a proposal wins"
      },
      "transferOwnership(address)": {
        "details": "Transfers ownership of the contract to a new account (`newOwner`). Can only be called by the current owner."
      }
    },
    "title": "A linear voting system",
    "version": 1
  },
  "userdoc": {
    "kind": "user",
    "methods": {
      "addProposal(string)": {
        "notice": "Voters Add a proposal at ProposalsRegistrationStarted session"
      },
      "addVoter(address)": {
        "notice": "Owner Add a voter at RegisteringVoters session"
      },
      "endProposalsRegistering()": {
        "notice": "Owner set session to ProposalsRegistrationEnded after ProposalsRegistrationStarted"
      },
      "endVotingSession()": {
        "notice": "Owner set session to VotingSessionEnded after VotingSessionStarted"
      },
      "getOneProposal(uint256)": {
        "notice": "Get one proposal"
      },
      "getVoter(address)": {
        "notice": "Get one Voter"
      },
      "me()": {
        "notice": "Get self as voter"
      },
      "setVote(uint256)": {
        "notice": "Voters vote once for a a proposal at VotingSessionStarted session"
      },
      "startProposalsRegistering()": {
        "notice": "Owner set session to ProposalsRegistrationStarted after Registering"
      },
      "startVotingSession()": {
        "notice": "Owner set session to VotingSessionStarted after ProposalsRegistrationEnded"
      },
      "tallyVotes()": {
        "notice": "Owner calculate winner after VotingSessionEnded"
      }
    },
    "notice": "the owner facilitates the voting sessions. voters make proposals and vote for their favorite.",
    "version": 1
  }
}