{
  "contractName": "Voting",
  "abi": [
    {
      "anonymous": false,
      "inputs": [
        {
          "indexed": true,
          "internalType": "address",
          "name": "previousOwner",
          "type": "address"
        },
        {
          "indexed": true,
          "internalType": "address",
          "name": "newOwner",
          "type": "address"
        }
      ],
      "name": "OwnershipTransferred",
      "type": "event"
    },
    {
      "anonymous": false,
      "inputs": [
        {
          "indexed": false,
          "internalType": "uint256",
          "name": "proposalId",
          "type": "uint256"
        }
      ],
      "name": "ProposalRegistered",
      "type": "event"
    },
    {
      "anonymous": false,
      "inputs": [
        {
          "indexed": false,
          "internalType": "address",
          "name": "voter",
          "type": "address"
        },
        {
          "indexed": false,
          "internalType": "uint256",
          "name": "proposalId",
          "type": "uint256"
        }
      ],
      "name": "Voted",
      "type": "event"
    },
    {
      "anonymous": false,
      "inputs": [
        {
          "indexed": false,
          "internalType": "address",
          "name": "voterAddress",
          "type": "address"
        }
      ],
      "name": "VoterRegistered",
      "type": "event"
    },
    {
      "anonymous": false,
      "inputs": [
        {
          "indexed": false,
          "internalType": "enum Voting.WorkflowStatus",
          "name": "previousStatus",
          "type": "uint8"
        },
        {
          "indexed": false,
          "internalType": "enum Voting.WorkflowStatus",
          "name": "newStatus",
          "type": "uint8"
        }
      ],
      "name": "WorkflowStatusChange",
      "type": "event"
    },
    {
      "inputs": [],
      "name": "nbVoters",
      "outputs": [
        {
          "internalType": "uint256",
          "name": "",
          "type": "uint256"
        }
      ],
      "stateMutability": "view",
      "type": "function",
      "constant": true
    },
    {
      "inputs": [],
      "name": "owner",
      "outputs": [
        {
          "internalType": "address",
          "name": "",
          "type": "address"
        }
      ],
      "stateMutability": "view",
      "type": "function",
      "constant": true
    },
    {
      "inputs": [],
      "name": "renounceOwnership",
      "outputs": [],
      "stateMutability": "nonpayable",
      "type": "function"
    },
    {
      "inputs": [
        {
          "internalType": "address",
          "name": "newOwner",
          "type": "address"
        }
      ],
      "name": "transferOwnership",
      "outputs": [],
      "stateMutability": "nonpayable",
      "type": "function"
    },
    {
      "inputs": [],
      "name": "winningProposalID",
      "outputs": [
        {
          "internalType": "uint256",
          "name": "",
          "type": "uint256"
        }
      ],
      "stateMutability": "view",
      "type": "function",
      "constant": true
    },
    {
      "inputs": [],
      "name": "workflowStatus",
      "outputs": [
        {
          "internalType": "enum Voting.WorkflowStatus",
          "name": "",
          "type": "uint8"
        }
      ],
      "stateMutability": "view",
      "type": "function",
      "constant": true
    },
    {
      "inputs": [],
      "name": "me",
      "outputs": [
        {
          "components": [
            {
              "internalType": "bool",
              "name": "isRegistered",
              "type": "bool"
            },
            {
              "internalType": "bool",
              "name": "hasVoted",
              "type": "bool"
            },
            {
              "internalType": "uint256",
              "name": "votedProposalId",
              "type": "uint256"
            }
          ],
          "internalType": "struct Voting.Voter",
          "name": "",
          "type": "tuple"
        }
      ],
      "stateMutability": "view",
      "type": "function",
      "constant": true
    },
    {
      "inputs": [
        {
          "internalType": "address",
          "name": "_addr",
          "type": "address"
        }
      ],
      "name": "getVoter",
      "outputs": [
        {
          "components": [
            {
              "internalType": "bool",
              "name": "isRegistered",
              "type": "bool"
            },
            {
              "internalType": "bool",
              "name": "hasVoted",
              "type": "bool"
            },
            {
              "internalType": "uint256",
              "name": "votedProposalId",
              "type": "uint256"
            }
          ],
          "internalType": "struct Voting.Voter",
          "name": "",
          "type": "tuple"
        }
      ],
      "stateMutability": "view",
      "type": "function",
      "constant": true
    },
    {
      "inputs": [],
      "name": "getProposals",
      "outputs": [
        {
          "components": [
            {
              "internalType": "string",
              "name": "description",
              "type": "string"
            },
            {
              "internalType": "uint256",
              "name": "voteCount",
              "type": "uint256"
            }
          ],
          "internalType": "struct Voting.Proposal[]",
          "name": "",
          "type": "tuple[]"
        }
      ],
      "stateMutability": "view",
      "type": "function",
      "constant": true
    },
    {
      "inputs": [
        {
          "internalType": "uint256",
          "name": "_id",
          "type": "uint256"
        }
      ],
      "name": "getOneProposal",
      "outputs": [
        {
          "components": [
            {
              "internalType": "string",
              "name": "description",
              "type": "string"
            },
            {
              "internalType": "uint256",
              "name": "voteCount",
              "type": "uint256"
            }
          ],
          "internalType": "struct Voting.Proposal",
          "name": "",
          "type": "tuple"
        }
      ],
      "stateMutability": "view",
      "type": "function",
      "constant": true
    },
    {
      "inputs": [
        {
          "internalType": "address",
          "name": "_addr",
          "type": "address"
        }
      ],
      "name": "addVoter",
      "outputs": [],
      "stateMutability": "nonpayable",
      "type": "function"
    },
    {
      "inputs": [
        {
          "internalType": "string",
          "name": "_desc",
          "type": "string"
        }
      ],
      "name": "addProposal",
      "outputs": [],
      "stateMutability": "nonpayable",
      "type": "function"
    },
    {
      "inputs": [
        {
          "internalType": "uint256",
          "name": "_id",
          "type": "uint256"
        }
      ],
      "name": "setVote",
      "outputs": [],
      "stateMutability": "nonpayable",
      "type": "function"
    },
    {
      "inputs": [],
      "name": "startProposalsRegistering",
      "outputs": [],
      "stateMutability": "nonpayable",
      "type": "function"
    },
    {
      "inputs": [],
      "name": "endProposalsRegistering",
      "outputs": [],
      "stateMutability": "nonpayable",
      "type": "function"
    },
    {
      "inputs": [],
      "name": "startVotingSession",
      "outputs": [],
      "stateMutability": "nonpayable",
      "type": "function"
    },
    {
      "inputs": [],
      "name": "endVotingSession",
      "outputs": [],
      "stateMutability": "nonpayable",
      "type": "function"
    },
    {
      "inputs": [],
      "name": "tallyVotes",
      "outputs": [],
      "stateMutability": "nonpayable",
      "type": "function"
    }
  ],
  "bytecode": "0x60806040523480156200001157600080fd5b50620000446200002f6200004a640100000000026401000000009004565b62000052640100000000026401000000009004565b62000116565b600033905090565b60008060009054906101000a900473ffffffffffffffffffffffffffffffffffffffff169050816000806101000a81548173ffffffffffffffffffffffffffffffffffffffff021916908373ffffffffffffffffffffffffffffffffffffffff1602179055508173ffffffffffffffffffffffffffffffffffffffff168173ffffffffffffffffffffffffffffffffffffffff167f8be0079c531659141344cd1fd0a4f28419497f9722a3daafe3b4186f6b6457e060405160405180910390a35050565b6128ae80620001266000396000f3fe608060405234801561001057600080fd5b5060043610610133576000357c010000000000000000000000000000000000000000000000000000000090048063bdc01431116100bf578063cb12b48f1161008e578063cb12b48f14610268578063d4f50f9814610286578063ee74c678146102b6578063f2fde38b146102c0578063f4ab9adf146102dc57610133565b8063bdc0143114610218578063bfcddbbc14610236578063c7038a4e14610254578063c88af42f1461025e57610133565b8063715018a611610106578063715018a6146101985780638da5cb5b146101a2578063a1edffa2146101c0578063a2788cce146101de578063a7bfab161461020e57610133565b8063230796ae146101385780632fdae3c514610154578063378a21781461017057806362564c481461017a575b600080fd5b610152600480360381019061014d91906116eb565b6102f8565b005b61016e6004803603810190610169919061185e565b6105f3565b005b61017861082f565b005b61018261099c565b60405161018f9190611a34565b60405180910390f35b6101a0610b26565b005b6101aa610b3a565b6040516101b79190611a97565b60405180910390f35b6101c8610b63565b6040516101d59190611b29565b60405180910390f35b6101f860048036038101906101f391906116eb565b610b76565b6040516102059190611b81565b60405180910390f35b610216610cdd565b005b610220610dc3565b60405161022d9190611bb2565b60405180910390f35b61023e610dc9565b60405161024b9190611bb2565b60405180910390f35b61025c610dcf565b005b610266610f4a565b005b610270611030565b60405161027d9190611c2a565b60405180910390f35b6102a0600480360381019061029b9190611c71565b6110c7565b6040516102ad9190611c2a565b60405180910390f35b6102be6111ef565b005b6102da60048036038101906102d59190611c71565b6112d4565b005b6102f660048036038101906102f19190611c71565b611357565b005b600560003373ffffffffffffffffffffffffffffffffffffffff1673ffffffffffffffffffffffffffffffffffffffff16815260200190815260200160002060000160009054906101000a900460ff16610387576040517f08c379a000000000000000000000000000000000000000000000000000000000815260040161037e90611cfb565b60405180910390fd5b6003600581111561039b5761039a611ab2565b5b600360009054906101000a900460ff1660058111156103bd576103bc611ab2565b5b146103fd576040517f08c379a00000000000000000000000000000000000000000000000000000000081526004016103f490611d8d565b60405180910390fd5b60011515600560003373ffffffffffffffffffffffffffffffffffffffff1673ffffffffffffffffffffffffffffffffffffffff16815260200190815260200160002060000160019054906101000a900460ff16151503610493576040517f08c379a000000000000000000000000000000000000000000000000000000000815260040161048a90611df9565b60405180910390fd5b60048054905081106104da576040517f08c379a00000000000000000000000000000000000000000000000000000000081526004016104d190611e65565b60405180910390fd5b80600560003373ffffffffffffffffffffffffffffffffffffffff1673ffffffffffffffffffffffffffffffffffffffff168152602001908152602001600020600101819055506001600560003373ffffffffffffffffffffffffffffffffffffffff1673ffffffffffffffffffffffffffffffffffffffff16815260200190815260200160002060000160016101000a81548160ff021916908315150217905550600481815481106105905761058f611e85565b5b906000526020600020906002020160010160008154809291906105b290611ee3565b91905055507f4d99b957a2bc29a30ebd96a7be8e68fe50a3c701db28a91436490b7d53870ca433826040516105e8929190611f2b565b60405180910390a150565b600560003373ffffffffffffffffffffffffffffffffffffffff1673ffffffffffffffffffffffffffffffffffffffff16815260200190815260200160002060000160009054906101000a900460ff16610682576040517f08c379a000000000000000000000000000000000000000000000000000000000815260040161067990611cfb565b60405180910390fd5b6001600581111561069657610695611ab2565b5b600360009054906101000a900460ff1660058111156106b8576106b7611ab2565b5b146106f8576040517f08c379a00000000000000000000000000000000000000000000000000000000081526004016106ef90611fa0565b60405180910390fd5b60405160200161070790611fe6565b604051602081830303815290604052805190602001208160405160200161072e919061203f565b6040516020818303038152906040528051906020012003610784576040517f08c379a000000000000000000000000000000000000000000000000000000000815260040161077b906120d3565b60405180910390fd5b61078c611662565b818160000181905250600481908060018154018082558091505060019003906000526020600020906002020160009091909190915060008201518160000190816107d69190612305565b506020820151816001015550507f92e393e9b54e2f801d3ea4beb0c5e71a21cc34a5d34b77d0fb8a3aa1650dc18f600160048054905061081691906123d7565b6040516108239190611bb2565b60405180910390a15050565b610837611518565b6004600581111561084b5761084a611ab2565b5b600360009054906101000a900460ff16600581111561086d5761086c611ab2565b5b146108ad576040517f08c379a00000000000000000000000000000000000000000000000000000000081526004016108a49061247d565b60405180910390fd5b600080600090505b60048054905081101561092b57600482815481106108d6576108d5611e85565b5b906000526020600020906002020160010154600482815481106108fc576108fb611e85565b5b9060005260206000209060020201600101541115610918578091505b808061092390611ee3565b9150506108b5565b50806001819055506005600360006101000a81548160ff0219169083600581111561095957610958611ab2565b5b02179055507f0a97a4ee45751e2abf3e4fc8946939630b11b371ea8ae39ccdc3056e98f5cc3f6004600560405161099192919061249d565b60405180910390a150565b6060600560003373ffffffffffffffffffffffffffffffffffffffff1673ffffffffffffffffffffffffffffffffffffffff16815260200190815260200160002060000160009054906101000a900460ff16610a2d576040517f08c379a0000000000000000000000000000000000000000000000000000000008152600401610a2490611cfb565b60405180910390fd5b6004805480602002602001604051908101604052809291908181526020016000905b82821015610b1d5783829060005260206000209060020201604051806040016040529081600082018054610a8290612122565b80601f0160208091040260200160405190810160405280929190818152602001828054610aae90612122565b8015610afb5780601f10610ad057610100808354040283529160200191610afb565b820191906000526020600020905b815481529060010190602001808311610ade57829003601f168201915b5050505050815260200160018201548152505081526020019060010190610a4f565b50505050905090565b610b2e611518565b610b386000611596565b565b60008060009054906101000a900473ffffffffffffffffffffffffffffffffffffffff16905090565b600360009054906101000a900460ff1681565b610b7e611662565b600560003373ffffffffffffffffffffffffffffffffffffffff1673ffffffffffffffffffffffffffffffffffffffff16815260200190815260200160002060000160009054906101000a900460ff16610c0d576040517f08c379a0000000000000000000000000000000000000000000000000000000008152600401610c0490611cfb565b60405180910390fd5b60048281548110610c2157610c20611e85565b5b9060005260206000209060020201604051806040016040529081600082018054610c4a90612122565b80601f0160208091040260200160405190810160405280929190818152602001828054610c7690612122565b8015610cc35780601f10610c9857610100808354040283529160200191610cc3565b820191906000526020600020905b815481529060010190602001808311610ca657829003601f168201915b505050505081526020016001820154815250509050919050565b610ce5611518565b60036005811115610cf957610cf8611ab2565b5b600360009054906101000a900460ff166005811115610d1b57610d1a611ab2565b5b14610d5b576040517f08c379a0000000000000000000000000000000000000000000000000000000008152600401610d5290611d8d565b60405180910390fd5b6004600360006101000a81548160ff02191690836005811115610d8157610d80611ab2565b5b02179055507f0a97a4ee45751e2abf3e4fc8946939630b11b371ea8ae39ccdc3056e98f5cc3f60036004604051610db992919061249d565b60405180910390a1565b60015481565b60025481565b610dd7611518565b60006005811115610deb57610dea611ab2565b5b600360009054906101000a900460ff166005811115610e0d57610e0c611ab2565b5b14610e4d576040517f08c379a0000000000000000000000000000000000000000000000000000000008152600401610e4490612538565b60405180910390fd5b6001600360006101000a81548160ff02191690836005811115610e7357610e72611ab2565b5b0217905550610e80611662565b6040518060400160405280600781526020017f47454e4553495300000000000000000000000000000000000000000000000000815250816000018190525060048190806001815401808255809150506001900390600052602060002090600202016000909190919091506000820151816000019081610eff9190612305565b506020820151816001015550507f0a97a4ee45751e2abf3e4fc8946939630b11b371ea8ae39ccdc3056e98f5cc3f60006001604051610f3f92919061249d565b60405180910390a150565b610f52611518565b60016005811115610f6657610f65611ab2565b5b600360009054906101000a900460ff166005811115610f8857610f87611ab2565b5b14610fc8576040517f08c379a0000000000000000000000000000000000000000000000000000000008152600401610fbf906125ca565b60405180910390fd5b6002600360006101000a81548160ff02191690836005811115610fee57610fed611ab2565b5b02179055507f0a97a4ee45751e2abf3e4fc8946939630b11b371ea8ae39ccdc3056e98f5cc3f6001600260405161102692919061249d565b60405180910390a1565b61103861167c565b600560003373ffffffffffffffffffffffffffffffffffffffff1673ffffffffffffffffffffffffffffffffffffffff1681526020019081526020016000206040518060600160405290816000820160009054906101000a900460ff161515151581526020016000820160019054906101000a900460ff16151515158152602001600182015481525050905090565b6110cf61167c565b600560003373ffffffffffffffffffffffffffffffffffffffff1673ffffffffffffffffffffffffffffffffffffffff16815260200190815260200160002060000160009054906101000a900460ff1661115e576040517f08c379a000000000000000000000000000000000000000000000000000000000815260040161115590611cfb565b60405180910390fd5b600560008373ffffffffffffffffffffffffffffffffffffffff1673ffffffffffffffffffffffffffffffffffffffff1681526020019081526020016000206040518060600160405290816000820160009054906101000a900460ff161515151581526020016000820160019054906101000a900460ff161515151581526020016001820154815250509050919050565b6111f7611518565b6002600581111561120b5761120a611ab2565b5b600360009054906101000a900460ff16600581111561122d5761122c611ab2565b5b1461126d576040517f08c379a00000000000000000000000000000000000000000000000000000000081526004016112649061265c565b60405180910390fd5b60038060006101000a81548160ff0219169083600581111561129257611291611ab2565b5b02179055507f0a97a4ee45751e2abf3e4fc8946939630b11b371ea8ae39ccdc3056e98f5cc3f600260036040516112ca92919061249d565b60405180910390a1565b6112dc611518565b600073ffffffffffffffffffffffffffffffffffffffff168173ffffffffffffffffffffffffffffffffffffffff160361134b576040517f08c379a0000000000000000000000000000000000000000000000000000000008152600401611342906126ee565b60405180910390fd5b61135481611596565b50565b61135f611518565b6000600581111561137357611372611ab2565b5b600360009054906101000a900460ff16600581111561139557611394611ab2565b5b146113d5576040517f08c379a00000000000000000000000000000000000000000000000000000000081526004016113cc90612780565b60405180910390fd5b60011515600560008373ffffffffffffffffffffffffffffffffffffffff1673ffffffffffffffffffffffffffffffffffffffff16815260200190815260200160002060000160009054906101000a900460ff1615150361146b576040517f08c379a0000000000000000000000000000000000000000000000000000000008152600401611462906127ec565b60405180910390fd5b6001600560008373ffffffffffffffffffffffffffffffffffffffff1673ffffffffffffffffffffffffffffffffffffffff16815260200190815260200160002060000160006101000a81548160ff021916908315150217905550600260008154809291906114d990611ee3565b91905055507fb6be2187d059cc2a55fe29e0e503b566e1e0f8c8780096e185429350acffd3dd8160405161150d9190611a97565b60405180910390a150565b61152061165a565b73ffffffffffffffffffffffffffffffffffffffff1661153e610b3a565b73ffffffffffffffffffffffffffffffffffffffff1614611594576040517f08c379a000000000000000000000000000000000000000000000000000000000815260040161158b90612858565b60405180910390fd5b565b60008060009054906101000a900473ffffffffffffffffffffffffffffffffffffffff169050816000806101000a81548173ffffffffffffffffffffffffffffffffffffffff021916908373ffffffffffffffffffffffffffffffffffffffff1602179055508173ffffffffffffffffffffffffffffffffffffffff168173ffffffffffffffffffffffffffffffffffffffff167f8be0079c531659141344cd1fd0a4f28419497f9722a3daafe3b4186f6b6457e060405160405180910390a35050565b600033905090565b604051806040016040528060608152602001600081525090565b6040518060600160405280600015158152602001600015158152602001600081525090565b6000604051905090565b600080fd5b600080fd5b6000819050919050565b6116c8816116b5565b81146116d357600080fd5b50565b6000813590506116e5816116bf565b92915050565b600060208284031215611701576117006116ab565b5b600061170f848285016116d6565b91505092915050565b600080fd5b600080fd5b6000601f19601f8301169050919050565b7f4e487b7100000000000000000000000000000000000000000000000000000000600052604160045260246000fd5b61176b82611722565b810181811067ffffffffffffffff8211171561178a57611789611733565b5b80604052505050565b600061179d6116a1565b90506117a98282611762565b919050565b600067ffffffffffffffff8211156117c9576117c8611733565b5b6117d282611722565b9050602081019050919050565b82818337600083830152505050565b60006118016117fc846117ae565b611793565b90508281526020810184848401111561181d5761181c61171d565b5b6118288482856117df565b509392505050565b600082601f83011261184557611844611718565b5b81356118558482602086016117ee565b91505092915050565b600060208284031215611874576118736116ab565b5b600082013567ffffffffffffffff811115611892576118916116b0565b5b61189e84828501611830565b91505092915050565b600081519050919050565b600082825260208201905092915050565b6000819050602082019050919050565b600081519050919050565b600082825260208201905092915050565b60005b8381101561190d5780820151818401526020810190506118f2565b60008484015250505050565b6000611924826118d3565b61192e81856118de565b935061193e8185602086016118ef565b61194781611722565b840191505092915050565b61195b816116b5565b82525050565b6000604083016000830151848203600086015261197e8282611919565b91505060208301516119936020860182611952565b508091505092915050565b60006119aa8383611961565b905092915050565b6000602082019050919050565b60006119ca826118a7565b6119d481856118b2565b9350836020820285016119e6856118c3565b8060005b85811015611a225784840389528151611a03858261199e565b9450611a0e836119b2565b925060208a019950506001810190506119ea565b50829750879550505050505092915050565b60006020820190508181036000830152611a4e81846119bf565b905092915050565b600073ffffffffffffffffffffffffffffffffffffffff82169050919050565b6000611a8182611a56565b9050919050565b611a9181611a76565b82525050565b6000602082019050611aac6000830184611a88565b92915050565b7f4e487b7100000000000000000000000000000000000000000000000000000000600052602160045260246000fd5b60068110611af257611af1611ab2565b5b50565b6000819050611b0382611ae1565b919050565b6000611b1382611af5565b9050919050565b611b2381611b08565b82525050565b6000602082019050611b3e6000830184611b1a565b92915050565b60006040830160008301518482036000860152611b618282611919565b9150506020830151611b766020860182611952565b508091505092915050565b60006020820190508181036000830152611b9b8184611b44565b905092915050565b611bac816116b5565b82525050565b6000602082019050611bc76000830184611ba3565b92915050565b60008115159050919050565b611be281611bcd565b82525050565b606082016000820151611bfe6000850182611bd9565b506020820151611c116020850182611bd9565b506040820151611c246040850182611952565b50505050565b6000606082019050611c3f6000830184611be8565b92915050565b611c4e81611a76565b8114611c5957600080fd5b50565b600081359050611c6b81611c45565b92915050565b600060208284031215611c8757611c866116ab565b5b6000611c9584828501611c5c565b91505092915050565b600082825260208201905092915050565b7f596f75277265206e6f74206120766f7465720000000000000000000000000000600082015250565b6000611ce5601283611c9e565b9150611cf082611caf565b602082019050919050565b60006020820190508181036000830152611d1481611cd8565b9050919050565b7f566f74696e672073657373696f6e20686176656e74207374617274656420796560008201527f7400000000000000000000000000000000000000000000000000000000000000602082015250565b6000611d77602183611c9e565b9150611d8282611d1b565b604082019050919050565b60006020820190508181036000830152611da681611d6a565b9050919050565b7f596f75206861766520616c726561647920766f74656400000000000000000000600082015250565b6000611de3601683611c9e565b9150611dee82611dad565b602082019050919050565b60006020820190508181036000830152611e1281611dd6565b9050919050565b7f50726f706f73616c206e6f7420666f756e640000000000000000000000000000600082015250565b6000611e4f601283611c9e565b9150611e5a82611e19565b602082019050919050565b60006020820190508181036000830152611e7e81611e42565b9050919050565b7f4e487b7100000000000000000000000000000000000000000000000000000000600052603260045260246000fd5b7f4e487b7100000000000000000000000000000000000000000000000000000000600052601160045260246000fd5b6000611eee826116b5565b91507fffffffffffffffffffffffffffffffffffffffffffffffffffffffffffffffff8203611f2057611f1f611eb4565b5b600182019050919050565b6000604082019050611f406000830185611a88565b611f4d6020830184611ba3565b9392505050565b7f50726f706f73616c7320617265206e6f7420616c6c6f77656420796574000000600082015250565b6000611f8a601d83611c9e565b9150611f9582611f54565b602082019050919050565b60006020820190508181036000830152611fb981611f7d565b9050919050565b50565b6000611fd0600083611c9e565b9150611fdb82611fc0565b600082019050919050565b60006020820190508181036000830152611fff81611fc3565b9050919050565b6000612011826118d3565b61201b8185611c9e565b935061202b8185602086016118ef565b61203481611722565b840191505092915050565b600060208201905081810360008301526120598184612006565b905092915050565b7f566f7573206e6520706f7576657a20706173206e65207269656e2070726f706f60008201527f7365720000000000000000000000000000000000000000000000000000000000602082015250565b60006120bd602383611c9e565b91506120c882612061565b604082019050919050565b600060208201905081810360008301526120ec816120b0565b9050919050565b7f4e487b7100000000000000000000000000000000000000000000000000000000600052602260045260246000fd5b6000600282049050600182168061213a57607f821691505b60208210810361214d5761214c6120f3565b5b50919050565b60008190508160005260206000209050919050565b60006020601f8301049050919050565b60008160020a8302905092915050565b6000600883026121b87fffffffffffffffffffffffffffffffffffffffffffffffffffffffffffffffff82612178565b6121c28683612178565b95508019841693508086168417925050509392505050565b6000819050919050565b60006121ff6121fa6121f5846116b5565b6121da565b6116b5565b9050919050565b6000819050919050565b612219836121e4565b61222d61222582612206565b848454612188565b825550505050565b600090565b612242612235565b61224d818484612210565b505050565b5b818110156122715761226660008261223a565b600181019050612253565b5050565b601f8211156122b65761228781612153565b61229084612168565b8101602085101561229f578190505b6122b36122ab85612168565b830182612252565b50505b505050565b60008160020a8304905092915050565b60006122dc600019846008026122bb565b1980831691505092915050565b60006122f583836122cb565b9150826002028217905092915050565b61230e826118d3565b67ffffffffffffffff81111561232757612326611733565b5b6123318254612122565b61233c828285612275565b600060209050601f83116001811461236f576000841561235d578287015190505b61236785826122e9565b8655506123cf565b601f19841661237d86612153565b60005b828110156123a557848901518255600182019150602085019450602081019050612380565b868310156123c257848901516123be601f8916826122cb565b8355505b6001600288020188555050505b505050505050565b60006123e2826116b5565b91506123ed836116b5565b925082820390508181111561240557612404611eb4565b5b92915050565b7f43757272656e7420737461747573206973206e6f7420766f74696e672073657360008201527f73696f6e20656e64656400000000000000000000000000000000000000000000602082015250565b6000612467602a83611c9e565b91506124728261240b565b604082019050919050565b600060208201905081810360008301526124968161245a565b9050919050565b60006040820190506124b26000830185611b1a565b6124bf6020830184611b1a565b9392505050565b7f5265676973746572696e672070726f706f73616c732063616e7420626520737460008201527f6172746564206e6f770000000000000000000000000000000000000000000000602082015250565b6000612522602983611c9e565b915061252d826124c6565b604082019050919050565b6000602082019050818103600083015261255181612515565b9050919050565b7f5265676973746572696e672070726f706f73616c7320686176656e742073746160008201527f7274656420796574000000000000000000000000000000000000000000000000602082015250565b60006125b4602883611c9e565b91506125bf82612558565b604082019050919050565b600060208201905081810360008301526125e3816125a7565b9050919050565b7f5265676973746572696e672070726f706f73616c73207068617365206973206e60008201527f6f742066696e6973686564000000000000000000000000000000000000000000602082015250565b6000612646602b83611c9e565b9150612651826125ea565b604082019050919050565b6000602082019050818103600083015261267581612639565b9050919050565b7f4f776e61626c653a206e6577206f776e657220697320746865207a65726f206160008201527f6464726573730000000000000000000000000000000000000000000000000000602082015250565b60006126d8602683611c9e565b91506126e38261267c565b604082019050919050565b60006020820190508181036000830152612707816126cb565b9050919050565b7f566f7465727320726567697374726174696f6e206973206e6f74206f70656e2060008201527f7965740000000000000000000000000000000000000000000000000000000000602082015250565b600061276a602383611c9e565b91506127758261270e565b604082019050919050565b600060208201905081810360008301526127998161275d565b9050919050565b7f416c726561647920726567697374657265640000000000000000000000000000600082015250565b60006127d6601283611c9e565b91506127e1826127a0565b602082019050919050565b60006020820190508181036000830152612805816127c9565b9050919050565b7f4f776e61626c653a2063616c6c6572206973206e6f7420746865206f776e6572600082015250565b6000612842602083611c9e565b915061284d8261280c565b602082019050919050565b6000602082019050818103600083015261287181612835565b905091905056fea26469706673582212204fca6b5226ff98fb2aa4f43504d7740f8a2157204c1c355297edfa5f7a5d1fa064736f6c63430008110033",
  "immutableReferences": {},
  "source": "// SPDX-License-Identifier: MIT\n\npragma solidity 0.8.17;\nimport \"@openzeppelin/contracts/access/Ownable.sol\";\n\n/**\n * @title A linear voting system\n * @author @lecascyril\n * @notice the owner facilitates the voting sessions. voters make proposals and vote for their favorite.\n * @dev One contract action is possible per voting session.\n */\ncontract Voting is Ownable {\n    uint256 public winningProposalID;\n    uint256 public nbVoters;\n\n    struct Voter {\n        bool isRegistered;\n        bool hasVoted;\n        uint256 votedProposalId;\n    }\n\n    struct Proposal {\n        string description;\n        uint256 voteCount;\n    }\n\n    enum WorkflowStatus {\n        RegisteringVoters,\n        ProposalsRegistrationStarted,\n        ProposalsRegistrationEnded,\n        VotingSessionStarted,\n        VotingSessionEnded,\n        VotesTallied\n    }\n\n    WorkflowStatus public workflowStatus;\n    Proposal[] proposalsArray;\n    mapping(address => Voter) voters;\n\n    event VoterRegistered(address voterAddress);\n    event WorkflowStatusChange(\n        WorkflowStatus previousStatus,\n        WorkflowStatus newStatus\n    );\n    event ProposalRegistered(uint256 proposalId);\n    event Voted(address voter, uint256 proposalId);\n\n    /** */\n    modifier onlyVoters() {\n        require(voters[msg.sender].isRegistered, \"You're not a voter\");\n        _;\n    }\n\n    // ::::::::::::: GETTERS ::::::::::::: //\n    /**\n     * @notice Get self as voter\n     * @dev Getter on voters mapping\n     * @return Voter object\n     */\n    function me() external view returns (Voter memory) {\n        return voters[msg.sender];\n    }\n\n    /**\n     * @notice Get one Voter\n     * @dev Getter on voters mapping\n     * @param _addr The address of registered voter\n     * @return Voter object\n     */\n    function getVoter(address _addr)\n        external\n        view\n        onlyVoters\n        returns (Voter memory)\n    {\n        return voters[_addr];\n    }\n\n    /**\n     * @notice Get list of proposals\n     * @dev Getter on proposal array\n     * @return Proposal[] proposalsArray\n     */\n    function getProposals()\n        external\n        view\n        onlyVoters\n        returns (Proposal[] memory)\n    {\n        return proposalsArray;\n    }\n\n    /**\n     * @notice Get one proposal\n     * @dev Explicit getter on voters array\n     * @param _id The id of proposal\n     * @return Proposal object\n     */\n    function getOneProposal(uint256 _id)\n        external\n        view\n        onlyVoters\n        returns (Proposal memory)\n    {\n        return proposalsArray[_id];\n    }\n\n    // ::::::::::::: REGISTRATION ::::::::::::: //\n\n    /**\n     * @notice Owner Add a voter at RegisteringVoters session\n     * @dev add a voter with his address and give him the right to vote\n     * @param _addr The address of voter\n     */\n    function addVoter(address _addr) external onlyOwner {\n        require(\n            workflowStatus == WorkflowStatus.RegisteringVoters,\n            \"Voters registration is not open yet\"\n        );\n        require(voters[_addr].isRegistered != true, \"Already registered\");\n\n        voters[_addr].isRegistered = true;\n        nbVoters++;\n        emit VoterRegistered(_addr);\n    }\n\n    // ::::::::::::: PROPOSAL ::::::::::::: //\n\n    /**\n     * @notice Voters Add a proposal at ProposalsRegistrationStarted session\n     * @param _desc The proposal description of registered voter\n     */\n    function addProposal(string memory _desc) external onlyVoters {\n        require(\n            workflowStatus == WorkflowStatus.ProposalsRegistrationStarted,\n            \"Proposals are not allowed yet\"\n        );\n        require(\n            keccak256(abi.encode(_desc)) != keccak256(abi.encode(\"\")),\n            \"Vous ne pouvez pas ne rien proposer\"\n        );\n\n        Proposal memory proposal;\n        proposal.description = _desc;\n        proposalsArray.push(proposal);\n        emit ProposalRegistered(proposalsArray.length - 1);\n    }\n\n    // ::::::::::::: VOTE ::::::::::::: //\n\n    /**\n     * @notice Voters vote once for a a proposal at VotingSessionStarted session\n     * @dev Register the proposal id in voter object\n     * @param _id The id of proposal\n     */\n    function setVote(uint256 _id) external onlyVoters {\n        require(\n            workflowStatus == WorkflowStatus.VotingSessionStarted,\n            \"Voting session havent started yet\"\n        );\n        require(voters[msg.sender].hasVoted != true, \"You have already voted\");\n        require(_id < proposalsArray.length, \"Proposal not found\");\n\n        voters[msg.sender].votedProposalId = _id;\n        voters[msg.sender].hasVoted = true;\n        proposalsArray[_id].voteCount++;\n\n        emit Voted(msg.sender, _id);\n    }\n\n    // ::::::::::::: STATE ::::::::::::: //\n\n    /**\n     * @notice Owner set session to ProposalsRegistrationStarted after Registering\n     * @dev A proposal GENESIS created to skip side effect with all not participating voters\n     */\n    function startProposalsRegistering() external onlyOwner {\n        require(\n            workflowStatus == WorkflowStatus.RegisteringVoters,\n            \"Registering proposals cant be started now\"\n        );\n        workflowStatus = WorkflowStatus.ProposalsRegistrationStarted;\n\n        Proposal memory proposal;\n        proposal.description = \"GENESIS\";\n        proposalsArray.push(proposal);\n\n        emit WorkflowStatusChange(\n            WorkflowStatus.RegisteringVoters,\n            WorkflowStatus.ProposalsRegistrationStarted\n        );\n    }\n\n    /**\n     * @notice Owner set session to ProposalsRegistrationEnded after ProposalsRegistrationStarted\n     */\n    function endProposalsRegistering() external onlyOwner {\n        require(\n            workflowStatus == WorkflowStatus.ProposalsRegistrationStarted,\n            \"Registering proposals havent started yet\"\n        );\n        workflowStatus = WorkflowStatus.ProposalsRegistrationEnded;\n        emit WorkflowStatusChange(\n            WorkflowStatus.ProposalsRegistrationStarted,\n            WorkflowStatus.ProposalsRegistrationEnded\n        );\n    }\n\n    /**\n     * @notice Owner set session to VotingSessionStarted after ProposalsRegistrationEnded\n     */\n    function startVotingSession() external onlyOwner {\n        require(\n            workflowStatus == WorkflowStatus.ProposalsRegistrationEnded,\n            \"Registering proposals phase is not finished\"\n        );\n        workflowStatus = WorkflowStatus.VotingSessionStarted;\n        emit WorkflowStatusChange(\n            WorkflowStatus.ProposalsRegistrationEnded,\n            WorkflowStatus.VotingSessionStarted\n        );\n    }\n\n    /**\n     * @notice Owner set session to VotingSessionEnded after VotingSessionStarted\n     */\n    function endVotingSession() external onlyOwner {\n        require(\n            workflowStatus == WorkflowStatus.VotingSessionStarted,\n            \"Voting session havent started yet\"\n        );\n        workflowStatus = WorkflowStatus.VotingSessionEnded;\n        emit WorkflowStatusChange(\n            WorkflowStatus.VotingSessionStarted,\n            WorkflowStatus.VotingSessionEnded\n        );\n    }\n\n    /**\n     * @notice Owner calculate winner after VotingSessionEnded\n     * @dev the highest number of votes for a proposal wins\n     */\n    function tallyVotes() external onlyOwner {\n        require(\n            workflowStatus == WorkflowStatus.VotingSessionEnded,\n            \"Current status is not voting session ended\"\n        );\n        uint256 _winningProposalId;\n        for (uint256 p = 0; p < proposalsArray.length; p++) {\n            if (\n                proposalsArray[p].voteCount >\n                proposalsArray[_winningProposalId].voteCount\n            ) {\n                _winningProposalId = p;\n            }\n        }\n        winningProposalID = _winningProposalId;\n\n        workflowStatus = WorkflowStatus.VotesTallied;\n        emit WorkflowStatusChange(\n            WorkflowStatus.VotingSessionEnded,\n            WorkflowStatus.VotesTallied\n        );\n    }\n}\n",
  "sourcePath": "C:\\Users\\ramad\\Documents\\Developpeur-Ethereum-Template\\6. Dapp\\truffle\\contracts\\voting.sol",
  "compiler": {
    "name": "solc",
    "version": "0.8.17+commit.8df45f5f.Emscripten.clang"
  },
  "schemaVersion": "3.4.10",
  "updatedAt": "2022-11-17T09:54:11.219Z",
  "networkType": "ethereum",
  "devdoc": {
    "author": "@lecascyril",
    "details": "One contract action is possible per voting session.",
    "kind": "dev",
    "methods": {
      "addProposal(string)": {
        "params": {
          "_desc": "The proposal description of registered voter"
        }
      },
      "addVoter(address)": {
        "details": "add a voter with his address and give him the right to vote",
        "params": {
          "_addr": "The address of voter"
        }
      },
      "getOneProposal(uint256)": {
        "details": "Explicit getter on voters array",
        "params": {
          "_id": "The id of proposal"
        },
        "returns": {
          "_0": "Proposal object"
        }
      },
      "getProposals()": {
        "details": "Getter on proposal array",
        "returns": {
          "_0": "Proposal[] proposalsArray"
        }
      },
      "getVoter(address)": {
        "details": "Getter on voters mapping",
        "params": {
          "_addr": "The address of registered voter"
        },
        "returns": {
          "_0": "Voter object"
        }
      },
      "me()": {
        "details": "Getter on voters mapping",
        "returns": {
          "_0": "Voter object"
        }
      },
      "owner()": {
        "details": "Returns the address of the current owner."
      },
      "renounceOwnership()": {
        "details": "Leaves the contract without owner. It will not be possible to call `onlyOwner` functions anymore. Can only be called by the current owner. NOTE: Renouncing ownership will leave the contract without an owner, thereby removing any functionality that is only available to the owner."
      },
      "setVote(uint256)": {
        "details": "Register the proposal id in voter object",
        "params": {
          "_id": "The id of proposal"
        }
      },
      "startProposalsRegistering()": {
        "details": "A proposal GENESIS created to skip side effect with all not participating voters"
      },
      "tallyVotes()": {
        "details": "the highest number of votes for a proposal wins"
      },
      "transferOwnership(address)": {
        "details": "Transfers ownership of the contract to a new account (`newOwner`). Can only be called by the current owner."
      }
    },
    "title": "A linear voting system",
    "version": 1
  },
  "userdoc": {
    "kind": "user",
    "methods": {
      "addProposal(string)": {
        "notice": "Voters Add a proposal at ProposalsRegistrationStarted session"
      },
      "addVoter(address)": {
        "notice": "Owner Add a voter at RegisteringVoters session"
      },
      "endProposalsRegistering()": {
        "notice": "Owner set session to ProposalsRegistrationEnded after ProposalsRegistrationStarted"
      },
      "endVotingSession()": {
        "notice": "Owner set session to VotingSessionEnded after VotingSessionStarted"
      },
      "getOneProposal(uint256)": {
        "notice": "Get one proposal"
      },
      "getProposals()": {
        "notice": "Get list of proposals"
      },
      "getVoter(address)": {
        "notice": "Get one Voter"
      },
      "me()": {
        "notice": "Get self as voter"
      },
      "setVote(uint256)": {
        "notice": "Voters vote once for a a proposal at VotingSessionStarted session"
      },
      "startProposalsRegistering()": {
        "notice": "Owner set session to ProposalsRegistrationStarted after Registering"
      },
      "startVotingSession()": {
        "notice": "Owner set session to VotingSessionStarted after ProposalsRegistrationEnded"
      },
      "tallyVotes()": {
        "notice": "Owner calculate winner after VotingSessionEnded"
      }
    },
    "notice": "the owner facilitates the voting sessions. voters make proposals and vote for their favorite.",
    "version": 1
  }
}