{
  "contractName": "Voting",
  "abi": [
    {
      "anonymous": false,
      "inputs": [
        {
          "indexed": true,
          "internalType": "address",
          "name": "previousOwner",
          "type": "address"
        },
        {
          "indexed": true,
          "internalType": "address",
          "name": "newOwner",
          "type": "address"
        }
      ],
      "name": "OwnershipTransferred",
      "type": "event"
    },
    {
      "anonymous": false,
      "inputs": [
        {
          "indexed": false,
          "internalType": "uint256",
          "name": "proposalId",
          "type": "uint256"
        }
      ],
      "name": "ProposalRegistered",
      "type": "event"
    },
    {
      "anonymous": false,
      "inputs": [
        {
          "indexed": false,
          "internalType": "address",
          "name": "voter",
          "type": "address"
        },
        {
          "indexed": false,
          "internalType": "uint256",
          "name": "proposalId",
          "type": "uint256"
        }
      ],
      "name": "Voted",
      "type": "event"
    },
    {
      "anonymous": false,
      "inputs": [
        {
          "indexed": false,
          "internalType": "address",
          "name": "voterAddress",
          "type": "address"
        }
      ],
      "name": "VoterRegistered",
      "type": "event"
    },
    {
      "anonymous": false,
      "inputs": [
        {
          "indexed": false,
          "internalType": "enum Voting.WorkflowStatus",
          "name": "previousStatus",
          "type": "uint8"
        },
        {
          "indexed": false,
          "internalType": "enum Voting.WorkflowStatus",
          "name": "newStatus",
          "type": "uint8"
        }
      ],
      "name": "WorkflowStatusChange",
      "type": "event"
    },
    {
      "inputs": [],
      "name": "nbVoters",
      "outputs": [
        {
          "internalType": "uint256",
          "name": "",
          "type": "uint256"
        }
      ],
      "stateMutability": "view",
      "type": "function",
      "constant": true
    },
    {
      "inputs": [],
      "name": "owner",
      "outputs": [
        {
          "internalType": "address",
          "name": "",
          "type": "address"
        }
      ],
      "stateMutability": "view",
      "type": "function",
      "constant": true
    },
    {
      "inputs": [],
      "name": "renounceOwnership",
      "outputs": [],
      "stateMutability": "nonpayable",
      "type": "function"
    },
    {
      "inputs": [
        {
          "internalType": "address",
          "name": "newOwner",
          "type": "address"
        }
      ],
      "name": "transferOwnership",
      "outputs": [],
      "stateMutability": "nonpayable",
      "type": "function"
    },
    {
      "inputs": [],
      "name": "winningProposalID",
      "outputs": [
        {
          "internalType": "uint256",
          "name": "",
          "type": "uint256"
        }
      ],
      "stateMutability": "view",
      "type": "function",
      "constant": true
    },
    {
      "inputs": [],
      "name": "workflowStatus",
      "outputs": [
        {
          "internalType": "enum Voting.WorkflowStatus",
          "name": "",
          "type": "uint8"
        }
      ],
      "stateMutability": "view",
      "type": "function",
      "constant": true
    },
    {
      "inputs": [],
      "name": "me",
      "outputs": [
        {
          "components": [
            {
              "internalType": "bool",
              "name": "isRegistered",
              "type": "bool"
            },
            {
              "internalType": "bool",
              "name": "hasVoted",
              "type": "bool"
            },
            {
              "internalType": "uint256",
              "name": "votedProposalId",
              "type": "uint256"
            }
          ],
          "internalType": "struct Voting.Voter",
          "name": "",
          "type": "tuple"
        }
      ],
      "stateMutability": "view",
      "type": "function",
      "constant": true
    },
    {
      "inputs": [
        {
          "internalType": "address",
          "name": "_addr",
          "type": "address"
        }
      ],
      "name": "getVoter",
      "outputs": [
        {
          "components": [
            {
              "internalType": "bool",
              "name": "isRegistered",
              "type": "bool"
            },
            {
              "internalType": "bool",
              "name": "hasVoted",
              "type": "bool"
            },
            {
              "internalType": "uint256",
              "name": "votedProposalId",
              "type": "uint256"
            }
          ],
          "internalType": "struct Voting.Voter",
          "name": "",
          "type": "tuple"
        }
      ],
      "stateMutability": "view",
      "type": "function",
      "constant": true
    },
    {
      "inputs": [],
      "name": "getProposals",
      "outputs": [
        {
          "components": [
            {
              "internalType": "string",
              "name": "description",
              "type": "string"
            },
            {
              "internalType": "uint256",
              "name": "voteCount",
              "type": "uint256"
            }
          ],
          "internalType": "struct Voting.Proposal[]",
          "name": "",
          "type": "tuple[]"
        }
      ],
      "stateMutability": "view",
      "type": "function",
      "constant": true
    },
    {
      "inputs": [
        {
          "internalType": "uint256",
          "name": "_id",
          "type": "uint256"
        }
      ],
      "name": "getOneProposal",
      "outputs": [
        {
          "components": [
            {
              "internalType": "string",
              "name": "description",
              "type": "string"
            },
            {
              "internalType": "uint256",
              "name": "voteCount",
              "type": "uint256"
            }
          ],
          "internalType": "struct Voting.Proposal",
          "name": "",
          "type": "tuple"
        }
      ],
      "stateMutability": "view",
      "type": "function",
      "constant": true
    },
    {
      "inputs": [
        {
          "internalType": "address",
          "name": "_addr",
          "type": "address"
        }
      ],
      "name": "addVoter",
      "outputs": [],
      "stateMutability": "nonpayable",
      "type": "function"
    },
    {
      "inputs": [
        {
          "internalType": "string",
          "name": "_desc",
          "type": "string"
        }
      ],
      "name": "addProposal",
      "outputs": [],
      "stateMutability": "nonpayable",
      "type": "function"
    },
    {
      "inputs": [
        {
          "internalType": "uint256",
          "name": "_id",
          "type": "uint256"
        }
      ],
      "name": "setVote",
      "outputs": [],
      "stateMutability": "nonpayable",
      "type": "function"
    },
    {
      "inputs": [],
      "name": "startProposalsRegistering",
      "outputs": [],
      "stateMutability": "nonpayable",
      "type": "function"
    },
    {
      "inputs": [],
      "name": "endProposalsRegistering",
      "outputs": [],
      "stateMutability": "nonpayable",
      "type": "function"
    },
    {
      "inputs": [],
      "name": "startVotingSession",
      "outputs": [],
      "stateMutability": "nonpayable",
      "type": "function"
    },
    {
      "inputs": [],
      "name": "endVotingSession",
      "outputs": [],
      "stateMutability": "nonpayable",
      "type": "function"
    },
    {
      "inputs": [],
      "name": "tallyVotes",
      "outputs": [],
      "stateMutability": "nonpayable",
      "type": "function"
    }
  ],
  "bytecode": "0x60806040523480156200001157600080fd5b50620000446200002f6200004a640100000000026401000000009004565b62000052640100000000026401000000009004565b62000116565b600033905090565b60008060009054906101000a900473ffffffffffffffffffffffffffffffffffffffff169050816000806101000a81548173ffffffffffffffffffffffffffffffffffffffff021916908373ffffffffffffffffffffffffffffffffffffffff1602179055508173ffffffffffffffffffffffffffffffffffffffff168173ffffffffffffffffffffffffffffffffffffffff167f8be0079c531659141344cd1fd0a4f28419497f9722a3daafe3b4186f6b6457e060405160405180910390a35050565b61285e80620001266000396000f3fe608060405234801561001057600080fd5b5060043610610133576000357c010000000000000000000000000000000000000000000000000000000090048063bdc01431116100bf578063cb12b48f1161008e578063cb12b48f14610268578063d4f50f9814610286578063ee74c678146102b6578063f2fde38b146102c0578063f4ab9adf146102dc57610133565b8063bdc0143114610218578063bfcddbbc14610236578063c7038a4e14610254578063c88af42f1461025e57610133565b8063715018a611610106578063715018a6146101985780638da5cb5b146101a2578063a1edffa2146101c0578063a2788cce146101de578063a7bfab161461020e57610133565b8063230796ae146101385780632fdae3c514610154578063378a21781461017057806362564c481461017a575b600080fd5b610152600480360381019061014d919061169b565b6102f8565b005b61016e6004803603810190610169919061180e565b61062a565b005b610178610866565b005b61018261094c565b60405161018f91906119e4565b60405180910390f35b6101a0610ad6565b005b6101aa610aea565b6040516101b79190611a47565b60405180910390f35b6101c8610b13565b6040516101d59190611ad9565b60405180910390f35b6101f860048036038101906101f3919061169b565b610b26565b6040516102059190611b31565b60405180910390f35b610216610c8d565b005b610220610d73565b60405161022d9190611b62565b60405180910390f35b61023e610d79565b60405161024b9190611b62565b60405180910390f35b61025c610d7f565b005b610266610efa565b005b610270610fe0565b60405161027d9190611bda565b60405180910390f35b6102a0600480360381019061029b9190611c21565b611077565b6040516102ad9190611bda565b60405180910390f35b6102be61119f565b005b6102da60048036038101906102d59190611c21565b611284565b005b6102f660048036038101906102f19190611c21565b611307565b005b600560003373ffffffffffffffffffffffffffffffffffffffff1673ffffffffffffffffffffffffffffffffffffffff16815260200190815260200160002060000160009054906101000a900460ff16610387576040517f08c379a000000000000000000000000000000000000000000000000000000000815260040161037e90611cab565b60405180910390fd5b6003600581111561039b5761039a611a62565b5b600360009054906101000a900460ff1660058111156103bd576103bc611a62565b5b146103fd576040517f08c379a00000000000000000000000000000000000000000000000000000000081526004016103f490611d3d565b60405180910390fd5b60011515600560003373ffffffffffffffffffffffffffffffffffffffff1673ffffffffffffffffffffffffffffffffffffffff16815260200190815260200160002060000160019054906101000a900460ff16151503610493576040517f08c379a000000000000000000000000000000000000000000000000000000000815260040161048a90611da9565b60405180910390fd5b60048054905081106104da576040517f08c379a00000000000000000000000000000000000000000000000000000000081526004016104d190611e15565b60405180910390fd5b80600560003373ffffffffffffffffffffffffffffffffffffffff1673ffffffffffffffffffffffffffffffffffffffff168152602001908152602001600020600101819055506001600560003373ffffffffffffffffffffffffffffffffffffffff1673ffffffffffffffffffffffffffffffffffffffff16815260200190815260200160002060000160016101000a81548160ff021916908315150217905550600481815481106105905761058f611e35565b5b906000526020600020906002020160010160008154809291906105b290611e93565b9190505550600154600482815481106105ce576105cd611e35565b5b90600052602060002090600202016001015411156105ee57806001819055505b7f4d99b957a2bc29a30ebd96a7be8e68fe50a3c701db28a91436490b7d53870ca4338260405161061f929190611edb565b60405180910390a150565b600560003373ffffffffffffffffffffffffffffffffffffffff1673ffffffffffffffffffffffffffffffffffffffff16815260200190815260200160002060000160009054906101000a900460ff166106b9576040517f08c379a00000000000000000000000000000000000000000000000000000000081526004016106b090611cab565b60405180910390fd5b600160058111156106cd576106cc611a62565b5b600360009054906101000a900460ff1660058111156106ef576106ee611a62565b5b1461072f576040517f08c379a000000000000000000000000000000000000000000000000000000000815260040161072690611f50565b60405180910390fd5b60405160200161073e90611f96565b60405160208183030381529060405280519060200120816040516020016107659190611fef565b60405160208183030381529060405280519060200120036107bb576040517f08c379a00000000000000000000000000000000000000000000000000000000081526004016107b290612083565b60405180910390fd5b6107c3611612565b8181600001819052506004819080600181540180825580915050600190039060005260206000209060020201600090919091909150600082015181600001908161080d91906122b5565b506020820151816001015550507f92e393e9b54e2f801d3ea4beb0c5e71a21cc34a5d34b77d0fb8a3aa1650dc18f600160048054905061084d9190612387565b60405161085a9190611b62565b60405180910390a15050565b61086e6114c8565b6004600581111561088257610881611a62565b5b600360009054906101000a900460ff1660058111156108a4576108a3611a62565b5b146108e4576040517f08c379a00000000000000000000000000000000000000000000000000000000081526004016108db9061242d565b60405180910390fd5b6005600360006101000a81548160ff0219169083600581111561090a57610909611a62565b5b02179055507f0a97a4ee45751e2abf3e4fc8946939630b11b371ea8ae39ccdc3056e98f5cc3f6004600560405161094292919061244d565b60405180910390a1565b6060600560003373ffffffffffffffffffffffffffffffffffffffff1673ffffffffffffffffffffffffffffffffffffffff16815260200190815260200160002060000160009054906101000a900460ff166109dd576040517f08c379a00000000000000000000000000000000000000000000000000000000081526004016109d490611cab565b60405180910390fd5b6004805480602002602001604051908101604052809291908181526020016000905b82821015610acd5783829060005260206000209060020201604051806040016040529081600082018054610a32906120d2565b80601f0160208091040260200160405190810160405280929190818152602001828054610a5e906120d2565b8015610aab5780601f10610a8057610100808354040283529160200191610aab565b820191906000526020600020905b815481529060010190602001808311610a8e57829003601f168201915b50505050508152602001600182015481525050815260200190600101906109ff565b50505050905090565b610ade6114c8565b610ae86000611546565b565b60008060009054906101000a900473ffffffffffffffffffffffffffffffffffffffff16905090565b600360009054906101000a900460ff1681565b610b2e611612565b600560003373ffffffffffffffffffffffffffffffffffffffff1673ffffffffffffffffffffffffffffffffffffffff16815260200190815260200160002060000160009054906101000a900460ff16610bbd576040517f08c379a0000000000000000000000000000000000000000000000000000000008152600401610bb490611cab565b60405180910390fd5b60048281548110610bd157610bd0611e35565b5b9060005260206000209060020201604051806040016040529081600082018054610bfa906120d2565b80601f0160208091040260200160405190810160405280929190818152602001828054610c26906120d2565b8015610c735780601f10610c4857610100808354040283529160200191610c73565b820191906000526020600020905b815481529060010190602001808311610c5657829003601f168201915b505050505081526020016001820154815250509050919050565b610c956114c8565b60036005811115610ca957610ca8611a62565b5b600360009054906101000a900460ff166005811115610ccb57610cca611a62565b5b14610d0b576040517f08c379a0000000000000000000000000000000000000000000000000000000008152600401610d0290611d3d565b60405180910390fd5b6004600360006101000a81548160ff02191690836005811115610d3157610d30611a62565b5b02179055507f0a97a4ee45751e2abf3e4fc8946939630b11b371ea8ae39ccdc3056e98f5cc3f60036004604051610d6992919061244d565b60405180910390a1565b60015481565b60025481565b610d876114c8565b60006005811115610d9b57610d9a611a62565b5b600360009054906101000a900460ff166005811115610dbd57610dbc611a62565b5b14610dfd576040517f08c379a0000000000000000000000000000000000000000000000000000000008152600401610df4906124e8565b60405180910390fd5b6001600360006101000a81548160ff02191690836005811115610e2357610e22611a62565b5b0217905550610e30611612565b6040518060400160405280600781526020017f47454e4553495300000000000000000000000000000000000000000000000000815250816000018190525060048190806001815401808255809150506001900390600052602060002090600202016000909190919091506000820151816000019081610eaf91906122b5565b506020820151816001015550507f0a97a4ee45751e2abf3e4fc8946939630b11b371ea8ae39ccdc3056e98f5cc3f60006001604051610eef92919061244d565b60405180910390a150565b610f026114c8565b60016005811115610f1657610f15611a62565b5b600360009054906101000a900460ff166005811115610f3857610f37611a62565b5b14610f78576040517f08c379a0000000000000000000000000000000000000000000000000000000008152600401610f6f9061257a565b60405180910390fd5b6002600360006101000a81548160ff02191690836005811115610f9e57610f9d611a62565b5b02179055507f0a97a4ee45751e2abf3e4fc8946939630b11b371ea8ae39ccdc3056e98f5cc3f60016002604051610fd692919061244d565b60405180910390a1565b610fe861162c565b600560003373ffffffffffffffffffffffffffffffffffffffff1673ffffffffffffffffffffffffffffffffffffffff1681526020019081526020016000206040518060600160405290816000820160009054906101000a900460ff161515151581526020016000820160019054906101000a900460ff16151515158152602001600182015481525050905090565b61107f61162c565b600560003373ffffffffffffffffffffffffffffffffffffffff1673ffffffffffffffffffffffffffffffffffffffff16815260200190815260200160002060000160009054906101000a900460ff1661110e576040517f08c379a000000000000000000000000000000000000000000000000000000000815260040161110590611cab565b60405180910390fd5b600560008373ffffffffffffffffffffffffffffffffffffffff1673ffffffffffffffffffffffffffffffffffffffff1681526020019081526020016000206040518060600160405290816000820160009054906101000a900460ff161515151581526020016000820160019054906101000a900460ff161515151581526020016001820154815250509050919050565b6111a76114c8565b600260058111156111bb576111ba611a62565b5b600360009054906101000a900460ff1660058111156111dd576111dc611a62565b5b1461121d576040517f08c379a00000000000000000000000000000000000000000000000000000000081526004016112149061260c565b60405180910390fd5b60038060006101000a81548160ff0219169083600581111561124257611241611a62565b5b02179055507f0a97a4ee45751e2abf3e4fc8946939630b11b371ea8ae39ccdc3056e98f5cc3f6002600360405161127a92919061244d565b60405180910390a1565b61128c6114c8565b600073ffffffffffffffffffffffffffffffffffffffff168173ffffffffffffffffffffffffffffffffffffffff16036112fb576040517f08c379a00000000000000000000000000000000000000000000000000000000081526004016112f29061269e565b60405180910390fd5b61130481611546565b50565b61130f6114c8565b6000600581111561132357611322611a62565b5b600360009054906101000a900460ff16600581111561134557611344611a62565b5b14611385576040517f08c379a000000000000000000000000000000000000000000000000000000000815260040161137c90612730565b60405180910390fd5b60011515600560008373ffffffffffffffffffffffffffffffffffffffff1673ffffffffffffffffffffffffffffffffffffffff16815260200190815260200160002060000160009054906101000a900460ff1615150361141b576040517f08c379a00000000000000000000000000000000000000000000000000000000081526004016114129061279c565b60405180910390fd5b6001600560008373ffffffffffffffffffffffffffffffffffffffff1673ffffffffffffffffffffffffffffffffffffffff16815260200190815260200160002060000160006101000a81548160ff0219169083151502179055506002600081548092919061148990611e93565b91905055507fb6be2187d059cc2a55fe29e0e503b566e1e0f8c8780096e185429350acffd3dd816040516114bd9190611a47565b60405180910390a150565b6114d061160a565b73ffffffffffffffffffffffffffffffffffffffff166114ee610aea565b73ffffffffffffffffffffffffffffffffffffffff1614611544576040517f08c379a000000000000000000000000000000000000000000000000000000000815260040161153b90612808565b60405180910390fd5b565b60008060009054906101000a900473ffffffffffffffffffffffffffffffffffffffff169050816000806101000a81548173ffffffffffffffffffffffffffffffffffffffff021916908373ffffffffffffffffffffffffffffffffffffffff1602179055508173ffffffffffffffffffffffffffffffffffffffff168173ffffffffffffffffffffffffffffffffffffffff167f8be0079c531659141344cd1fd0a4f28419497f9722a3daafe3b4186f6b6457e060405160405180910390a35050565b600033905090565b604051806040016040528060608152602001600081525090565b6040518060600160405280600015158152602001600015158152602001600081525090565b6000604051905090565b600080fd5b600080fd5b6000819050919050565b61167881611665565b811461168357600080fd5b50565b6000813590506116958161166f565b92915050565b6000602082840312156116b1576116b061165b565b5b60006116bf84828501611686565b91505092915050565b600080fd5b600080fd5b6000601f19601f8301169050919050565b7f4e487b7100000000000000000000000000000000000000000000000000000000600052604160045260246000fd5b61171b826116d2565b810181811067ffffffffffffffff8211171561173a576117396116e3565b5b80604052505050565b600061174d611651565b90506117598282611712565b919050565b600067ffffffffffffffff821115611779576117786116e3565b5b611782826116d2565b9050602081019050919050565b82818337600083830152505050565b60006117b16117ac8461175e565b611743565b9050828152602081018484840111156117cd576117cc6116cd565b5b6117d884828561178f565b509392505050565b600082601f8301126117f5576117f46116c8565b5b813561180584826020860161179e565b91505092915050565b6000602082840312156118245761182361165b565b5b600082013567ffffffffffffffff81111561184257611841611660565b5b61184e848285016117e0565b91505092915050565b600081519050919050565b600082825260208201905092915050565b6000819050602082019050919050565b600081519050919050565b600082825260208201905092915050565b60005b838110156118bd5780820151818401526020810190506118a2565b60008484015250505050565b60006118d482611883565b6118de818561188e565b93506118ee81856020860161189f565b6118f7816116d2565b840191505092915050565b61190b81611665565b82525050565b6000604083016000830151848203600086015261192e82826118c9565b91505060208301516119436020860182611902565b508091505092915050565b600061195a8383611911565b905092915050565b6000602082019050919050565b600061197a82611857565b6119848185611862565b93508360208202850161199685611873565b8060005b858110156119d257848403895281516119b3858261194e565b94506119be83611962565b925060208a0199505060018101905061199a565b50829750879550505050505092915050565b600060208201905081810360008301526119fe818461196f565b905092915050565b600073ffffffffffffffffffffffffffffffffffffffff82169050919050565b6000611a3182611a06565b9050919050565b611a4181611a26565b82525050565b6000602082019050611a5c6000830184611a38565b92915050565b7f4e487b7100000000000000000000000000000000000000000000000000000000600052602160045260246000fd5b60068110611aa257611aa1611a62565b5b50565b6000819050611ab382611a91565b919050565b6000611ac382611aa5565b9050919050565b611ad381611ab8565b82525050565b6000602082019050611aee6000830184611aca565b92915050565b60006040830160008301518482036000860152611b1182826118c9565b9150506020830151611b266020860182611902565b508091505092915050565b60006020820190508181036000830152611b4b8184611af4565b905092915050565b611b5c81611665565b82525050565b6000602082019050611b776000830184611b53565b92915050565b60008115159050919050565b611b9281611b7d565b82525050565b606082016000820151611bae6000850182611b89565b506020820151611bc16020850182611b89565b506040820151611bd46040850182611902565b50505050565b6000606082019050611bef6000830184611b98565b92915050565b611bfe81611a26565b8114611c0957600080fd5b50565b600081359050611c1b81611bf5565b92915050565b600060208284031215611c3757611c3661165b565b5b6000611c4584828501611c0c565b91505092915050565b600082825260208201905092915050565b7f596f75277265206e6f74206120766f7465720000000000000000000000000000600082015250565b6000611c95601283611c4e565b9150611ca082611c5f565b602082019050919050565b60006020820190508181036000830152611cc481611c88565b9050919050565b7f566f74696e672073657373696f6e20686176656e74207374617274656420796560008201527f7400000000000000000000000000000000000000000000000000000000000000602082015250565b6000611d27602183611c4e565b9150611d3282611ccb565b604082019050919050565b60006020820190508181036000830152611d5681611d1a565b9050919050565b7f596f75206861766520616c726561647920766f74656400000000000000000000600082015250565b6000611d93601683611c4e565b9150611d9e82611d5d565b602082019050919050565b60006020820190508181036000830152611dc281611d86565b9050919050565b7f50726f706f73616c206e6f7420666f756e640000000000000000000000000000600082015250565b6000611dff601283611c4e565b9150611e0a82611dc9565b602082019050919050565b60006020820190508181036000830152611e2e81611df2565b9050919050565b7f4e487b7100000000000000000000000000000000000000000000000000000000600052603260045260246000fd5b7f4e487b7100000000000000000000000000000000000000000000000000000000600052601160045260246000fd5b6000611e9e82611665565b91507fffffffffffffffffffffffffffffffffffffffffffffffffffffffffffffffff8203611ed057611ecf611e64565b5b600182019050919050565b6000604082019050611ef06000830185611a38565b611efd6020830184611b53565b9392505050565b7f50726f706f73616c7320617265206e6f7420616c6c6f77656420796574000000600082015250565b6000611f3a601d83611c4e565b9150611f4582611f04565b602082019050919050565b60006020820190508181036000830152611f6981611f2d565b9050919050565b50565b6000611f80600083611c4e565b9150611f8b82611f70565b600082019050919050565b60006020820190508181036000830152611faf81611f73565b9050919050565b6000611fc182611883565b611fcb8185611c4e565b9350611fdb81856020860161189f565b611fe4816116d2565b840191505092915050565b600060208201905081810360008301526120098184611fb6565b905092915050565b7f566f7573206e6520706f7576657a20706173206e65207269656e2070726f706f60008201527f7365720000000000000000000000000000000000000000000000000000000000602082015250565b600061206d602383611c4e565b915061207882612011565b604082019050919050565b6000602082019050818103600083015261209c81612060565b9050919050565b7f4e487b7100000000000000000000000000000000000000000000000000000000600052602260045260246000fd5b600060028204905060018216806120ea57607f821691505b6020821081036120fd576120fc6120a3565b5b50919050565b60008190508160005260206000209050919050565b60006020601f8301049050919050565b60008160020a8302905092915050565b6000600883026121687fffffffffffffffffffffffffffffffffffffffffffffffffffffffffffffffff82612128565b6121728683612128565b95508019841693508086168417925050509392505050565b6000819050919050565b60006121af6121aa6121a584611665565b61218a565b611665565b9050919050565b6000819050919050565b6121c983612194565b6121dd6121d5826121b6565b848454612138565b825550505050565b600090565b6121f26121e5565b6121fd8184846121c0565b505050565b5b81811015612221576122166000826121ea565b600181019050612203565b5050565b601f8211156122665761223781612103565b61224084612118565b8101602085101561224f578190505b61226361225b85612118565b830182612202565b50505b505050565b60008160020a8304905092915050565b600061228c6000198460080261226b565b1980831691505092915050565b60006122a5838361227b565b9150826002028217905092915050565b6122be82611883565b67ffffffffffffffff8111156122d7576122d66116e3565b5b6122e182546120d2565b6122ec828285612225565b600060209050601f83116001811461231f576000841561230d578287015190505b6123178582612299565b86555061237f565b601f19841661232d86612103565b60005b8281101561235557848901518255600182019150602085019450602081019050612330565b86831015612372578489015161236e601f89168261227b565b8355505b6001600288020188555050505b505050505050565b600061239282611665565b915061239d83611665565b92508282039050818111156123b5576123b4611e64565b5b92915050565b7f43757272656e7420737461747573206973206e6f7420766f74696e672073657360008201527f73696f6e20656e64656400000000000000000000000000000000000000000000602082015250565b6000612417602a83611c4e565b9150612422826123bb565b604082019050919050565b600060208201905081810360008301526124468161240a565b9050919050565b60006040820190506124626000830185611aca565b61246f6020830184611aca565b9392505050565b7f5265676973746572696e672070726f706f73616c732063616e7420626520737460008201527f6172746564206e6f770000000000000000000000000000000000000000000000602082015250565b60006124d2602983611c4e565b91506124dd82612476565b604082019050919050565b60006020820190508181036000830152612501816124c5565b9050919050565b7f5265676973746572696e672070726f706f73616c7320686176656e742073746160008201527f7274656420796574000000000000000000000000000000000000000000000000602082015250565b6000612564602883611c4e565b915061256f82612508565b604082019050919050565b6000602082019050818103600083015261259381612557565b9050919050565b7f5265676973746572696e672070726f706f73616c73207068617365206973206e60008201527f6f742066696e6973686564000000000000000000000000000000000000000000602082015250565b60006125f6602b83611c4e565b91506126018261259a565b604082019050919050565b60006020820190508181036000830152612625816125e9565b9050919050565b7f4f776e61626c653a206e6577206f776e657220697320746865207a65726f206160008201527f6464726573730000000000000000000000000000000000000000000000000000602082015250565b6000612688602683611c4e565b91506126938261262c565b604082019050919050565b600060208201905081810360008301526126b78161267b565b9050919050565b7f566f7465727320726567697374726174696f6e206973206e6f74206f70656e2060008201527f7965740000000000000000000000000000000000000000000000000000000000602082015250565b600061271a602383611c4e565b9150612725826126be565b604082019050919050565b600060208201905081810360008301526127498161270d565b9050919050565b7f416c726561647920726567697374657265640000000000000000000000000000600082015250565b6000612786601283611c4e565b915061279182612750565b602082019050919050565b600060208201905081810360008301526127b581612779565b9050919050565b7f4f776e61626c653a2063616c6c6572206973206e6f7420746865206f776e6572600082015250565b60006127f2602083611c4e565b91506127fd826127bc565b602082019050919050565b60006020820190508181036000830152612821816127e5565b905091905056fea26469706673582212204207776a9c4a56c99040d60fb793050fcd8eb1616534a64029c093c7343a145464736f6c63430008110033",
  "immutableReferences": {},
  "source": "// SPDX-License-Identifier: MIT\n\npragma solidity 0.8.17;\nimport \"@openzeppelin/contracts/access/Ownable.sol\";\n\n/**\n * @title A linear voting system\n * @author @lecascyril\n * @notice the owner facilitates the voting sessions. voters make proposals and vote for their favorite.\n * @dev One contract action is possible per voting session.\n */\ncontract Voting is Ownable {\n    uint256 public winningProposalID;\n    uint256 public nbVoters;\n\n    struct Voter {\n        bool isRegistered;\n        bool hasVoted;\n        uint256 votedProposalId;\n    }\n\n    struct Proposal {\n        string description;\n        uint256 voteCount;\n    }\n\n    enum WorkflowStatus {\n        RegisteringVoters,\n        ProposalsRegistrationStarted,\n        ProposalsRegistrationEnded,\n        VotingSessionStarted,\n        VotingSessionEnded,\n        VotesTallied\n    }\n\n    WorkflowStatus public workflowStatus;\n    Proposal[] proposalsArray;\n    mapping(address => Voter) voters;\n\n    event VoterRegistered(address voterAddress);\n    event WorkflowStatusChange(\n        WorkflowStatus previousStatus,\n        WorkflowStatus newStatus\n    );\n    event ProposalRegistered(uint256 proposalId);\n    event Voted(address voter, uint256 proposalId);\n\n    /** */\n    modifier onlyVoters() {\n        require(voters[msg.sender].isRegistered, \"You're not a voter\");\n        _;\n    }\n\n    // ::::::::::::: GETTERS ::::::::::::: //\n    /**\n     * @notice Get self as voter\n     * @dev Getter on voters mapping\n     * @return Voter object\n     */\n    function me() external view returns (Voter memory) {\n        return voters[msg.sender];\n    }\n\n    /**\n     * @notice Get one Voter\n     * @dev Getter on voters mapping\n     * @param _addr The address of registered voter\n     * @return Voter object\n     */\n    function getVoter(address _addr)\n        external\n        view\n        onlyVoters\n        returns (Voter memory)\n    {\n        return voters[_addr];\n    }\n\n    /**\n     * @notice Get list of proposals\n     * @dev Getter on proposal array\n     * @return Proposal[] proposalsArray\n     */\n    function getProposals()\n        external\n        view\n        onlyVoters\n        returns (Proposal[] memory)\n    {\n        return proposalsArray;\n    }\n\n    /**\n     * @notice Get one proposal\n     * @dev Explicit getter on voters array\n     * @param _id The id of proposal\n     * @return Proposal object\n     */\n    function getOneProposal(uint256 _id)\n        external\n        view\n        onlyVoters\n        returns (Proposal memory)\n    {\n        return proposalsArray[_id];\n    }\n\n    // ::::::::::::: REGISTRATION ::::::::::::: //\n\n    /**\n     * @notice Owner Add a voter at RegisteringVoters session\n     * @dev add a voter with his address and give him the right to vote\n     * @param _addr The address of voter\n     */\n    function addVoter(address _addr) external onlyOwner {\n        require(\n            workflowStatus == WorkflowStatus.RegisteringVoters,\n            \"Voters registration is not open yet\"\n        );\n        require(voters[_addr].isRegistered != true, \"Already registered\");\n\n        voters[_addr].isRegistered = true;\n        nbVoters++;\n        emit VoterRegistered(_addr);\n    }\n\n    // ::::::::::::: PROPOSAL ::::::::::::: //\n\n    /**\n     * @notice Voters Add a proposal at ProposalsRegistrationStarted session\n     * @param _desc The proposal description of registered voter\n     */\n    function addProposal(string memory _desc) external onlyVoters {\n        require(\n            workflowStatus == WorkflowStatus.ProposalsRegistrationStarted,\n            \"Proposals are not allowed yet\"\n        );\n        require(\n            keccak256(abi.encode(_desc)) != keccak256(abi.encode(\"\")),\n            \"Vous ne pouvez pas ne rien proposer\"\n        );\n\n        Proposal memory proposal;\n        proposal.description = _desc;\n        proposalsArray.push(proposal);\n        emit ProposalRegistered(proposalsArray.length - 1);\n    }\n\n    // ::::::::::::: VOTE ::::::::::::: //\n\n    /**\n     * @notice Voters vote once for a a proposal at VotingSessionStarted session\n     * @dev Register the proposal id in voter object, calculate temporary winner\n     * @param _id The id of proposal\n     */\n    function setVote(uint256 _id) external onlyVoters {\n        require(\n            workflowStatus == WorkflowStatus.VotingSessionStarted,\n            \"Voting session havent started yet\"\n        );\n        require(voters[msg.sender].hasVoted != true, \"You have already voted\");\n        require(_id < proposalsArray.length, \"Proposal not found\");\n\n        voters[msg.sender].votedProposalId = _id;\n        voters[msg.sender].hasVoted = true;\n        proposalsArray[_id].voteCount++;\n\n        if (proposalsArray[_id].voteCount > winningProposalID) {\n            winningProposalID = _id;\n        }\n        emit Voted(msg.sender, _id);\n    }\n\n    // ::::::::::::: STATE ::::::::::::: //\n\n    /**\n     * @notice Owner set session to ProposalsRegistrationStarted after Registering\n     * @dev A proposal GENESIS created to skip side effect with all not participating voters\n     */\n    function startProposalsRegistering() external onlyOwner {\n        require(\n            workflowStatus == WorkflowStatus.RegisteringVoters,\n            \"Registering proposals cant be started now\"\n        );\n        workflowStatus = WorkflowStatus.ProposalsRegistrationStarted;\n\n        Proposal memory proposal;\n        proposal.description = \"GENESIS\";\n        proposalsArray.push(proposal);\n\n        emit WorkflowStatusChange(\n            WorkflowStatus.RegisteringVoters,\n            WorkflowStatus.ProposalsRegistrationStarted\n        );\n    }\n\n    /**\n     * @notice Owner set session to ProposalsRegistrationEnded after ProposalsRegistrationStarted\n     */\n    function endProposalsRegistering() external onlyOwner {\n        require(\n            workflowStatus == WorkflowStatus.ProposalsRegistrationStarted,\n            \"Registering proposals havent started yet\"\n        );\n        workflowStatus = WorkflowStatus.ProposalsRegistrationEnded;\n        emit WorkflowStatusChange(\n            WorkflowStatus.ProposalsRegistrationStarted,\n            WorkflowStatus.ProposalsRegistrationEnded\n        );\n    }\n\n    /**\n     * @notice Owner set session to VotingSessionStarted after ProposalsRegistrationEnded\n     */\n    function startVotingSession() external onlyOwner {\n        require(\n            workflowStatus == WorkflowStatus.ProposalsRegistrationEnded,\n            \"Registering proposals phase is not finished\"\n        );\n        workflowStatus = WorkflowStatus.VotingSessionStarted;\n        emit WorkflowStatusChange(\n            WorkflowStatus.ProposalsRegistrationEnded,\n            WorkflowStatus.VotingSessionStarted\n        );\n    }\n\n    /**\n     * @notice Owner set session to VotingSessionEnded after VotingSessionStarted\n     */\n    function endVotingSession() external onlyOwner {\n        require(\n            workflowStatus == WorkflowStatus.VotingSessionStarted,\n            \"Voting session havent started yet\"\n        );\n        workflowStatus = WorkflowStatus.VotingSessionEnded;\n        emit WorkflowStatusChange(\n            WorkflowStatus.VotingSessionStarted,\n            WorkflowStatus.VotingSessionEnded\n        );\n    }\n\n    /**\n     * @notice Owner calculate winner after VotingSessionEnded\n     * @dev the highest number of votes for a proposal wins\n     */\n    function tallyVotes() external onlyOwner {\n        require(\n            workflowStatus == WorkflowStatus.VotingSessionEnded,\n            \"Current status is not voting session ended\"\n        );\n\n        workflowStatus = WorkflowStatus.VotesTallied;\n        emit WorkflowStatusChange(\n            WorkflowStatus.VotingSessionEnded,\n            WorkflowStatus.VotesTallied\n        );\n    }\n}\n",
  "sourcePath": "C:\\Users\\ramad\\Documents\\Developpeur-Ethereum-Template\\6. Dapp\\truffle\\contracts\\voting.sol",
  "compiler": {
    "name": "solc",
    "version": "0.8.17+commit.8df45f5f.Emscripten.clang"
  },
  "schemaVersion": "3.4.10",
  "updatedAt": "2022-11-21T18:16:24.031Z",
  "networkType": "ethereum",
  "devdoc": {
    "author": "@lecascyril",
    "details": "One contract action is possible per voting session.",
    "kind": "dev",
    "methods": {
      "addProposal(string)": {
        "params": {
          "_desc": "The proposal description of registered voter"
        }
      },
      "addVoter(address)": {
        "details": "add a voter with his address and give him the right to vote",
        "params": {
          "_addr": "The address of voter"
        }
      },
      "getOneProposal(uint256)": {
        "details": "Explicit getter on voters array",
        "params": {
          "_id": "The id of proposal"
        },
        "returns": {
          "_0": "Proposal object"
        }
      },
      "getProposals()": {
        "details": "Getter on proposal array",
        "returns": {
          "_0": "Proposal[] proposalsArray"
        }
      },
      "getVoter(address)": {
        "details": "Getter on voters mapping",
        "params": {
          "_addr": "The address of registered voter"
        },
        "returns": {
          "_0": "Voter object"
        }
      },
      "me()": {
        "details": "Getter on voters mapping",
        "returns": {
          "_0": "Voter object"
        }
      },
      "owner()": {
        "details": "Returns the address of the current owner."
      },
      "renounceOwnership()": {
        "details": "Leaves the contract without owner. It will not be possible to call `onlyOwner` functions anymore. Can only be called by the current owner. NOTE: Renouncing ownership will leave the contract without an owner, thereby removing any functionality that is only available to the owner."
      },
      "setVote(uint256)": {
        "details": "Register the proposal id in voter object, calculate temporary winner",
        "params": {
          "_id": "The id of proposal"
        }
      },
      "startProposalsRegistering()": {
        "details": "A proposal GENESIS created to skip side effect with all not participating voters"
      },
      "tallyVotes()": {
        "details": "the highest number of votes for a proposal wins"
      },
      "transferOwnership(address)": {
        "details": "Transfers ownership of the contract to a new account (`newOwner`). Can only be called by the current owner."
      }
    },
    "title": "A linear voting system",
    "version": 1
  },
  "userdoc": {
    "kind": "user",
    "methods": {
      "addProposal(string)": {
        "notice": "Voters Add a proposal at ProposalsRegistrationStarted session"
      },
      "addVoter(address)": {
        "notice": "Owner Add a voter at RegisteringVoters session"
      },
      "endProposalsRegistering()": {
        "notice": "Owner set session to ProposalsRegistrationEnded after ProposalsRegistrationStarted"
      },
      "endVotingSession()": {
        "notice": "Owner set session to VotingSessionEnded after VotingSessionStarted"
      },
      "getOneProposal(uint256)": {
        "notice": "Get one proposal"
      },
      "getProposals()": {
        "notice": "Get list of proposals"
      },
      "getVoter(address)": {
        "notice": "Get one Voter"
      },
      "me()": {
        "notice": "Get self as voter"
      },
      "setVote(uint256)": {
        "notice": "Voters vote once for a a proposal at VotingSessionStarted session"
      },
      "startProposalsRegistering()": {
        "notice": "Owner set session to ProposalsRegistrationStarted after Registering"
      },
      "startVotingSession()": {
        "notice": "Owner set session to VotingSessionStarted after ProposalsRegistrationEnded"
      },
      "tallyVotes()": {
        "notice": "Owner calculate winner after VotingSessionEnded"
      }
    },
    "notice": "the owner facilitates the voting sessions. voters make proposals and vote for their favorite.",
    "version": 1
  }
}